:020000040000FA
:1000000048440020150200001D0200001F020000ED
:100010002102000023020000250200000000000071
:1000200000000000000000000000000027020000A7
:1000300029020000000000002B0200002D02000039
:100040002F0200002F0200002F0200002F020000EC
:100050002F0200002F0200002F0200002F020000DC
:100060007D050000A90500002F0200002F020000FE
:100070002F0200002F0200002F0200002F020000BC
:100080002F0200002F0200002F0200002F020000AC
:100090002F0200002F0200002F0200002F0200009C
:1000A0002F0200002F0200002F0200002F0200008C
:1000B0002F0200002F0200000000000000000000DE
:1000C0002F0200002F0200002F0200002F0200006C
:1000D0002F0200002F0200002F0200002F0200005C
:1000E0002F0200002F0200002F020000000000007D
:1000F000000000002F020000000000002F0200009E
:1001000000000000000000000000000000000000EF
:1001100000000000000000000000000000000000DF
:1001200000000000000000000000000000000000CF
:1001300000000000000000000000000000000000BF
:1001400000000000000000000000000000000000AF
:10015000000000000000000000000000000000009F
:10016000000000000000000000000000000000008F
:10017000000000000000000000000000000000007F
:10018000000000000000000000000000000000006F
:10019000000000000000000000000000000000005F
:1001A000000000000000000000000000000000004F
:1001B000000000000000000000000000000000003F
:1001C000000000000000000000000000000000002F
:1001D000000000000000000000000000000000001F
:1001E000000000000000000000000000000000000F
:1001F00000000000000000000000000000000000FF
:10020000DFF80CD000F068F800480047050900004E
:10021000484400200648804706480047FEE7FEE7BE
:10022000FEE7FEE7FEE7FEE7FEE7FEE7FEE7FEE7A6
:10023000FD020000010200002DE9F05F05460020EC
:1002400092469B4688460646814640241BE0284647
:1002500041464746224600F02FF853465A46C01AF8
:10026000914110D311461846224600F016F82D1A77
:1002700067EB01084F4622460120002100F00DF8EF
:1002800017EB00094E41201EA4F10104DFDC4846B3
:1002900031462A464346BDE8F09F202A04DB203A37
:1002A00000FA02F1002070479140C2F1200320FAC9
:1002B00003F3194390407047202A04DB203A21FAC7
:1002C00002F00021704721FA02F3D040C2F120026F
:1002D0009140084319467047064C074D06E0E06818
:1002E00040F0010394E8070098471034AC42F6D37D
:1002F000FFF78AFF580B0000780B000010B44FF096
:1003000080520023D2E94C10082909D14FF0804CCB
:10031000CCF80C31CCF81031DFF8D4C1CCF8003077
:10032000082965D1734B1B68DFF8CCC1CCF80030CD
:10033000724B1B680CF1040CCCF80030704B1B683E
:100340000CF1040CCCF800306E4B1B680CF1040C63
:10035000CCF800306C4B1B680CF1040CCCF800306E
:100360006A4B1B680CF1040CCCF80030684B1B681E
:10037000DFF8A0C1CCF80030674B1B680CF1040C0F
:10038000CCF80030654B1B680CF1040CCCF8003045
:10039000634B1B680CF1040CCCF80030614B1B68FC
:1003A0000CF1040CCCF800305F4B1B680CF1040C12
:1003B000CCF800305D4B1B68DFF874C1CCF800301E
:1003C0005C4B1B680CF1040CCCF800305A4B1B68DA
:1003D0000CF1040CCCF80030584B1B680CF1040CE9
:1003E000CCF80030564B1B680CF1040CCCF80030F4
:1003F000082908BF5FEA000304D1DFF84CC1514B64
:10040000CCF80030082908BF5FEA000304D1DFF808
:100410003CC1FB23CCF80030082908BF5FEA000389
:1004200008D14B4B92F85842D3F800C064F3030C48
:10043000C3F800C0082908BF5FEA000305D1DFF850
:1004400014C14FF40073CCF80030082907D142489A
:10045000016811F0010F1CBF6FF0010101603F48FE
:10046000016841F470010160BFF34F8FBFF36F8FDC
:10047000D2E94C104FF01022082905D1042803D9E5
:10048000D2F8080236490860D2F8000210F0004F96
:1004900004BFD2F8040210F0004F24D0314B0120E9
:1004A0001860314801680029FCD04FF0120CC2F8E6
:1004B00000C201680029FCD0C2F804C2016800290A
:1004C000FCD00021196001680029FCD0BFF34F8FD8
:1004D00026480168264A01F4E06111430160BFF338
:1004E0004F8F00BFFDE724492248086010BC7047C9
:1004F000380500400404001020C500400804001026
:100500000C04001010040010140400101804001053
:100510001C04001040C500402004001024040010FA
:10052000280400102C0400103004001034040010C3
:1005300060C50040380400103C0400104004001066
:1005400044040010488103008C56004018F5004018
:10055000E40E0040409602400004004088ED00E0B8
:100560005805004004E5014000E401400CED00E0C6
:100570000400FA050090D00330000020084881B044
:10058000D0F8401129B10021C0F84011D0F8400145
:10059000009004480168491C016001B070470000E8
:1005A00000800040280000200748D0F840110029B2
:1005B00008BF70470021C0F8401104484068002877
:1005C00008BF70470047000000900040280000204E
:1005D00002E008C8121F08C1002AFAD1704770470C
:1005E000002001E001C1121F002AFBD1704700006A
:1005F00010B5104C206800281CBF6068002806D089
:100600006068216888429CBF606800F05DF800F077
:10061000D3F8206800281ABF6068002810BD606801
:100620002168884288BF10BD6068BDE8104000F0B6
:100630005BB800001000002010B5054C6060A160A0
:1006400000F050F82060BDE8104000F0B7B800009E
:1006500010000020411E032988BF704710B50649CD
:100660000C1814F8010C00F0BFF8C14314F8010C89
:10067000BDE8104000F0A4B8500B0000411E032953
:1006800088BF704703490844002110F8010C00F0AE
:1006900097B80000500B000070B50A4D00240121EE
:1006A000285D00F0ADF8601C032C06D828444FF0FC
:1006B000FF3110F8010C00F083F8641C042CEED319
:1006C000042070BD500B0000411E032988BF7047F5
:1006D000034908446FF0010110F8010C00F070B8F4
:1006E000540B000004207047411E032988BF704747
:1006F00003490844012110F8010C00F061B8000022
:10070000540B000010B500F085F8094A84460C46E9
:100710000020536801462BB15268002360462146F1
:10072000FFF78AFD4FF47A720023FFF785FD10BDB5
:100730000000002010B500F06DF8084A84460C4611
:10074000002053680146002B08BF10BD52680023EB
:1007500060462146FFF770FD10BD0000000000203C
:1007600010B500F06DF80149486010BD0000002090
:1007700070B514460D46064600F062F8064B586008
:10078000DC609D6018684FF47A717043BDE870407A
:100790004843024900F080B800000020A107000093
:1007A00010B5FFF7AFFF034A0146D0689268BDE875
:1007B000104010470000002030BF70477047000015
:1007C000012202FA00F011F0010F0CBF01490249A9
:1007D000086070470C0500500805005001490020D2
:1007E0000860704714050050012101FA00F0034928
:1007F0000968084018BF012070470000100500502C
:10080000800000F1A04000290ABF0C210129C0F896
:1008100000177047074901200864074800684FF037
:10082000FF31A0FB012305480068101843F10001C7
:1008300070470000008000402800002040850040F4
:100840000F48002202600F48012141600E4B1A60E0
:10085000DFF838C00323CCF800300D4B1A600D4B85
:100860008A1E1A600A04C0F80423C0F800124FF070
:10087000E0238215C3F80021C16001601020704799
:1008800028000020008000400485004008850040CA
:10089000108500404085004070B4144A00234FF496
:1008A000007C5160124901224FF0E0244A60A0B15F
:1008B000104D2B60104E03253560104D2B60104BF2
:1008C000401E18601004C1F80403C1F80022C4F8E7
:1008D00000C1CA600A6070BC7047C4F880C1BFF331
:1008E0004F8FBFF36F8F70BC70470000280000204F
:1008F000009000400495004008950040109500408D
:100900004095004010B584B0FFF768FFFFF728FF5F
:10091000FFF7C2FE04461F2000F0A0F8002C02BF23
:10092000002004B010BD04241C211E20FFF784FE0B
:100930001F2000F081F82046FFF7A0FE01220B499E
:100940004FF4FA70FFF714FF02AA01A9684600F0FD
:100950004DF838B19DF80000012804BF2046FFF78C
:1009600079FEF1E7FFF744FEEEE7000071090000B1
:1009700070B50546401E022828BF70BD184CA068FF
:10098000401CA060402803D96068FFF7ADFEFEE779
:1009900094F90200401CC21700EB926222F03F0261
:1009A000801A104AC0B202EB001635707160FFF772
:1009B000C1FE0021C6E9020194F90200401CC117E2
:1009C00000EB916121F03F01401AA070064850F8F9
:1009D0002510491C40F825100168491C016070BDB4
:1009E0001C0000203800002038040020F0B4104B18
:1009F00006469C68E0B2002C04BFF0BC70470D4D69
:100A000093F801C005EB0C152F7837706E680E60F7
:100A1000D5E90215C2E900150CF1010183F800C007
:100A200001F03F015970611E9960F0BC70470000F1
:100A30001C00002038000020064A0021FF2311700E
:100A400051709370044B91601960596099605060C7
:100A5000FFF73ABE1C000020380400202DE9F05FAB
:100A6000384C0021FF2221706170DFF8DCA0A270F9
:100A7000A160CAF80010CAF80410CAF80810606033
:100A8000FFF722FE0A273E464FF001084FF0000B09
:100A900059460120FFF76CFF0BF1010BBB45F7D363
:100AA0004FF0000B59460220FFF762FF0BF1010BDC
:100AB000B345F7D3254BA168002061B1627803EB01
:100AC000021C9CF80050DCF804902270521C02F0CA
:100AD0003F026270491E012D0CBF81454FF0000896
:100AE00000F10100B842E8D30020A16061B1627852
:100AF00003EB021C9CF80050DCF804902270521C9E
:100B000002F03F026270491E022D0CBF81454FF07A
:100B1000000800F10100B042E8D3A160DAF8040057
:100B2000B84204BFDAF80800B04205D1DAF8000094
:100B300007EB0601884201D04FF000084046BDE8AF
:100B4000F09F00001C000020380400203800002026
:100B50000D0E0F101C1D1E1F780B00000000002042
:100B600034000000D0050000AC0B00003400002071
:100B700014440000E0050000100000000000000028
:100B80000000000000000000000000000000000065
:100B90000000000000000000000000000000000055
:0C0BA00000000000000000000090D003E6
:0400000500000215E0
:00000001FF
