:020000040000FA
:1000000068440020150200001D0200001F020000CD
:100010002102000023020000250200000000000071
:1000200000000000000000000000000027020000A7
:1000300029020000000000002B0200002D02000039
:100040002F0200002F0200002F0200002F020000EC
:100050002F0200002F020000FD0200002F0200000E
:10006000C1050000ED0500002F0200002F02000076
:100070002F0200002F0200002F0200002F020000BC
:100080002F0200002F0200002F0200002F020000AC
:100090002F0200002F0200002F0200002F0200009C
:1000A0002F0200002F0200002F0200002F0200008C
:1000B0002F0200002F0200000000000000000000DE
:1000C0002F0200002F0200002F0200002F0200006C
:1000D0002F0200002F0200002F0200002F0200005C
:1000E0002F0200002F0200002F020000000000007D
:1000F000000000002F020000000000002F0200009E
:1001000000000000000000000000000000000000EF
:1001100000000000000000000000000000000000DF
:1001200000000000000000000000000000000000CF
:1001300000000000000000000000000000000000BF
:1001400000000000000000000000000000000000AF
:10015000000000000000000000000000000000009F
:10016000000000000000000000000000000000008F
:10017000000000000000000000000000000000007F
:10018000000000000000000000000000000000006F
:10019000000000000000000000000000000000005F
:1001A000000000000000000000000000000000004F
:1001B000000000000000000000000000000000003F
:1001C000000000000000000000000000000000002F
:1001D000000000000000000000000000000000001F
:1001E000000000000000000000000000000000000F
:1001F00000000000000000000000000000000000FF
:10020000DFF80CD000F068F8004800479D070000B8
:10021000684400200648804706480047FEE7FEE79E
:10022000FEE7FEE7FEE7FEE7FEE7FEE7FEE7FEE7A6
:1002300041030000010200002DE9F05F05460020A7
:1002400092469B4688460646814640241BE0284647
:1002500041464746224600F02FF853465A46C01AF8
:10026000914110D311461846224600F016F82D1A77
:1002700067EB01084F4622460120002100F00DF8EF
:1002800017EB00094E41201EA4F10104DFDC4846B3
:1002900031462A464346BDE8F09F202A04DB203A37
:1002A00000FA02F1002070479140C2F1200320FAC9
:1002B00003F3194390407047202A04DB203A21FAC7
:1002C00002F00021704721FA02F3D040C2F120026F
:1002D0009140084319467047064C074D06E0E06818
:1002E00040F0010394E8070098471034AC42F6D37D
:1002F000FFF78AFF7C0800009C0800002DE9F04110
:1003000000240D4D0D4F2646A00000F1804000F561
:10031000C040D0F8001149B1C0F8006155F8241070
:10032000B1F1FF3F02D03A6804209047641C082CCA
:10033000EAD3BDE8F0810000440400202000002042
:1003400010B44FF080520023D2E94C10082909D193
:100350004FF0804CCCF80C31CCF81031DFF8D4C120
:10036000CCF80030082965D1734B1B68DFF8CCC18D
:10037000CCF80030724B1B680CF1040CCCF8003048
:10038000704B1B680CF1040CCCF800306E4B1B68F2
:100390000CF1040CCCF800306C4B1B680CF1040C15
:1003A000CCF800306A4B1B680CF1040CCCF8003020
:1003B000684B1B68DFF8A0C1CCF80030674B1B68A6
:1003C0000CF1040CCCF80030654B1B680CF1040CEC
:1003D000CCF80030634B1B680CF1040CCCF80030F7
:1003E000614B1B680CF1040CCCF800305F4B1B68B0
:1003F0000CF1040CCCF800305D4B1B68DFF874C1C5
:10040000CCF800305C4B1B680CF1040CCCF80030CD
:100410005A4B1B680CF1040CCCF80030584B1B688D
:100420000CF1040CCCF80030564B1B680CF1040C9A
:10043000CCF80030082908BF5FEA000304D1DFF8D8
:100440004CC1514BCCF80030082908BF5FEA0003CB
:1004500004D1DFF83CC1FB23CCF80030082908BFE9
:100460005FEA000308D14B4B92F85842D3F800C022
:1004700064F3030CC3F800C0082908BF5FEA000357
:1004800005D1DFF814C14FF40073CCF8003008290F
:1004900007D14248016811F0010F1CBF6FF0010144
:1004A00001603F48016841F470010160BFF34F8F64
:1004B000BFF36F8FD2E94C104FF01022082905D1FD
:1004C000042803D9D2F8080236490860D2F800029D
:1004D00010F0004F04BFD2F8040210F0004F24D0F7
:1004E000314B01201860314801680029FCD04FF0E1
:1004F000120CC2F800C201680029FCD0C2F804C284
:1005000001680029FCD00021196001680029FCD095
:10051000BFF34F8F26480168264A01F4E06111437A
:100520000160BFF34F8F00BFFDE7244922480860F8
:1005300010BC7047380500400404001020C500407E
:10054000080400100C040010100400101404001023
:10055000180400101C04001040C5004020040010C6
:1005600024040010280400102C0400103004001093
:100570003404001060C50040380400103C04001032
:100580004004001044040010488103008C560040D1
:1005900018F50040E40E0040409602400004004080
:1005A00088ED00E05805004004E5014000E401400A
:1005B0000CED00E00400FA050090D00328000020B4
:1005C000084881B0D0F8401129B10021C0F840118D
:1005D000D0F84001009004480168491C016001B056
:1005E0007047000000800040180000200748D0F845
:1005F0004011002908BF70470021C0F8401104488D
:100600004068002808BF7047004700000090004085
:100610001800002002E008C8121F08C1002AFAD101
:1006200070477047002001E001C1121F002AFBD172
:100630007047000070B50A4D00240121285D00F0CC
:100640005FF8601C032C06D828444FF0FF3110F8E7
:10065000010C00F041F8641C042CEED3042070BDA2
:1006600074080000411E032988BF704703490844ED
:100670006FF0010110F8010C00F02EB878080000AE
:10068000411E032988BF704703490844012110F81F
:10069000010C00F021B800007808000010B500F04F
:1006A0003BF8084A84460C46002053680146002B5C
:1006B00008BF10BD5268002360462146FFF7BCFD0D
:1006C00010BD00000000002010B500F03BF801490B
:1006D000486010BD00000020012202FA00F011F075
:1006E000010F0CBF01490249086070470C0500501A
:1006F00008050050014900200860704714050050AB
:10070000800000F1A04000290ABF02490129C0F879
:10071000001770470C0003000749012008640748D0
:1007200000684FF0FF31A0FB012305480068101856
:1007300043F10001704700000080004018000020D5
:10074000408500400F48002202600F4801214160AF
:100750000E4B1A60DFF838C00323CCF800300D4B85
:100760001A600D4B8A1E1A600A04C0F80423C0F8F0
:1007700000124FF0E0238215C3F80021C160016030
:1007800010207047180000200080004004850040C1
:1007900008850040108500404085004010B5FFF7F7
:1007A000A9FFFFF791FFFFF745FF012000F044F894
:1007B00000F056F8002010BD70B50546401E042814
:1007C00028BF70BD194C94F90220501CC31700EBD0
:1007D000936323F03F03C01AC0B2B2F1FF3F06D0CB
:1007E0006278904203D16068FFF74AFFFEE7104A43
:1007F00002EB001635707160FFF750FF0021C6E96B
:10080000020194F90200401CC11700EB916121F034
:100810003F01401AA070074850F82510491C40F8C5
:1008200025100168491C016070BD00001000002007
:1008300030000020300400200749FE220A70002208
:100840004A70FF238B70054B1A605A609A60DA6019
:100850001A614860FFF706BF100000203004002036
:1008600010B5002421460120FFF7A6FF641C412C8F
:10087000F8DB10BD0D0E0F101C1D1E1F9C08000084
:10088000000000202C00000014060000C808000032
:100890002C0000203C440000240600001000000052
:1008A0000000000000000000000000000000000048
:1008B0000000000000000000000000000000000038
:0808C000000000000090D003CD
:0400000500000201F4
:00000001FF
