:020000040000FA
:1000000078460020150200001D0200001F020000BB
:100010002102000023020000250200000000000071
:1000200000000000000000000000000027020000A7
:1000300029020000000000002B0200002D02000039
:100040002F0200002F0200002F0200002F020000EC
:100050002F0200002F020000FD0200002F0200000E
:10006000B9050000E50500002F0200002F02000086
:100070002F0200002F0200002F0200002F020000BC
:100080002F0200002F0200002F0200002F020000AC
:100090002F0200002F0200002F0200002F0200009C
:1000A0002F0200002F0200002F0200002F0200008C
:1000B0002F0200002F0200000000000000000000DE
:1000C0002F0200002F0200002F0200002F0200006C
:1000D0002F0200002F0200002F0200002F0200005C
:1000E0002F0200002F0200002F020000000000007D
:1000F000000000002F020000000000002F0200009E
:1001000000000000000000000000000000000000EF
:1001100000000000000000000000000000000000DF
:1001200000000000000000000000000000000000CF
:1001300000000000000000000000000000000000BF
:1001400000000000000000000000000000000000AF
:10015000000000000000000000000000000000009F
:10016000000000000000000000000000000000008F
:10017000000000000000000000000000000000007F
:10018000000000000000000000000000000000006F
:10019000000000000000000000000000000000005F
:1001A000000000000000000000000000000000004F
:1001B000000000000000000000000000000000003F
:1001C000000000000000000000000000000000002F
:1001D000000000000000000000000000000000001F
:1001E000000000000000000000000000000000000F
:1001F00000000000000000000000000000000000FF
:10020000DFF80CD000F068F800480047FD0E000051
:10021000784600200648804706480047FEE7FEE78C
:10022000FEE7FEE7FEE7FEE7FEE7FEE7FEE7FEE7A6
:1002300039030000010200002DE9F05F05460020AF
:1002400092469B4688460646814640241BE0284647
:1002500041464746224600F02FF853465A46C01AF8
:10026000914110D311461846224600F016F82D1A77
:1002700067EB01084F4622460120002100F00DF8EF
:1002800017EB00094E41201EA4F10104DFDC4846B3
:1002900031462A464346BDE8F09F202A04DB203A37
:1002A00000FA02F1002070479140C2F1200320FAC9
:1002B00003F3194390407047202A04DB203A21FAC7
:1002C00002F00021704721FA02F3D040C2F120026F
:1002D0009140084319467047064C074D06E0E06818
:1002E00040F0010394E8070098471034AC42F6D37D
:1002F000FFF78AFF94170000B41700002DE9F041C2
:1003000000240B4D0B4E2746A00000F1804000F565
:10031000C040D0F8001131B1C0F80071326855F812
:10032000241002209047641C082CEDD3BDE8F08116
:10033000580600207000002010B44FF080520023B7
:10034000D2E94C10082909D14FF0804CCCF80C317F
:10035000CCF81031DFF8D4C1CCF80030082965D1D1
:10036000734B1B68DFF8CCC1CCF80030724B1B68B4
:100370000CF1040CCCF80030704B1B680CF1040C31
:10038000CCF800306E4B1B680CF1040CCCF800303C
:100390006C4B1B680CF1040CCCF800306A4B1B68EA
:1003A0000CF1040CCCF80030684B1B68DFF8A0C1DE
:1003B000CCF80030674B1B680CF1040CCCF8003013
:1003C000654B1B680CF1040CCCF80030634B1B68C8
:1003D0000CF1040CCCF80030614B1B680CF1040CE0
:1003E000CCF800305F4B1B680CF1040CCCF80030EB
:1003F0005D4B1B68DFF874C1CCF800305C4B1B68A8
:100400000CF1040CCCF800305A4B1B680CF1040CB6
:10041000CCF80030584B1B680CF1040CCCF80030C1
:10042000564B1B680CF1040CCCF80030082908BFAF
:100430005FEA000304D1DFF84CC1514BCCF8003027
:10044000082908BF5FEA000304D1DFF83CC1FB23A1
:10045000CCF80030082908BF5FEA000308D14B4BF5
:1004600092F85842D3F800C064F3030CC3F800C0FC
:10047000082908BF5FEA000305D1DFF814C14FF473
:100480000073CCF80030082907D14248016811F008
:10049000010F1CBF6FF0010101603F48016841F48A
:1004A00070010160BFF34F8FBFF36F8FD2E94C1023
:1004B0004FF01022082905D1042803D9D2F80802E8
:1004C00036490860D2F8000210F0004F04BFD2F89D
:1004D000040210F0004F24D0314B01201860314845
:1004E00001680029FCD04FF0120CC2F800C201686C
:1004F0000029FCD0C2F804C201680029FCD0002108
:10050000196001680029FCD0BFF34F8F26480168AD
:10051000264A01F4E06111430160BFF34F8F00BF31
:10052000FDE724492248086010BC704738050040A8
:100530000404001020C50040080400100C04001042
:100540001004001014040010180400101C04001003
:1005500040C50040200400102404001028040010AE
:100560002C040010300400103404001060C500405A
:10057000380400103C040010400400104404001033
:10058000488103008C56004018F50040E40E0040FE
:10059000409602400004004088ED00E0580500400D
:1005A00004E5014000E401400CED00E00400FA0520
:1005B0000090D00378000020084881B0D0F84011A6
:1005C00029B10021C0F84011D0F840010090044842
:1005D0000168491C016001B07047000000800040C4
:1005E000680000200748D0F84011002908BF704774
:1005F0000021C0F8401104484068002808BF704737
:1006000000470000009000406800002002E008C899
:10061000121F08C1002AFAD170477047002001E07C
:1006200001C1121F002AFBD1704710B50C460846C5
:1006300000F0DEF823460B220A21BDE8104000201E
:1006400000F014BF72B602490868421C0A60704785
:100650005400002003490868401E086018BF704716
:1006600062B670475400002070B504460E4610482C
:1006700000F026FA0F48002100F1080501704460DF
:100680000C4600BF55F82400002100F00FFB55F880
:10069000240000F017FB641C042CF3D306493046F9
:1006A00000F0BCFEBDE870400349042000F0B6BE77
:1006B0007D09000028000020BD0600002DE9F04162
:1006C0002B4E0C4601253178D1B14FF0020801299B
:1006D00023D0002706F1080502292CD003290CBFDE
:1006E0000428BDE8F08100F04FFA002455F82400FA
:1006F00000F0E8FA641C042CF8D33770BDE8F081F0
:10070000022818BFBDE8F0812346042214210020EE
:1007100000F0ACFE3570BDE8F081042818BFBDE8DC
:10072000F081234604220521012000F09FFE86F877
:100730000080BDE8F081042818BFBDE8F08100F01A
:1007400023FA05EB840050F8040C00F01BFA002893
:1007500004BF86F80080BDE8F081234604221421FE
:10076000002000F083FE03203070BDE8F08100001F
:100770002800002010B50024601C00F039F8641C2B
:10078000042CF9DBBDE8104000F054B910B5104C52
:10079000206800281CBF6068002806D060682168B7
:1007A00088429CBF606800F06BF800F04BF920684D
:1007B00000281ABF6068002810BD60682168884260
:1007C00088BF10BD6068BDE8104000F069B8000047
:1007D0001000002010B5054C6060A16000F05EF8CC
:1007E0002060BDE8104000F02FB90000100000208C
:1007F000411E032988BF7047034908444FF0FF3169
:1008000010F8010C00F032BA8C170000411E0329C9
:1008100088BF704710B506490C1814F8010C00F099
:1008200039FAC14314F8010CBDE8104000F01EBABB
:100830008C170000411E032988BF704703490844F4
:10084000002110F8010C00F011BA00008C17000014
:1008500070B50A4D00240121285D00F027FA601CC4
:10086000032C06D828444FF0FF3110F8010C00F09B
:10087000FDF9641C042CEED3042070BD8C1700001D
:10088000411E032988BF7047034908446FF00101E6
:1008900010F8010C00F0EAB990170000042070472E
:1008A000411E032988BF704703490844012110F8FD
:1008B000010C00F0DBB900009017000010B500F04B
:1008C000A5FA094A84460C460020536801462BB11C
:1008D0005268002360462146FFF7AEFC4FF47A725F
:1008E0000023FFF7A9FC10BD0000002010B500F0A8
:1008F0008DFA084A84460C46002053680146002BB6
:1009000008BF10BD5268002360462146FFF794FCE3
:1009100010BD00000000002010B500F08DFA014964
:10092000486010BD00000020054BDA60996019682E
:1009300048434FF47A714843024900F0A9BA0000D5
:10094000000000206509000010B50C460846FFF7BE
:1009500071FF23460722C821BDE81040002000F0A7
:1009600085BD000010B5FFF7A9FF034A0146D06816
:100970009268BDE810401047000000202DE9F041CA
:10098000124C0E460746002554F8250000F05EF88C
:100990006D1C042DF8DB2068B04208BF01210ED089
:1009A0006068B04208BF022109D0A068B04208BF09
:1009B000032104D0E068B0420CBF04210021384676
:1009C000034A5268BDE8F0411047000030000020A3
:1009D0002800002010B5FFF735FE044902480860E2
:1009E000BDE81040FFF736BE3546526E00060140A6
:1009F0000B4910B5C00308600A4901200860091FAF
:100A00000A6842F001020A6007490860FFF71AFE0F
:100A1000074906480860BDE81040FFF71BBE00000C
:100A2000040501400C050140000001403546526EAE
:100A30000006014002490120086020BFFDE70000D8
:100A40000005004030BF7047704700002DE9F003FB
:100A50000021184A184E4F1E184B0C4601254FF026
:100A600040084FF0E02900BF52F821C084451AD158
:100A700005FA01FCC6F808C34FEA810C0CF1804C62
:100A80000CF5C04CCCF8104542F82170D3F804C0E6
:100A9000BCF1010CC3F804C005D1C9F88081BFF3D3
:100AA0004F8FBFF36F8F491C0829DDDBBDE8F003D2
:100AB00070470000580600200060004070000020D1
:100AC0002549086000204860244908602449012223
:100AD000C1F80823234BDFF890C0421E1A60CCF8FF
:100AE00000004FF0020CC1F808C3DFF880C05A6064
:100AF000CCF800004FF0040CC1F808C3DFF870C058
:100B00009A60CCF800004FF0080CC1F808C3DFF879
:100B100064C0DA60CCF800004FF0100CC1F808C3D4
:100B2000DFF854C01A61CCF800004FF0200CC1F877
:100B300008C3DFF848C05A61CCF800004FF0400C01
:100B4000C1F808C3DFF838C09A61CCF800008020F3
:100B5000C1F80803DA61704770000020106500409A
:100B600000600040580600201465004018650040F1
:100B70001C65004020650040246500402865004059
:100B80002C65004000F086B82D49002048602D49B2
:100B9000C1F800012C4A10600122C1F808232B4A39
:100BA000431E1360C1F80401DFF8A4C0CCF80000B4
:100BB0004FF0020CC1F808C35360C1F80801DFF818
:100BC00094C0CCF800004FF0040CC1F808C3936047
:100BD000C1F80C01DFF880C0CCF800004FF0080C21
:100BE000C1F808C3D360C1F81001DFF870C0CCF8B9
:100BF00000004FF0100CC1F808C31361C1F81401D4
:100C0000DFF85CC0CCF800004FF0200CC1F808C33E
:100C10005361C1F81801DFF84CC0CCF800004FF068
:100C2000400CC1F808C39361C1F81C01DFF838C05B
:100C3000CCF800008020C1F80803D36170470000A1
:100C40007000002000600040106500405806002041
:100C500014650040186500401C6500402065004098
:100C600024650040286500402C650040012202FAFE
:100C700000F011F0010F0CBF0149024908607047F4
:100C80000C0500500805005001490020086070471D
:100C900014050050012101FA00F0034909680840D9
:100CA00018BF01207047000010050050800000F1BF
:100CB000A04000290ABF02490129C0F80017704767
:100CC0000C000300384A116881421ABFD2F804C0F0
:100CD000844570472DE9F04F946884421ABFD56867
:100CE0008542BDE8F08F166986421ABF5769874270
:100CF000BDE8F08FD2F8188080451ABFD2F81C905A
:100D00008145BDE8F08F294BD3F804A0BAF1080F54
:100D100028BFBDE8F08FB1F1FF3F4FF0000B4FF05F
:100D2000010A4FF0060108BF594620D0BCF1FF3F31
:100D300008BF51461BD0B4F1FF3F08BF022116D0B7
:100D4000B5F1FF3F08BF032111D0B6F1FF3F08BF47
:100D500004210CD0B7F1FF3F0CBF0521B8F1FF3FD4
:100D600005D0B9F1FF3F0CBF07214FF0FF31DFF88D
:100D700040C08C0004F1804404F5C0444CEA002CCF
:100D8000C4F810C50B4C0AFA01FCC4F804C34FF0B8
:100D9000E0244FF0400CC4F800C142F8210058682C
:100DA000401C5860BDE8F08F5806002070000020FD
:100DB000010002000060004081428CBF0A4A704777
:100DC000D2F80031002BFBD00023C2F80031074AD3
:100DD0001268091AD2B2491C92FBF1F301FB1321EC
:100DE0000844C0B27047000000D0004008D5004061
:100DF00004490120086004490022C1F8002108606C
:100E00007047000004D5004000D000400749012091
:100E10000864074800684FF0FF31A0FB0123054834
:100E20000068101843F10001704700000080004086
:100E300068000020408500400F48002202600F48F3
:100E4000012141600E4B1A60DFF838C00323CCF853
:100E500000300D4B1A600D4B8A1E1A600A04C0F850
:100E60000423C0F800124FF0E0238215C3F80021DC
:100E7000C1600160102070476800002000800040C1
:100E800004850040088500401085004040850040F2
:100E900070B4144A00234FF4007C516012490122BF
:100EA0004FF0E0244A60A0B1104D2B60104E032596
:100EB0003560104D2B60104B401E18601004C1F8B7
:100EC0000403C1F80022C4F800C1CA600A6070BC03
:100ED0007047C4F880C1BFF34F8FBFF36F8F70BCF2
:100EE000704700006800002000900040049500401A
:100EF00008950040109500404095004010B5FFF760
:100F0000C3FEFFF709FDFFF7A3FC00F065F9002021
:100F100010BD0000094910B50020087003460C22DE
:100F200041F28831012000F0A1FA00230522BDE83A
:100F300010400A21184600F099BA0000580000201D
:100F40002DE9F0410F460446FFF77CFB601E0C289C
:100F500032D21B4DA868401CA860402803D968689D
:100F6000FFF79EFCFEE7FFF735FD95F90100401CF9
:100F7000C11700EB916121F03F01401A1149C0B245
:100F800001EB001634707760FFF7B0FC0021C6E972
:100F9000020195F90100401CC11700EB916121F09D
:100FA0003F01401A6870084850F82410491C40F866
:100FB00024100168491C0160BDE8F041FFF74ABBFD
:100FC0001C00002080000020800400202DE9F0415A
:100FD00015460E460746FFF735FB104BD3F808C001
:100FE0000CF0FF08BCF1000F12D00D49187801EB8E
:100FF0000014401C2178397061683160D4E9021214
:10100000C5E9001200F03F001870ACF101009860D3
:10101000FFF720FB4046BDE8F08100001C000020E7
:10102000800000200B4B0021FF2219705A700A4AE1
:101030009960116051609160D1601161516191615D
:10104000D161116251629162D16211635860FFF700
:1010500017BC00001C000020800400202DE9F04196
:101060002C4D00222C4C1146C5F8040002EB820CDA
:1010700004EB8C03521C197444F82C1059609960CD
:10108000D9600D2AF2DB24490227244E91F838104A
:10109000042902D3FFF704FCFEE7FFF79BFC0022C4
:1010A00007EB8701104604EB810100BF51F82030A7
:1010B0002BB941F820600B7C01225B1C0B74401C97
:1010C000042801DA002AF1D013480327134E90F8C0
:1010D0004C00042803D36868FFF7E2FBFEE7FFF744
:1010E00079FC002207EB8701104604EB810100BF69
:1010F00051F820302BB941F820600B7C01225B1C99
:101100000B74401C0428A8BFBDE8F081002AEFD072
:10111000BDE8F08140000020B404002079110000F7
:1011200086B00A20FFF764FC0023032244F6206106
:10113000184600F09BF90F4D04AA694602A8FFF774
:1011400045FF002818BF002410D000BF9DF80800FC
:1011500000EB800105EB810151F82420002A1CBF1F
:1011600000999047641C042CF0DBE5E7FFF70EFBC9
:10117000E2E70000B404002007490978814206D163
:101180000023032244F62061184600F06FB90328BB
:1011900018BF7047FFF7EEBA4000002070B50D464B
:1011A000022938BF01240ED22046FFF72FFB641C12
:1011B000042CF9DD6B1CBDE8704006224FF4FA7177
:1011C000002000F053B9BDE87040002308220A2136
:1011D000184600F04BB9000010B504210320FFF7BA
:1011E000F9FA0220FFF71EFF0120FFF737FFFFF794
:1011F00065FBFFF7FDFD01221D49104600F0E6F9F1
:10120000042202211A48FFF72FFA1A49062000F09B
:1012100005F91949072000F001F918490B2000F0E1
:10122000FDF817490A2000F0F9F81649092000F0E6
:10123000F5F81549022000F0F1F81049082000F0F7
:10124000EDF80E49052000F0E9F810490C2000F0F7
:10125000E5F8002305226421184600F007F90C4840
:101260000021017001214160BDE81040FFF758BF27
:10127000410F00009D1100002B0600000513000027
:10128000C91200009512000049090000150F000066
:101290005800002010B50C4608290CD2012000EBA4
:1012A0005400FFF7B3FA631C0922FA21BDE810408D
:1012B000002000F0DBB800230822BDE81040FA212E
:1012C000184600F0D3B8000070B50C4D0C466868A5
:1012D000B1EB400F28BF70BD6008094951F82000EC
:1012E000FFF794FAE8680A2200EB80008100631C93
:1012F000BDE87040002000F0B9B8000058000020A0
:10130000080600202DE9F041424E0C4600213278BB
:101310000127414D052A28BFBDE8F081DFE802F032
:10132000032335606F0005280CBF0024BDE8F08161
:1013300004210120FFF740FD45F82400641C142C13
:10134000F6DB01242046FFF753FA641C042CF9DD78
:1013500014200023F06009220A21184600F086F8C4
:101360003770BDE8F08100230A22B16011461846AB
:1013700000F07CF800230C2241F28831184600F07E
:1013800075F802203070BDE8F0810B2818BFBDE869
:10139000F08100230C2241F28831184600F066F8F3
:1013A000B06855F82010A14210D17168401C8142EC
:1013B0001CBFB060BDE8F08103203070BDE8F04193
:1013C000002308220A21184600F050B8042030708B
:1013D000BDE8F041002308226421184600F046B819
:1013E00070680023401C70603770F0680622401E51
:1013F000F060BDE8F0410A21184600F037B8776088
:101400003170BDE8F041002305220A21184600F0A2
:101410002DB80000580000200806002070B50D46C9
:1014200000EB80010F4800EB8104207C042804D3EA
:101430000D484068FFF734FAFEE7FFF7CBFA0022C9
:101440004FEA020054F8201029B944F82050217CBA
:101450000122491C2174401C0428A8BF70BD002A29
:10146000F0D070BDB4040020400000202DE9F05FF2
:10147000544E9A461746894683460D2A7DD2FFF779
:10148000E1F80024A046504DB1680EE004EB840062
:1014900015F820203AB105EB8000407AB84202D11D
:1014A0004FF0010803E0601CC4B28C42EED3FFF79A
:1014B000D1F8042C6AD2B9F1000F1FD0FFF78AFAD5
:1014C000FFF7C0F804EB8400012105EB800405F868
:1014D0002010C4F8049084F808B06772C4F80CA017
:1014E000FFF7ECF948442061B8F1000F02D1B06871
:1014F000401CB060BDE8F05FFFF7ACB8B8F1000F7A
:1015000040D0FFF767FAFFF79DF804EB840000274F
:1015100005F82070B068A0F10108444538BFB0F16B
:10152000004F3BD2A0EB040CACF101000028C4BF7B
:10153000002102461ADD6018C0B200EB800305EB03
:101540008300491C90F8149005F823908369436048
:10155000037F0372437F4372036AC360436A03617C
:10156000521EE8D10CEB0400401EC4B204EB840010
:1015700005F82070C6F8088000E00BE0BDE8F05FD9
:10158000FFF768B83068FFF78BF9FEE73068FFF7C0
:1015900087F9FEE73068FFF783F9FEE7A04588BFCB
:1015A0004146E3D904EB840005EB800000F114020E
:1015B00092E80C1680E80C16601CC4B28C42F1D381
:1015C000D4E7000048000020B805002070B50C46A4
:1015D000054616460D491046FFF720FF0C490D48F9
:1015E0004FF0020C00234C60037500F8283FBCF15B
:1015F000010CF9D10D6028468B60FFF741F93246A6
:101600002146BDE870400120FFF78EB91916000091
:1016100048000020A40500202DE9F34F89B0FFF712
:1016200011F8002000905748816800297ED9009861
:10163000554D00EB800615F82600002877D005EB05
:1016400086040A98216981427BD84E4F607AE1680E
:101650007A689047207A20B161680A98084420612E
:101660006FE04949002001F8260046490098896842
:101670004A1E0392904238BFB1F1004F6ED2091A50
:101680000291491E00294DDD04F11C07DDF808E038
:1016900004F108067D1CEB1C321DAEF1010E04F1B5
:1016A000140A04F1180904F1040804F1090C191DC5
:1016B00004F1100BCDF804E059F814EBCDF820E05C
:1016C00017F814EBCDF81CE015F814EBCDF818E082
:1016D00053F814EBCDF814E051F814EBCDF810E00A
:1016E0001AF814EB04F814EBDDF820E048F814EBDA
:1016F000DDF81CE006F814EBDDF818E00CF814EB4C
:10170000DDF814E042F814EBDDF810E04BF814EBD0
:10171000DDF804E0BEF1010ECDF804E0CCD1029971
:101720000844401E002100EB800201E011E008E0C7
:10173000154800F822101348039981600098401E54
:10174000009000980F49401C009089688842FFF47F
:101750006EAF0BB0BDE8F04FFEF77CBF824284BF96
:101760004B1E0949DED900BF00EB800201EB82026B
:1017700002F11404401C94E8F01082E8F010984242
:10178000F2D3CFE748000020B80500200D0E0F105F
:101790001C1D1E1FB4170000000000207C0000006C
:1017A0000C060000301800007C000020FC45000002
:1017B0001C060000100000000000000000000000F7
:1017C0000000000000000000000000000000000019
:1017D0000000000000000000000000000000000009
:1017E000000000000B0000000C00000018000000CA
:1017F00019000000020000000000000000000000CE
:1018000000000000000000000000000000000000D8
:1018100000000000000000000000000000000000C8
:101820000000000000000000000000000090D00355
:0400000500000201F4
:00000001FF
