:020000040000FA
:1000000068460020150200001D0200001F020000CB
:100010002102000023020000250200000000000071
:1000200000000000000000000000000027020000A7
:1000300029020000000000002B0200002D02000039
:100040002F0200002F0200002F0200002F020000EC
:100050002F0200002F020000210300002F020000E9
:10006000DD050000090600002F0200002F0200003D
:100070002F0200002F0200002F0200002F020000BC
:100080002F0200002F0200002F0200002F020000AC
:100090002F0200002F0200002F0200002F0200009C
:1000A0002F0200002F0200002F0200002F0200008C
:1000B0002F0200002F0200000000000000000000DE
:1000C0002F0200002F0200002F0200002F0200006C
:1000D0002F0200002F0200002F0200002F0200005C
:1000E0002F0200002F0200002F020000000000007D
:1000F000000000002F020000000000002F0200009E
:1001000000000000000000000000000000000000EF
:1001100000000000000000000000000000000000DF
:1001200000000000000000000000000000000000CF
:1001300000000000000000000000000000000000BF
:1001400000000000000000000000000000000000AF
:10015000000000000000000000000000000000009F
:10016000000000000000000000000000000000008F
:10017000000000000000000000000000000000007F
:10018000000000000000000000000000000000006F
:10019000000000000000000000000000000000005F
:1001A000000000000000000000000000000000004F
:1001B000000000000000000000000000000000003F
:1001C000000000000000000000000000000000002F
:1001D000000000000000000000000000000000001F
:1001E000000000000000000000000000000000000F
:1001F00000000000000000000000000000000000FF
:10020000DFF80CD000F07AF800480047950F0000A6
:10021000684600200648804706480047FEE7FEE79C
:10022000FEE7FEE7FEE7FEE7FEE7FEE7FEE7FEE7A6
:100230005D030000010200002DE9F05F054600208B
:1002400092469B4688460646814640241BE0284647
:1002500041464746224600F041F853465A46C01AE6
:10026000914110D311461846224600F028F82D1A65
:1002700067EB01084F4622460120002100F01FF8DD
:1002800017EB00094E41201EA4F10104DFDC4846B3
:1002900031462A464346BDE8F09F40EA01039B07EA
:1002A00003D009E008C9121F08C0042AFAD203E0EB
:1002B00011F8013B00F8013B521EF9D27047202A89
:1002C00004DB203A00FA02F1002070479140C2F1AD
:1002D000200320FA03F3194390407047202A04DBDF
:1002E000203A21FA02F00021704721FA02F3D040AF
:1002F000C2F120029140084319467047064C074D51
:1003000006E0E06840F0010394E8070098471034E5
:10031000AC42F6D3FFF778FF90190000B019000047
:100320002DE9F04100240B4D0B4E2746A00000F1B3
:10033000804000F5C040D0F8001131B1C0F8007124
:10034000326855F8241002209047641C082CEDD325
:10035000BDE8F081480600207800002010B44FF07E
:1003600080520023D2E94C10082909D14FF0804C6B
:10037000CCF80C31CCF81031DFF8D4C1CCF8003017
:10038000082965D1734B1B68DFF8CCC1CCF800306D
:10039000724B1B680CF1040CCCF80030704B1B68DE
:1003A0000CF1040CCCF800306E4B1B680CF1040C03
:1003B000CCF800306C4B1B680CF1040CCCF800300E
:1003C0006A4B1B680CF1040CCCF80030684B1B68BE
:1003D000DFF8A0C1CCF80030674B1B680CF1040CAF
:1003E000CCF80030654B1B680CF1040CCCF80030E5
:1003F000634B1B680CF1040CCCF80030614B1B689C
:100400000CF1040CCCF800305F4B1B680CF1040CB1
:10041000CCF800305D4B1B68DFF874C1CCF80030BD
:100420005C4B1B680CF1040CCCF800305A4B1B6879
:100430000CF1040CCCF80030584B1B680CF1040C88
:10044000CCF80030564B1B680CF1040CCCF8003093
:10045000082908BF5FEA000304D1DFF84CC1514B03
:10046000CCF80030082908BF5FEA000304D1DFF8A8
:100470003CC1FB23CCF80030082908BF5FEA000329
:1004800008D14B4B92F85842D3F800C064F3030CE8
:10049000C3F800C0082908BF5FEA000305D1DFF8F0
:1004A00014C14FF40073CCF80030082907D142483A
:1004B000016811F0010F1CBF6FF0010101603F489E
:1004C000016841F470010160BFF34F8FBFF36F8F7C
:1004D000D2E94C104FF01022082905D1042803D985
:1004E000D2F8080236490860D2F8000210F0004F36
:1004F00004BFD2F8040210F0004F24D0314B012089
:100500001860314801680029FCD04FF0120CC2F885
:1005100000C201680029FCD0C2F804C201680029A9
:10052000FCD00021196001680029FCD0BFF34F8F77
:1005300026480168264A01F4E06111430160BFF3D7
:100540004F8F00BFFDE724492248086010BC704768
:10055000380500400404001020C5004008040010C5
:100560000C040010100400101404001018040010F3
:100570001C04001040C5004020040010240400109A
:10058000280400102C040010300400103404001063
:1005900060C50040380400103C0400104004001006
:1005A00044040010488103008C56004018F50040B8
:1005B000E40E0040409602400004004088ED00E058
:1005C0005805004004E5014000E401400CED00E066
:1005D0000400FA050090D00380000020084881B094
:1005E000D0F8401129B10021C0F84011D0F84001E5
:1005F000009004480168491C016001B07047000088
:1006000000800040700000200748D0F84011002909
:1006100008BF70470021C0F8401104484068002816
:1006200008BF7047004700000090004070000020A5
:1006300002E008C8121F08C1002AFAD170477047AB
:10064000002001E001C1121F002AFBD17047000009
:100650000349086800B972B6421C0A60704700007E
:100660005800002003490868401E086018BF704702
:1006700062B67047580000202DE9F04704468946CD
:10068000124800F069FA124F002507F10C067D7040
:10069000BC602C46A6F10A0856F82400002100F0A0
:1006A00051FB56F8240000F059FB08F80450641C74
:1006B000042CF1D33D700749484600F079FFBDE8AE
:1006C000F0470449042000F073BF0000150A000041
:1006D00028000020D90600002DE9F05F504D0E469D
:1006E0004FF001096978002741B34FF0020B01294F
:1006F00038D005F10C08022944D003290CBF042886
:10070000BDE8F09F00F08CFA5FF0000458F8240078
:1007100000F024FB641C042CF8D3304600F0C2F82F
:10072000287840B10021084601F01EF800220B2174
:1007300000F066FF2F706F70BDE8F09F022818BFB1
:10074000BDE8F09F304600F0CFF82F701421002054
:1007500001F00AF83246042100F052FF85F80190BA
:10076000BDE8F09F042818BFBDE8F09F05210120D7
:1007700000F0FAFF3246042100F042FF85F801B094
:10078000BDE8F09F042818BFBDE8F09F00F048FACC
:10079000DFF890A00024611CB14218D01AF80400C0
:1007A00038B958F8240000F039FA58B31AF80400A0
:1007B00068B158F8240000F031FA40B10021084631
:1007C00000F0D2FF00220B2100F01AFF2F70641CF2
:1007D000042CE0DB08EB860050F8040C00F01EFA55
:1007E000002804BF85F801B0BDE8F09F1421002067
:1007F00000F0BAFF3246042100F002FF03206870C7
:10080000BDE8F09F28780028E1D140F6B83100F02B
:10081000ABFF00220B2100F0F3FE85F80090D6E735
:10082000280000202A00002010B50024601C00F0E1
:1008300039F8641C042CF9DBBDE8104000F046B91F
:1008400010B5104C206800281CBF6068002806D036
:100850006068216888429CBF606800F06BF800F017
:100860003DF9206800281ABF6068002810BD606844
:100870002168884288BF10BD6068BDE8104000F064
:1008800069B800001000002010B5054C6060A16040
:1008900000F05EF82060BDE8104000F021B90000D3
:1008A00010000020411E032988BF704703490844F7
:1008B0004FF0FF3110F8010C00F024BA3819000095
:1008C000411E032988BF704710B506490C1814F85B
:1008D000010C00F02BFAC14314F8010CBDE81040E4
:1008E00000F010BA38190000411E032988BF704774
:1008F00003490844002110F8010C00F003BA00007D
:100900003819000070B50A4D00240121285D00F05F
:1009100019FA601C032C06D828444FF0FF3110F858
:10092000010C00F0EFF9641C042CEED3042070BD20
:1009300038190000411E032988BF70470349084445
:100940006FF0010110F8010C00F0DCB93C19000057
:1009500004207047411E032988BF7047034908449B
:10096000012110F8010C00F0CDB900003C19000085
:1009700010B500F097FA094A84460C4600205368E7
:1009800001462BB15268002360462146FFF754FC14
:100990004FF47A720023FFF74FFC10BD00000020D7
:1009A00010B500F07FFA084A84460C4600205368D0
:1009B0000146002B08BF10BD526800236046214647
:1009C000FFF73AFC10BD00000000002010B500F059
:1009D0007FFA0149486010BD00000020054BDA6035
:1009E0009960196848434FF47A714843024900F00E
:1009F0009BBA000000000020FD09000010B5FFF7C1
:100A0000B7FF034A0146D0689268BDE8104010471E
:100A1000000000202DE9F041124C0E46074600254B
:100A200054F8250000F05EF86D1C042DF8DB2068FA
:100A3000B04208BF01210ED06068B04208BF022159
:100A400009D0A068B04208BF032104D0E068B042DA
:100A50000CBF042100213846034A9268BDE8F041EA
:100A600010470000340000202800002010B5FFF7D8
:100A7000EFFD044902480860BDE81040FFF7F2BDF1
:100A80003546526E000601400B4910B5C0030860A0
:100A90000A4901200860091F0A6842F001020A6041
:100AA00007490860FFF7D4FD074906480860BDE81C
:100AB0001040FFF7D7BD0000040501400C050140C0
:100AC000000001403546526E0006014002490120F7
:100AD000086020BFFDE700000005004030BF704700
:100AE000704700002DE9F0030021184A184E4F1EF0
:100AF000184B0C4601254FF040084FF0E02900BF8D
:100B000052F821C084451AD105FA01FCC6F808C381
:100B10004FEA810C0CF1804C0CF5C04CCCF8104520
:100B200042F82170D3F804C0BCF1010CC3F804C032
:100B300005D1C9F88081BFF34F8FBFF36F8F491C78
:100B40000829DDDBBDE8F0037047000048060020FF
:100B500000600040780000202549086000204860BF
:100B60002449086024490122C1F80823234BDFF8F7
:100B700090C0421E1A60CCF800004FF0020CC1F881
:100B800008C3DFF880C05A60CCF800004FF0040CB6
:100B9000C1F808C3DFF870C09A60CCF800004FF0CD
:100BA000080CC1F808C3DFF864C0DA60CCF80000B4
:100BB0004FF0100CC1F808C3DFF854C01A61CCF82C
:100BC00000004FF0200CC1F808C3DFF848C05A619C
:100BD000CCF800004FF0400CC1F808C3DFF838C073
:100BE0009A61CCF800008020C1F80803DA617047F0
:100BF000780000201065004000600040480600209A
:100C000014650040186500401C65004020650040E8
:100C100024650040286500402C65004000F086B83F
:100C20002D49002048602D49C1F800012C4A106070
:100C30000122C1F808232B4A431E1360C1F80401A6
:100C4000DFF8A4C0CCF800004FF0020CC1F808C3D4
:100C50005360C1F80801DFF894C0CCF800004FF0F1
:100C6000040CC1F808C39360C1F80C01DFF880C020
:100C7000CCF800004FF0080CC1F808C3D360C1F8ED
:100C80001001DFF870C0CCF800004FF0100CC1F874
:100C900008C31361C1F81401DFF85CC0CCF8000090
:100CA0004FF0200CC1F808C35361C1F81801DFF8F8
:100CB0004CC0CCF800004FF0400CC1F808C3936161
:100CC000C1F81C01DFF838C0CCF800008020C1F862
:100CD0000803D361704700007800002000600040E6
:100CE000106500404806002014650040186500406B
:100CF0001C650040206500402465004028650040D8
:100D00002C650040012202FA00F011F0010F0CBF27
:100D100001490249086070470C0500500805005061
:100D2000014900200860704714050050012101FAB4
:100D300000F003490968084018BF0120704700000F
:100D400010050050800000F1A04000290ABF0249B0
:100D50000129C0F8001770470C000300384A1168D9
:100D600081421ABFD2F804C0844570472DE9F04F84
:100D7000946884421ABFD5688542BDE8F08F166931
:100D800086421ABF57698742BDE8F08FD2F81890A3
:100D900081451ABFD2F81CA08245BDE8F08F294BCF
:100DA000D3F80480B8F1080F28BFBDE8F08FB1F187
:100DB000FF3F4FF000014FF0010B23D0BCF1FF3F8C
:100DC00008BF59461ED0B4F1FF3F08BF022119D019
:100DD000B5F1FF3F08BF032114D0B6F1FF3F08BFB4
:100DE00004210FD0B7F1FF3F08BF05210AD0B9F1A8
:100DF000FF3F08BF062105D0BAF1FF3F0CBF072116
:100E00004FF0FF31DFF840C08C0004F1804404F55E
:100E1000C0444CEA002CC4F810C50C4C0BFA01FC81
:100E2000C4F804C34FF0E0244FF0400CC4F800C1F4
:100E300042F8210008F101005860BDE8F08F000081
:100E400048060020780000200100020000600040F9
:100E500081428CBF0A4A7047D2F80031002BFBD088
:100E60000023C2F80031074A1268091AD2B2491C9D
:100E700092FBF1F301FB13210844C0B2704700005C
:100E800000D0004008D50040044901200860044912
:100E90000022C1F8002108607047000004D500401E
:100EA00000D00040074901200864074800684FF05F
:100EB000FF31A0FB012305480068101843F1000131
:100EC0007047000000800040700000204085004016
:100ED0000F48002202600F48012141600E4B1A604A
:100EE000DFF838C00323CCF800300D4B1A600D4BEF
:100EF0008A1E1A600A04C0F80423C0F800124FF0DA
:100F0000E0238215C3F80021C16001601020704702
:100F100070000020008000400485004008850040EB
:100F2000108500404085004070B4144A00234FF4FF
:100F3000007C5160124901224FF0E0244A60A0B1C8
:100F4000104D2B60104E03253560104D2B60104B5B
:100F5000401E18601004C1F80403C1F80022C4F850
:100F600000C1CA600A6070BC7047C4F880C1BFF39A
:100F70004F8FBFF36F8F70BC704700007000002070
:100F800000900040049500400895004010950040F6
:100F90004095004010B5FFF7C3FEFFF717FDFFF7C0
:100FA000B1FC00F085F9002010BD0000074810B525
:100FB00000210170012181600A21002000F0D4FB92
:100FC0000022BDE81040052100F01ABB5C000020A3
:100FD0002DE9F0410F460446FFF73AFB601E0B284F
:100FE00032D21B4DA868401CA860402803D968680D
:100FF000FFF7B0FCFEE7FFF739FD95F90100401C53
:10100000C11700EB916121F03F01401A1149C0B2B4
:1010100001EB001634707760FFF7C2FC0021C6E9CF
:10102000020195F90100401CC11700EB916121F00C
:101030003F01401A6870084850F82410491C40F8D5
:1010400024100168491C0160BDE8F041FFF70ABBAC
:101050001C00002088000020880400202DE9F041B9
:1010600015460E460746FFF7F3FA104BD3F808C0B3
:101070000CF0FF08BCF1000F12D00D49187801EBFD
:101080000014401C2178397061683160D4E9021283
:10109000C5E9001200F03F001870ACF10100986043
:1010A000FFF7E0FA4046BDE8F08100001C00002098
:1010B000880000200A4B0021FF2219705A70094A4B
:1010C0009960116051609160D160116151619161CD
:1010D000D161116251629162D1625860FFF72ABCFE
:1010E0001C000020880400202DE9F0412E4D042131
:1010F00068600320FFF7C8FB00212C4C084600BFA6
:1011000001EB810304EB8302491C107444F82300B3
:1011100050609060D0600C29F2DB24480227244EF6
:1011200090F83800042803D36868FFF713FCFEE743
:10113000FFF79CFC002207EB8701104604EB8101BE
:1011400051F820302BB941F820600B7C01225B1C48
:101150000B74401C042801DA002AF1D0134803273D
:10116000134E90F84C00042803D36868FFF7F2FB95
:10117000FEE7FFF77BFC002207EB8701104604EB3C
:10118000810100BF51F820302BB941F820600B7C61
:1011900001225B1C0B74401C0428A8BFBDE8F08131
:1011A000002AEFD0BDE8F08144000020B804002000
:1011B0001112000086B00120FFF766FC44F62061A2
:1011C000002000F0D1FA0022032100F019FA0F4D9F
:1011D00004AA694602A8FFF741FF002818BF0024AF
:1011E00010D000BF9DF8080000EB800105EB8101E5
:1011F00051F82420002A1CBF00999047641C042C3D
:10120000F0DBE5E7FFF71CFBE2E70000B804002095
:101210000B4910B5097881420AD144F620610020BB
:1012200000F0A2FA0022BDE81040032100F0E8B966
:10123000032818BF10BDBDE81040FFF7F5BA000045
:101240004400002070B50D46022938BF012410D299
:101250002046FFF735FB641C042CF9DD4FF4FA71CE
:10126000002000F081FA6A1CBDE87040062100F001
:10127000C7B90E488168152909D00A21002000F05D
:1012800073FABDE870400022072100F0B9B90021CF
:101290000170012181600A21002000F065FABDE89B
:1012A00070400022052100F0ABB900005C00002076
:1012B00010B50220FFF7FEFE0120FFF715FFFFF734
:1012C00057FBFFF7E1FD01221C49104600F054FADC
:1012D000042202211948FFF7CFF919490A2000F02A
:1012E00067F91849062000F063F91749092000F052
:1012F0005FF91649082000F05BF91549022000F05B
:1013000057F91349072000F053F91149052000F05F
:101310004FF90B490B2000F04BF96421002000F03D
:1013200023FA0022052100F06BF90A480021017020
:1013300001218160BDE81040FFF73CBFD10F0000E4
:10134000AD0F000045120000951300005913000076
:10135000ED1300005C00002010B50C4608290ED2E9
:10136000012000EB5400FFF7ABFAFA21002000F057
:10137000FBF9621CBDE81040082100F041B9FA21D8
:10138000002000F0F1F90022BDE81040072100F034
:1013900037B9000070B5134D0C46A868B1EB400F8B
:1013A00012D21149600851F82000FFF789FA286924
:1013B00000EB80008100002000F0D6F9621CBDE83F
:1013C0007040092100F01CB90220287041F28831D8
:1013D000002000F0C9F9BDE8704000220A2100F0A9
:1013E0000FB900005C000020F80500202DE9F0474F
:1013F0006C4F0C4600213A7801256B4E8AB0052AC5
:1014000024BF0AB0BDE8F087DFE802F0035162A014
:10141000B80005281CBF0AB0BDE8F0870224634865
:10142000796831B1012913D0022908BF002420D0E6
:1014300028E090E84E178DE84E17D0E90810CDE966
:101440000810502269465848FEF727FF7C6019E0D3
:1014500000F1280191E84E178DE84E17D0E91210DF
:10146000CDE90810502269464F48FEF716FF7C6010
:1014700008E004210120FFF7EBFC46F82400641C7F
:10148000142CF6DB01242046FFF70CFA641C042C14
:10149000F9DD142038610A21002000F065F90022EE
:1014A000082100F0ADF83D700AB0BDE8F0870728CC
:1014B0001CBF0AB0BDE8F087F9600A21002000F0E7
:1014C00053F90AB00022BDE8F047092100F098B8AE
:1014D00002281CBF0AB0BDE8F0870021084600F0D2
:1014E00043F900220A2100F08BF8F86856F8201022
:1014F000A1421ED1B968401C81420DD10320387031
:101500004FF4FA71002000F02FF90AB00022BDE874
:10151000F047072100F074B8F86041F288310020EC
:1015200000F022F90AB00022BDE8F0470A2100F0DD
:1015300067B8042038700A21002000F015F90AB0BD
:101540000022BDE8F047072100F05AB807281CBF69
:101550000AB0BDE8F087B8684FF4FA71401CB86073
:101560003D703869401E3861002000F0FDF80AB077
:101570000022BDE8F047062100F042B807281CBF52
:101580000AB0BDE8F087BD6039704FF4FA710020F1
:1015900000F0EAF80AB00022BDE8F047052100F0AB
:1015A0002FB800005C000020F80500204019000062
:1015B00070B50D4600EB80010F4800EB8104207CE4
:1015C000042804D30D484068FFF7C4F9FEE7FFF78D
:1015D0004DFA00224FEA020054F8201029B944F8CD
:1015E0002050217C0122491C2174401C0428A8BFE2
:1015F00070BD002AF0D070BDB80400204400002067
:101600002DE9F74F564E0F4681460C297ED2FFF743
:101610001FF800244FEAD97B29F0004AA046514D1B
:10162000B1680EE004EB840015F820203AB105EB18
:101630008000407AB84202D14FF0010803E0601CFC
:10164000C4B28C42EED3FFF70DF8042C6BD2B9F183
:10165000000F20D0FFF70AFAFEF7FAFF04EB840030
:10166000012105EB800405F82010C4F804A084F8DB
:1016700008B067720298E060FFF77AF95044206181
:10168000B8F1000F02D1B068401CB06003B0BDE8F3
:10169000F04FFEF7E7BFB8F1000F40D0FFF7E6F9D3
:1016A000FEF7D6FF04EB84004FF0000C05F820C0D5
:1016B000B068471EBC4238BFB0F1004F3BD2A0EB30
:1016C0000408A8F101000028C4BF002102461ADD69
:1016D0006018C0B200EB800305EB8300491C90F852
:1016E000149005F8239083694360037F0372437F5E
:1016F0004372036AC360436A0361521EE8D108EB78
:101700000400401EC4B204EB840000E00FE005F8C2
:1017100020C0B76003B0BDE8F04FFEF7A3BF30684C
:10172000FFF718F9FEE73068FFF714F9FEE73068B5
:10173000FFF710F9FEE7A74288BF401EE3D900BFBC
:1017400004EB840105EB810101F1140292E80C071E
:1017500081E80C07611CCCB28442F1D3D3E70000CE
:101760004C000020A8050020020021F0004018BF16
:1017700040F000407047000070B50C460546164624
:101780000D491046FFF714FF0C490D484FF0020CAD
:1017900000234C60037500F8283FBCF1010CF9D11F
:1017A0000D6028468B60FFF7C5F832462146BDE83C
:1017B00070400120FFF712B9C51700004C0000204F
:1017C000940500202DE9F34F89B0FEF741FF00207A
:1017D00000905748816800297ED90098554D00EB4C
:1017E000800615F82600002877D005EB86040A98B5
:1017F000216981427BD84E4F607AE1687A689047D0
:10180000207A20B161680A98084420616FE0494954
:10181000002001F826004649009889684A1E039274
:10182000904238BFB1F1004F6ED2091A0291491EA1
:1018300000294DDD04F11C07DDF808E004F108067D
:101840007D1CEB1C321DAEF1010E04F1140A04F1F3
:10185000180904F1040804F1090C191D04F1100B16
:10186000CDF804E059F814EBCDF820E017F814EBAC
:10187000CDF81CE015F814EBCDF818E053F814EB94
:10188000CDF814E051F814EBCDF810E01AF814EB91
:1018900004F814EBDDF820E048F814EBDDF81CE068
:1018A00006F814EBDDF818E00CF814EBDDF814E0A2
:1018B00042F814EBDDF810E04BF814EBDDF804E02F
:1018C000BEF1010ECDF804E0CCD102990844401ECF
:1018D000002100EB800201E011E008E0154800F86B
:1018E00022101348039981600098401E00900098D0
:1018F0000F49401C009089688842FFF46EAF0BB01E
:10190000BDE8F04FFEF7AEBE824284BF4B1E0949D0
:10191000DED900BF00EB800201EB820202F1140469
:10192000401C94E8F01082E8F0109842F2D3CFE720
:101930004C000020A80500200D0E0F101C1D1E1FBE
:10194000010000000200000003000000040000008D
:10195000030000000200000001000000020000007F
:10196000030000000400000001000000020000006D
:10197000030000000200000001000000020000005F
:10198000030000000200000001000000020000004F
:10199000B0190000000000208400000030060000A4
:1019A000341A000084000020E445000040060000D6
:1019B0001000000000000000000000000000000017
:1019C0000000000000000000000000000000000017
:1019D0000000000000000000000000000000000007
:1019E000000000000B0000000C00000018000000C8
:1019F00019000000020000000000000000000000CC
:101A000000000000000000000000000000000000D6
:101A100002000000000000000000000000000000C4
:101A200000000000000000000000000000000000B6
:041A30000090D0034F
:0400000500000201F4
:00000001FF
