:020000040000FA
:1000000090460020150200001D0200001F020000A3
:100010002102000023020000250200000000000071
:1000200000000000000000000000000027020000A7
:1000300029020000000000002B0200002D02000039
:100040002F0200002F0200002F0200002F020000EC
:100050002F0200002F020000FD0200002F0200000E
:10006000B9050000E50500002F0200002F02000086
:100070002F0200002F0200002F0200002F020000BC
:100080002F0200002F0200002F0200002F020000AC
:100090002F0200002F0200002F0200002F0200009C
:1000A0002F0200002F0200002F0200002F0200008C
:1000B0002F0200002F0200000000000000000000DE
:1000C0002F0200002F0200002F0200002F0200006C
:1000D0002F0200002F0200002F0200002F0200005C
:1000E0002F0200002F0200002F020000000000007D
:1000F000000000002F020000000000002F0200009E
:1001000000000000000000000000000000000000EF
:1001100000000000000000000000000000000000DF
:1001200000000000000000000000000000000000CF
:1001300000000000000000000000000000000000BF
:1001400000000000000000000000000000000000AF
:10015000000000000000000000000000000000009F
:10016000000000000000000000000000000000008F
:10017000000000000000000000000000000000007F
:10018000000000000000000000000000000000006F
:10019000000000000000000000000000000000005F
:1001A000000000000000000000000000000000004F
:1001B000000000000000000000000000000000003F
:1001C000000000000000000000000000000000002F
:1001D000000000000000000000000000000000001F
:1001E000000000000000000000000000000000000F
:1001F00000000000000000000000000000000000FF
:10020000DFF80CD000F068F800480047890F0000C4
:10021000904600200648804706480047FEE7FEE774
:10022000FEE7FEE7FEE7FEE7FEE7FEE7FEE7FEE7A6
:1002300039030000010200002DE9F05F05460020AF
:1002400092469B4688460646814640241BE0284647
:1002500041464746224600F02FF853465A46C01AF8
:10026000914110D311461846224600F016F82D1A77
:1002700067EB01084F4622460120002100F00DF8EF
:1002800017EB00094E41201EA4F10104DFDC4846B3
:1002900031462A464346BDE8F09F202A04DB203A37
:1002A00000FA02F1002070479140C2F1200320FAC9
:1002B00003F3194390407047202A04DB203A21FAC7
:1002C00002F00021704721FA02F3D040C2F120026F
:1002D0009140084319467047064C074D06E0E06818
:1002E00040F0010394E8070098471034AC42F6D37D
:1002F000FFF78AFF24190000441900002DE9F0419E
:1003000000240B4D0B4E2746A00000F1804000F565
:10031000C040D0F8001131B1C0F80071326855F812
:10032000241002209047641C082CEDD3BDE8F08116
:100330006C0600207400002010B44FF0805200239F
:10034000D2E94C10082909D14FF0804CCCF80C317F
:10035000CCF81031DFF8D4C1CCF80030082965D1D1
:10036000734B1B68DFF8CCC1CCF80030724B1B68B4
:100370000CF1040CCCF80030704B1B680CF1040C31
:10038000CCF800306E4B1B680CF1040CCCF800303C
:100390006C4B1B680CF1040CCCF800306A4B1B68EA
:1003A0000CF1040CCCF80030684B1B68DFF8A0C1DE
:1003B000CCF80030674B1B680CF1040CCCF8003013
:1003C000654B1B680CF1040CCCF80030634B1B68C8
:1003D0000CF1040CCCF80030614B1B680CF1040CE0
:1003E000CCF800305F4B1B680CF1040CCCF80030EB
:1003F0005D4B1B68DFF874C1CCF800305C4B1B68A8
:100400000CF1040CCCF800305A4B1B680CF1040CB6
:10041000CCF80030584B1B680CF1040CCCF80030C1
:10042000564B1B680CF1040CCCF80030082908BFAF
:100430005FEA000304D1DFF84CC1514BCCF8003027
:10044000082908BF5FEA000304D1DFF83CC1FB23A1
:10045000CCF80030082908BF5FEA000308D14B4BF5
:1004600092F85842D3F800C064F3030CC3F800C0FC
:10047000082908BF5FEA000305D1DFF814C14FF473
:100480000073CCF80030082907D14248016811F008
:10049000010F1CBF6FF0010101603F48016841F48A
:1004A00070010160BFF34F8FBFF36F8FD2E94C1023
:1004B0004FF01022082905D1042803D9D2F80802E8
:1004C00036490860D2F8000210F0004F04BFD2F89D
:1004D000040210F0004F24D0314B01201860314845
:1004E00001680029FCD04FF0120CC2F800C201686C
:1004F0000029FCD0C2F804C201680029FCD0002108
:10050000196001680029FCD0BFF34F8F26480168AD
:10051000264A01F4E06111430160BFF34F8F00BF31
:10052000FDE724492248086010BC704738050040A8
:100530000404001020C50040080400100C04001042
:100540001004001014040010180400101C04001003
:1005500040C50040200400102404001028040010AE
:100560002C040010300400103404001060C500405A
:10057000380400103C040010400400104404001033
:10058000488103008C56004018F50040E40E0040FE
:10059000409602400004004088ED00E0580500400D
:1005A00004E5014000E401400CED00E00400FA0520
:1005B0000090D0037C000020084881B0D0F84011A2
:1005C00029B10021C0F84011D0F840010090044842
:1005D0000168491C016001B07047000000800040C4
:1005E0006C0000200748D0F84011002908BF704770
:1005F0000021C0F8401104484068002808BF704737
:1006000000470000009000406C00002002E008C895
:10061000121F08C1002AFAD170477047002001E07C
:1006200001C1121F002AFBD17047084600F024B90F
:100630000349086800B972B6421C0A60704700009E
:100640005800002003490868401E086018BF704722
:1006500062B67047580000202DE9F04704468946ED
:10066000124800F073FA124F002507F10C067D7056
:10067000BC602C46A6F10A0856F82400002100F0C0
:100680005BFB56F8240000F063FB08F80450641C80
:10069000042CF1D33D700749484600F065FFBDE8E2
:1006A000F0470449042000F05FBF0000090A000081
:1006B00028000020B90600002DE9F05F4D4D0E46E0
:1006C0004FF001096978002729B34FF0020B012987
:1006D00032D005F10C0802293ED003290CBF0428B2
:1006E000BDE8F09F00F096FA5FF0000458F824008F
:1006F00000F02EFB641C042CF8D3287840B10021B4
:10070000084601F00DF800220B2100F055FF2F7074
:100710006F70BDE8F09F022818BFBDE8F09F2F70F2
:100720001421002000F0FCFF3246042100F044FFB9
:1007300085F80190BDE8F09F042818BFBDE8F09F40
:100740000521012000F0ECFF3246042100F034FFC7
:1007500085F801B0BDE8F09F042818BFBDE8F09F00
:1007600000F058FADFF890A00024611CB14218D0C4
:100770001AF8040038B958F8240000F049FA58B3C0
:100780001AF8040068B158F8240000F041FA40B1AA
:100790000021084600F0C4FF00220B2100F00CFFEE
:1007A0002F70641C042CE0DB08EB860050F8040C6E
:1007B00000F02EFA002804BF85F801B0BDE8F09FD4
:1007C0001421002000F0ACFF3246042100F0F4FEBA
:1007D00003206870BDE8F09F28780028E1D140F63A
:1007E000B83100F09DFF00220B2100F0E5FE85F8F6
:1007F0000090D6E7280000202A00002010B5002431
:10080000601C00F039F8641C042CF9DBBDE81040D2
:1008100000F056B910B5104C206800281CBF606865
:10082000002806D06068216888429CBF606800F09C
:100830006BF800F04DF9206800281ABF60680028A6
:1008400010BD60682168884288BF10BD6068BDE83F
:10085000104000F069B800001000002010B5054CF1
:100860006060A16000F05EF82060BDE8104000F01C
:1008700031B9000010000020411E032988BF7047D5
:10088000034908444FF0FF3110F8010C00F034BA6E
:10089000F4180000411E032988BF704710B50649AF
:1008A0000C1814F8010C00F03BFAC14314F8010CC9
:1008B000BDE8104000F020BAF4180000411E0329E2
:1008C00088BF704703490844002110F8010C00F06C
:1008D00013BA0000F418000070B50A4D002401217D
:1008E000285D00F029FA601C032C06D828444FF03C
:1008F000FF3110F8010C00F0FFF9641C042CEED35A
:10090000042070BDF4180000411E032988BF704701
:10091000034908446FF0010110F8010C00F0ECB934
:10092000F818000004207047411E032988BF704753
:1009300003490844012110F8010C00F0DDB9000062
:10094000F818000010B500F0A7FA094A84460C46D2
:100950000020536801462BB15268002360462146AF
:10096000FFF76AFC4FF47A720023FFF765FC10BDB5
:100970000000002010B500F08FFA084A84460C46AB
:10098000002053680146002B08BF10BD52680023A9
:1009900060462146FFF750FC10BD0000000000201B
:1009A00010B500F08FFA0149486010BD000000202A
:1009B000054BDA609960196848434FF47A714843EF
:1009C000024900F0ABBA000000000020F10900006D
:1009D00010B50C460846FFF771FF4FF4FA7100207E
:1009E00000F09EFE2246BDE810400C2100F0E4BD60
:1009F00010B5FFF7A7FF034A0146D0689268BDE82B
:100A000010401047000000202DE9F041124C0E4626
:100A10000746002554F8250000F05EF86D1C042DF3
:100A2000F8DB2068B04208BF01210ED06068B042F8
:100A300008BF022109D0A068B04208BF032104D03A
:100A4000E068B0420CBF042100213846034A926896
:100A5000BDE8F041104700003400002028000020CD
:100A600010B5FFF7E5FD044902480860BDE81040F5
:100A7000FFF7E8BD3546526E000601400B4910B540
:100A8000C00308600A4901200860091F0A6842F093
:100A900001020A6007490860FFF7CAFD07490648D6
:100AA0000860BDE81040FFF7CDBD0000040501401F
:100AB0000C050140000001403546526E0006014021
:100AC00002490120086020BFFDE70000000500404A
:100AD00030BF7047704700002DE9F0030021184A2D
:100AE000184E4F1E184B0C4601254FF040084FF092
:100AF000E02900BF52F821C084451AD105FA01FC53
:100B0000C6F808C34FEA810C0CF1804C0CF5C04CC0
:100B1000CCF8104542F82170D3F804C0BCF1010CA8
:100B2000C3F804C005D1C9F88081BFF34F8FBFF36C
:100B30006F8F491C0829DDDBBDE8F003704700001A
:100B40006C06002000600040740000202549086009
:100B5000002048602449086024490122C1F8082384
:100B6000234BDFF890C0421E1A60CCF800004FF013
:100B7000020CC1F808C3DFF880C05A60CCF800004E
:100B80004FF0040CC1F808C3DFF870C09A60CCF8CD
:100B900000004FF0080CC1F808C3DFF864C0DA6049
:100BA000CCF800004FF0100CC1F808C3DFF854C0B7
:100BB0001A61CCF800004FF0200CC1F808C3DFF830
:100BC00048C05A61CCF800004FF0400CC1F808C38F
:100BD000DFF838C09A61CCF800008020C1F8080323
:100BE000DA6170477400002010650040006000402A
:100BF0006C06002014650040186500401C6500402C
:100C00002065004024650040286500402C650040B8
:100C100000F086B82D49002048602D49C1F8000138
:100C20002C4A10600122C1F808232B4A431E13608E
:100C3000C1F80401DFF8A4C0CCF800004FF0020CAA
:100C4000C1F808C35360C1F80801DFF894C0CCF8BC
:100C500000004FF0040CC1F808C39360C1F80C0108
:100C6000DFF880C0CCF800004FF0080CC1F808C3D2
:100C7000D360C1F81001DFF870C0CCF800004FF06D
:100C8000100CC1F808C31361C1F81401DFF85CC08F
:100C9000CCF800004FF0200CC1F808C35361C1F834
:100CA0001801DFF84CC0CCF800004FF0400CC1F840
:100CB00008C39361C1F81C01DFF838C0CCF800000C
:100CC0008020C1F80803D361704700007400002041
:100CD00000600040106500406C0600201465004074
:100CE000186500401C6500402065004024650040F8
:100CF000286500402C650040012202FA00F011F046
:100D0000010F0CBF01490249086070470C050050F3
:100D10000805005001490020086070471405005084
:100D2000012101FA00F003490968084018BF0120B9
:100D30007047000010050050800000F1A04000291D
:100D40000ABF02490129C0F8001770470C000300D0
:100D5000384A116881421ABFD2F804C084457047EE
:100D60002DE9F04F946884421ABFD5688542BDE8EA
:100D7000F08F166986421ABF57698742BDE8F08F27
:100D8000D2F8189081451ABFD2F81CA08245BDE860
:100D9000F08F294BD3F80480B8F1080F28BFBDE8C5
:100DA000F08FB1F1FF3F4FF000014FF0010B23D066
:100DB000BCF1FF3F08BF59461ED0B4F1FF3F08BF4A
:100DC000022119D0B5F1FF3F08BF032114D0B6F1BD
:100DD000FF3F08BF04210FD0B7F1FF3F08BF052137
:100DE0000AD0B9F1FF3F08BF062105D0BAF1FF3F95
:100DF0000CBF07214FF0FF31DFF840C08C0004F139
:100E0000804404F5C0444CEA002CC4F810C50C4CD6
:100E10000BFA01FCC4F804C34FF0E0244FF0400C7F
:100E2000C4F800C142F8210008F101005860BDE893
:100E3000F08F00006C06002074000020010002000A
:100E40000060004081428CBF0A4A7047D2F80031EE
:100E5000002BFBD00023C2F80031074A1268091AA0
:100E6000D2B2491C92FBF1F301FB13210844C0B23A
:100E70007047000000D0004008D500400449012020
:100E8000086004490022C1F8002108607047000092
:100E900004D5004000D000400749012008640748FD
:100EA00000684FF0FF31A0FB0123054800681018CF
:100EB00043F1000170470000008000406C000020FA
:100EC000408500400F48002202600F480121416028
:100ED0000E4B1A60DFF838C00323CCF800300D4BFE
:100EE0001A600D4B8A1E1A600A04C0F80423C0F869
:100EF00000124FF0E0238215C3F80021C1600160A9
:100F0000102070476C0000200080004004850040E5
:100F100008850040108500404085004070B4144AA8
:100F200000234FF4007C5160124901224FF0E0246D
:100F30004A60A0B1104D2B60104E03253560104D56
:100F40002B60104B401E18601004C1F80403C1F858
:100F50000022C4F800C1CA600A6070BC7047C4F8BF
:100F600080C1BFF34F8FBFF36F8F70BC704700001D
:100F70006C0000200090004004950040089500405F
:100F8000109500404095004010B5FFF7C3FEFFF7F5
:100F900007FDFFF7A1FC00F087F9002010BD00005D
:100FA000074810B500214170012141600A2100204D
:100FB00000F0B6FB0022BDE81040052100F0FCBAAD
:100FC0005C0000202DE9F0410F460446FFF730FB9E
:100FD000601E0C2832D21B4DA868401CA860402817
:100FE00003D96868FFF7A0FCFEE7FFF739FD95F924
:100FF0000100401CC11700EB916121F03F01401A34
:101000001149C0B201EB001634707760FFF7B2FCF3
:101010000021C6E9020195F90100401CC11700EB4F
:10102000916121F03F01401A6870084850F824107F
:10103000491C40F824100168491C0160BDE8F041DA
:10104000FFF700BB1C00002080000020800400206F
:101050002DE9F04115460E460746FFF7E9FA104B19
:10106000D3F808C00CF0FF08BCF1000F12D00D49F6
:10107000187801EB0014401C2178397061683160E8
:10108000D4E90212C5E9001200F03F001870ACF17B
:1010900001009860FFF7D6FA4046BDE8F0810000F5
:1010A0001C000020800000200B4B0021FF22197043
:1010B0005A700A4A9960116051609160D160116163
:1010C00051619161D161116251629162D16211638A
:1010D0005860FFF719BC00001C00002080040020AD
:1010E0002DE9F0412E4D042168600320FFF7B6FB87
:1010F00000212C4C084600BF01EB810304EB830266
:10110000491C107444F8230050609060D0600D2991
:10111000F2DB24480227244E90F83800042803D339
:101120006868FFF701FCFEE7FFF79AFC002207EB77
:101130008701104604EB810151F820302BB941F8AA
:1011400020600B7C01225B1C0B74401C042801DA1C
:10115000002AF1D013480327134E90F84C000428BE
:1011600003D36868FFF7E0FBFEE7FFF779FC002296
:1011700007EB8701104604EB810100BF51F82030D6
:101180002BB941F820600B7C01225B1C0B74401CC6
:101190000428A8BFBDE8F081002AEFD0BDE8F081A7
:1011A00044000020B40400200912000086B0012091
:1011B000FFF764FC44F62061002000F0B1FA002241
:1011C000032100F0F9F90F4D04AA694602A8FFF7C0
:1011D0003FFF002818BF002410D000BF9DF8080072
:1011E00000EB800105EB810151F82420002A1CBF8F
:1011F00000999047641C042CF0DBE5E7FFF70AFB3D
:10120000E2E70000B40400200B4910B509788142E0
:101210000AD144F62061002000F082FA0022BDE8E5
:101220001040032100F0C8B9032818BF10BDBDE865
:101230001040FFF7E3BA00004400002070B50D46EF
:10124000022938BF012410D22046FFF723FB641C7B
:10125000042CF9DD4FF4FA71002000F061FA6A1CE9
:10126000BDE87040062100F0A7B90E484168152975
:1012700009D00A21002000F053FABDE87040002296
:10128000072100F099B900214170012141600A2134
:10129000002000F045FABDE870400022052100F072
:1012A0008BB900005C00002010B50220FFF7FCFEA7
:1012B0000120FFF715FFFFF745FBFFF7DFFD0122D8
:1012C0002049104600F034FA042202211D48FFF79D
:1012D000C3F91D490A2000F047F91C49062000F017
:1012E00043F91B49092000F03FF91A49082000F092
:1012F0003BF91949022000F037F91849022000F0A3
:1013000033F91649072000F02FF91449052000F0A1
:101310002BF90D490B2000F027F911490C2000F0A2
:1013200023F96421002000F0FBF90022052100F0E0
:1013300043F90C480021417001214160BDE8104093
:10134000FFF734BFC50F0000A10F00003D120000E1
:10135000A513000069130000D1090000FD1300006F
:101360002B0600005C00002010B50C4608290ED2A8
:10137000012000EB5400FFF78DFAFA21002000F065
:10138000CFF9621CBDE81040082100F015B9FA2120
:10139000002000F0C5F90022BDE81040072100F050
:1013A0000BB9000070B5134D0C466868B1EB400FE7
:1013B00012D21149600851F82000FFF76BFAE86873
:1013C00000EB80008100002000F0AAF9621CBDE85B
:1013D0007040092100F0F0B80220687041F28831B5
:1013E000002000F09DF9BDE8704000220A2100F0C5
:1013F000E3B800005C0000201C0600202DE9F05F2F
:10140000564C0F46002261780126554D052928BF0C
:10141000BDE8F09FDFE801F00331407A9000052835
:1014200018BFBDE8F09F2078002808BF002707D02C
:10143000DFF830E19EE88B5F85E88B5F227008E083
:1014400004210120FFF7FEFC45F827007F1C142F24
:10145000F6DB01252846FFF70FFA6D1C042DF9DD98
:101460001420E0600A21002000F05AF9002208212F
:1014700000F0A2F86670BDE8F09F072818BFBDE82D
:10148000F09F0A210020A26000F04AF9BDE8F05F59
:101490000022092100F090B8022818BFBDE8F09F93
:1014A0000021084600F03CF900220A2100F084F8EF
:1014B000A06855F82010B9421CD16168401C8142D7
:1014C0000CD1032060704FF4FA71002000F028F96D
:1014D000BDE8F05F0022072100F06EB8A06041F285
:1014E0008831002000F01CF9BDE8F05F00220A21DD
:1014F00000F062B8042060700A21002000F010F9AA
:10150000BDE8F05F0022072100F056B8072818BF99
:10151000BDE8F09F60684FF4FA71401C606066702F
:10152000E068401EE060002000F0FAF8BDE8F05FDF
:101530000022062100F040B8072818BFBDE8F09F40
:10154000666062704FF4FA71002000F0E9F8BDE8BF
:10155000F05F0022052100F02FB800005C000020A1
:101560001C060020FC18000070B50D4600EB800141
:101570000F4800EB8104207C042804D30D48406808
:10158000FFF7D2F9FEE7FFF76BFA00224FEA0200FD
:1015900054F8201029B944F82050217C0122491C1C
:1015A0002174401C0428A8BF70BD002AF0D070BD73
:1015B000B4040020440000202DE9F74F564E0F469A
:1015C00081460D297ED2FFF733F800244FEAD97BFC
:1015D00029F0004AA046514DB1680EE004EB8400AA
:1015E00015F820203AB105EB8000407AB84202D1CC
:1015F0004FF0010803E0601CC4B28C42EED3FFF749
:1016000021F8052C6BD2B9F1000F20D0FFF728FA92
:10161000FFF70EF804EB8400012105EB800405F8C8
:101620002010C4F804A084F808B067720298E06043
:10163000FFF788F950442061B8F1000F02D1B0687B
:10164000401CB06003B0BDE8F04FFEF7FBBFB8F13F
:10165000000F40D0FFF704FAFEF7EAFF04EB840026
:101660004FF0000C05F820C0B068471EBC4238BFE0
:10167000B0F1004F3BD2A0EB0408A8F10100002814
:10168000C4BF002102461ADD6018C0B200EB80031F
:1016900005EB8300491C90F8149005F823908369AA
:1016A0004360037F0372437F4372036AC360436AEC
:1016B0000361521EE8D108EB0400401EC4B204EBE3
:1016C000840000E00FE005F820C0B76003B0BDE87B
:1016D000F04FFEF7B7BF3068FFF726F9FEE7306836
:1016E000FFF722F9FEE73068FFF71EF9FEE7A74291
:1016F00088BF401EE3D900BF04EB840105EB8101E4
:1017000001F1140292E80C0781E80C07611CCCB2CD
:101710008442F1D3D3E700004C000020B80500203C
:10172000020021F0004018BF40F000407047000068
:1017300070B50C46054616460E491046FFF714FFD5
:101740000D490E4B00204C6018704FF0020C1875BC
:1017500003F8280FBCF1010CF9D10D608860284610
:10176000FFF7D2F832462146BDE870400120FFF76E
:101770001FB90000811700004C000020B8050020B0
:101780002DE9F34F89B0FEF753FF00200090574832
:10179000816800297ED90098554D00EB800615F828
:1017A0002600002877D005EB86040A98216981423B
:1017B0007BD84E4F607AE1687A689047207A20B1F2
:1017C00061680A98084420616FE04949002001F8E7
:1017D00026004649009889684A1E0392904238BF05
:1017E000B1F1004F6ED2091A0291491E00294DDD58
:1017F00004F11C07DDF808E004F108067D1CEB1C71
:10180000321DAEF1010E04F1140A04F1180904F1BD
:10181000040804F1090C191D04F1100BCDF804E0C3
:1018200059F814EBCDF820E017F814EBCDF81CE0D4
:1018300015F814EBCDF818E053F814EBCDF814E0DC
:1018400051F814EBCDF810E01AF814EB04F814EB8F
:10185000DDF820E048F814EBDDF81CE006F814EBA6
:10186000DDF818E00CF814EBDDF814E042F814EBA6
:10187000DDF810E04BF814EBDDF804E0BEF1010EEA
:10188000CDF804E0CCD102990844401E002100EBC1
:10189000800201E011E008E0154800F8221013482A
:1018A000039981600098401E009000980F49401CE9
:1018B000009089688842FFF46EAF0BB0BDE8F04F2E
:1018C000FEF7C0BE824284BF4B1E0949DED900BF6D
:1018D00000EB800201EB820202F11404401C94E848
:1018E000F01082E8F0109842F2D3CFE74C000020CD
:1018F000B80500200D0E0F101C1D1E1F010000005A
:1019000002000000030000000400000003000000CB
:1019100002000000010000000200000003000000BF
:1019200004000000441900000000002080000000B6
:101930000C060000C41900008000002010460000C2
:101940001C06000010000000000000000000000065
:101950000000000000000000000000000000000087
:101960000000000000000000000000000000000077
:1019700000000000000000000B0000000C00000050
:101980001800000019000000020000000000000024
:101990000000000000000000000000000000000047
:1019A0000100000000000000000000000000000036
:1019B0000000000000000000000000000000000027
:0419C0000090D003C0
:0400000500000201F4
:00000001FF
