:020000040000FA
:1000000090470020150200001D0200001F020000A2
:100010002102000023020000250200000000000071
:1000200000000000000000000000000027020000A7
:1000300029020000000000002B0200002D02000039
:100040002F0200002F0200002F0200002F020000EC
:100050002F0200002F020000210300002F020000E9
:1000600081050000B10500002F0200002F020000F2
:100070002F0200002F0200002F0200002F020000BC
:100080002F0200002F0200002F0200002F020000AC
:100090002F0200002F0200002F0200002F0200009C
:1000A0002F0200002F0200002F0200002F0200008C
:1000B0002F0200002F0200000000000000000000DE
:1000C0002F0200002F0200002F0200002F0200006C
:1000D0002F0200002F0200002F0200002F0200005C
:1000E0002F0200002F0200002F020000000000007D
:1000F000000000002F020000000000002F0200009E
:1001000000000000000000000000000000000000EF
:1001100000000000000000000000000000000000DF
:1001200000000000000000000000000000000000CF
:1001300000000000000000000000000000000000BF
:1001400000000000000000000000000000000000AF
:10015000000000000000000000000000000000009F
:10016000000000000000000000000000000000008F
:10017000000000000000000000000000000000007F
:10018000000000000000000000000000000000006F
:10019000000000000000000000000000000000005F
:1001A000000000000000000000000000000000004F
:1001B000000000000000000000000000000000003F
:1001C000000000000000000000000000000000002F
:1001D000000000000000000000000000000000001F
:1001E000000000000000000000000000000000000F
:1001F00000000000000000000000000000000000FF
:10020000DFF80CD000F07AF8004800472F0F00000C
:10021000904700200648804706480047FEE7FEE773
:10022000FEE7FEE7FEE7FEE7FEE7FEE7FEE7FEE7A6
:1002300061030000010200002DE9F05F0546002087
:1002400092469B4688460646814640241BE0284647
:1002500041464746224600F041F853465A46C01AE6
:10026000914110D311461846224600F028F82D1A65
:1002700067EB01084F4622460120002100F01FF8DD
:1002800017EB00094E41201EA4F10104DFDC4846B3
:1002900031462A464346BDE8F09F40EA01039B07EA
:1002A00003D009E008C9121F08C0042AFAD203E0EB
:1002B00011F8013B00F8013B521EF9D27047202A89
:1002C00004DB203A00FA02F1002070479140C2F1AD
:1002D000200320FA03F3194390407047202A04DBDF
:1002E000203A21FA02F00021704721FA02F3D040AF
:1002F000C2F120029140084319467047064C074D51
:1003000006E0E06840F0010394E8070098471034E5
:10031000AC42F6D3FFF778FF401B0000601B0000E3
:1003200010B500240DE0084850F8240040B1002129
:10033000054840F82410054951F8240000F0B2FBAC
:10034000641C082CEFD310BD006100407007002032
:1003500001480249086070470090D0031C0100204A
:1003600010B500F099FE40B10020774908604FF0C9
:100370008041C1F810017549086000F0AFFE002807
:1003800055D073480068734908607148001D0068C3
:10039000091D08606E4808300068091D08606C4837
:1003A0000C300068091D0860694810300068091D9C
:1003B0000860674814300068091D086064481830F8
:1003C000006864492031086061481C300068091DDC
:1003D00008605F4820300068091D08605C482430D0
:1003E0000068091D08605A4828300068091D086027
:1003F00057482C300068091D0860554830300068A7
:10040000544940310860524834300068091D086082
:100410004F4838300068091D08604D483C3000687E
:10042000091D08604A4840300068091D086000F056
:1004300077FE10B148484949086000F0A5FD10B1A9
:10044000FB204749086000F0C1FD38B145480178FC
:100450004548006861F303004349086000F0D8FD97
:1004600018B14FF400704149086000F0F3FD40B14D
:100470003F48006800F0010018B16FF001003C49EE
:1004800008603C48006840F470003A49086000BFCA
:1004900000BF00BFBFF34F8F00BF00BF00BF00BF52
:1004A00000BF00BFBFF36F8F00BF00BF00BF00BF22
:1004B00000F048FD20B13048006824492031086030
:1004C00000BF2D480838006800F0004028B92A48CD
:1004D000001F006800F0004090B3012000F042FED1
:1004E000122025490839086000F046FE12214FF01D
:1004F0001020C0F8041200F03FFE002000F032FE91
:1005000000BF00BF00BF00BF00BFBFF34F8F00BFE1
:1005100000BF00BF17487C38006800F4E06017494E
:100520000843001D13497C39086000BF00BF00BFAD
:10053000BFF34F8F00BF00BF00BF00BF00BFFDE78C
:10054000FFE7FFF705FF10BD0C0100403805004034
:100550000404001020C50040488103008C56004070
:1005600018F5004058020010E40E0040409602408A
:100570000004004088ED00E0081200100000FA05B9
:1005800008B50848006838B10020064908600648E8
:10059000D0F84001009000BF04480068401C0349A7
:1005A000086008BD40810040008000400C01002030
:1005B00010B50648006840B10020044908600448AE
:1005C000006810B102480068804710BD40910040AB
:1005D00010010020002809DB00F01F0201219140DA
:1005E0004209920002F1E022C2F80011704702E0D5
:1005F00008C8121F08C1002AFAD1704770470020AE
:1006000001E001C1121F002AFBD1704770B50546F9
:10061000002432E0601CA8422ED01948005DB0B919
:10062000184951F8240000F043F880B116480078CA
:1006300010BB40F6B831002001F0DAF9064600227E
:100640000C2101F027F901200F49087014E00C4833
:10065000005D88B10B4951F8240000F029F858B921
:100660000021084601F0C4F9064600220C2101F0E1
:1006700011F9002004490870641C042CCADB70BD09
:1006800098000020A00000209C00002002460021CD
:1006900007E0064850F82100904201D1481C7047FD
:1006A000491C0429F5DB0020F9E70000A000002028
:1006B00010B50446204600F0CBFA08B9012010BD61
:1006C0000020FCE70548006800B972B603480068DE
:1006D00002490968491C014A11607047C80000209E
:1006E00004480068401E034908600846006800B9D5
:1006F00062B67047C80000202DE9F04105460E465D
:100700001746144800F080FA002013490870134877
:10071000056000240EE0124951F82400002100F089
:10072000E5FA0F4951F8240000F0F2FA00200D49D3
:100730000855641C042CEED300200B4908700B49AB
:10074000304601F06BF80949042001F067F8BDE874
:10075000F0810000D90A00009D000020B0000020B8
:10076000A0000020980000209C00002071070000DD
:1007700070B504460D463948007830B1012818D0CC
:10078000022825D0032866D141E0022C10D128464A
:1007900000F0D6F8002032490870142101F028F941
:1007A00006462A46042101F075F801202B490870FD
:1007B00052E0042C0BD10521012001F019F9064665
:1007C0002A46042101F066F802202449087043E01B
:1007D000042C1BD100F042FA2846FFF717FF691ED0
:1007E000204A52F82100FFF763FF60B9142100206E
:1007F00001F0FEF806462A46042101F04BF80320DA
:100800001649087002E002201449087024E0042C04
:1008100020D100F023FA002605E0124951F8260005
:1008200000F076FA761C042EF7D3284600F064F820
:100830000B48007858B10021084601F0D9F8064667
:1008400000220C2101F026F8002005490870002044
:100850000249087000E000BF00BF70BD9D0000208D
:100860009C000020A000002010B5002403E0601CC4
:1008700000F042F8641C042CF9DB00F071F910BDA3
:1008800010B51148006860B11048006848B10F48C1
:1008900000680D490968884203D80C48006800F0D8
:1008A0006FF800F065F90848006860B10748006813
:1008B00048B10648006804490968884203D80348DB
:1008C000006800F06FF810BD4000002044000020D8
:1008D00070B504460D46054804600548056000F003
:1008E0005FF80449086000F045F970BD440000203D
:1008F000480000204000002010B50446042C07D812
:1009000034B1611E034A505C4FF0FF3100F0CAF968
:1009100010BD0000381B000070B50446042C0CD834
:100920005CB1611E054A505C00F0D2F9C543611EFE
:10093000024A505C294600F0B5F970BD381B000032
:1009400010B50446042C06D82CB1611E024A505C36
:10095000002100F0A7F910BD381B000010B50024DD
:1009600008E00649085D012100F0C0F9601CFFF7AE
:10097000C3FF641C042CF4D3042010BD381B0000FA
:1009800010B50446042C07D834B1611E034A505CEC
:100990006FF0010100F086F910BD00003C1B000063
:1009A0000420704710B50446042C06D82CB1611EF3
:1009B000024A505C012100F075F910BD3C1B00009B
:1009C00070B5002400F00AF805464FF47A7200234F
:1009D000FFF732FC0446204670BD00002DE9F041CF
:1009E00000F006FA06460F4600210C460D46084860
:1009F000006840B106480268002330463946FFF7D8
:100A00001BFC04460D4620462946BDE8F081000047
:100A10000000002010B500F003FA0149086010BD85
:100A2000000000202DE9F04104460D461646094815
:100A30000660094805600949096804FB01F04FF4A4
:100A40007A7100FB01F70649384600F017FABDE855
:100A5000F08100000C0000200800002004000020AD
:100A6000B90A0000002006E0054951F82010491C91
:100A700001B97047401C0828F6DB4FF0FF30F8E75B
:100A8000700700200246002106E00548405C9042C5
:100A900001D101207047491C0129F6DB0020F9E74C
:100AA000B400002010B5044621460220014A126815
:100AB000904710BD1401002010B5FFF781FF0446D8
:100AC000214603480068034A1268904710BD0000A1
:100AD0000C0000200800002070B506460D460024DA
:100AE00005E0094951F8240000F046F8641C042C84
:100AF000F7DB2846FFF7CAFD044621463046034A85
:100B00001268904770BD0000A0000020B0000020D7
:100B100010B5FFF7D7FD034803490860FFF7E0FD74
:100B200010BD00003546526E0006014010B5044667
:100B3000E003094908600120074908310860081FDF
:100B4000006840F00100091F0860012003490860A7
:100B5000FFF7DEFF10BD000004050140000001406A
:100B600001200249086000E020BFFDE700050040C9
:100B700030BF70477047000030B50246002036E0B5
:100B80001C4951F82010914230D1012181401A4B6B
:100B900019600023194941F82030591E154B43F8BC
:100BA000201017490968491E154B19601946096834
:100BB000E1B90621002917DB01F01F040123A3403E
:100BC000104C4D0944F8253000BF00BF00BFBFF3F3
:100BD0004F8F00BF00BF00BF00BF00BF00BFBFF30B
:100BE0006F8F00BF00BF00BF00BF00BF401C0828C0
:100BF000C6DB30BD70070020086300401065004070
:100C00001801002080E100E001460C48016000204E
:100C10000B4A106000BF0DE000230A4A42F8203062
:100C200001228240084B1A604FF0FF32074B43F815
:100C30002020401C0828EFDB704700001401002032
:100C40001801002010650040086300407007002074
:100C500010B50446204600F03BF810BD00200C49BA
:100C6000086000BF10E000220A4941F820200A492C
:100C700041F8202001218140084A11604FF0FF31E6
:100C8000074A42F82010401C0828ECDB704700009F
:100C9000180100200061004010650040086300401A
:100CA00070070020012303FA00F201F0010313B9D9
:100CB000034B1A6002E0024B1B1F1A6070470000D2
:100CC0000C050050002001490860704714050050D1
:100CD0000146012000FA01F203480068104008B103
:100CE000012070470020FCE71005005021B9064B99
:100CF000064A42F8203005E0012903D10123034AC6
:100D000042F82030704700000C000300000700503C
:100D100010B50246002006E0194951F82010914212
:100D200000D110BD401C0828F6DB164800680828D2
:100D300023D2FFF797FE0346134840EA02211348E7
:100D400040F823100120984011490860062000282F
:100D500009DB00F01F040121A1404409A40004F1B3
:100D6000E024C4F8001100BF054840F823200548DE
:100D70000068401C0349086000BF00BFD1E70000C5
:100D800070070020180100200100020010650040DB
:100D90000463004010B50246914201DC104610BDCC
:100DA00000BF094800680028FBD00020064C2060E6
:100DB00006480068C3B2881A401C93FBF0F400FB9D
:100DC00014301044C0B2EAE700D1004008D500401A
:100DD0000121044A11600021034A11600121034AE4
:100DE0001160704704D5004000D1004000D00040A1
:100DF00030B5012007490864801E07490968A0FB37
:100E00000150064909686A1840F100031046194666
:100E100030BD0000008000400C01002040850040F3
:100E200010B50020114908600120114948600020D8
:100E3000104908600320091D086000200D490C318D
:100E40000860401E0B493C3108604FF480300A496D
:100E5000086001200649C1F800020820FFF7BAFB2C
:100E600001200349C8600860102010BD0C0100205B
:100E700000800040048500400483004070B50446B3
:100E80000D462248056004B3012021494860002036
:100E9000204908600320091D086000201D490C310D
:100EA0000860601E1B493C3108604FF480301A49CD
:100EB000086001201649C1F800020920FFF78AFBEB
:100EC00001201349C86008601FE0012010494860F4
:100ED0000920002817DB00F01F02012191400F4A72
:100EE000430942F8231000BF00BF00BFBFF34F8F7C
:100EF00000BF00BF00BF00BF00BF00BFBFF36F8FC8
:100F000000BF00BF00BF00BF00BF70BD10010020C8
:100F100000900040049500400493004080E100E010
:100F200070B505460C462046FFF7F6FC70BD10B5BF
:100F3000FFF7C8FEFFF76EFDFFF710FD00F004FBA2
:100F4000002010BD0F4802684FF08050D0F83411D7
:100F5000082A14D1062910D2DFE801F00305070999
:100F60000B0D002070470020FCE70020FAE700206E
:100F7000F8E70020F6E70120F4E70120F2E700207F
:100F8000F0E70000300100100F4802684FF0805079
:100F9000D0F83411082A14D1062910D2DFE801F064
:100FA000030507090B0D012070470020FCE7002016
:100FB000FAE70020F8E70020F6E70020F4E7002039
:100FC000F2E70020F0E70000300100100F4802684F
:100FD0004FF08050D0F83411082A14D1062910D2CD
:100FE000DFE801F0030507090B0D01207047002021
:100FF000FCE70020FAE70020F8E70020F6E70020F1
:10100000F4E70020F2E70020F0E7000030010010D4
:101010000F4802684FF08050D0F83411082A14D1DC
:10102000062910D2DFE801F0030507090B0D0120A6
:1010300070470020FCE70020FAE70020F8E70020D6
:10104000F6E70020F4E70020F2E70020F0E70000D8
:10105000300100100F4802684FF08050D0F8341172
:10106000082A14D1062910D2DFE801F00305070988
:101070000B0D012070470120FCE70120FAE7012059
:10108000F8E70120F6E70120F4E70120F2E700206D
:10109000F0E70000300100100F4802684FF0805068
:1010A000D0F83411082A14D1062910D2DFE801F053
:1010B000030507090B0D012070470120FCE7012003
:1010C000FAE70120F8E70120F6E70120F4E7012024
:1010D000F2E70020F0E70000300100100F4802683E
:1010E0004FF08050D0F83411082A14D1062910D2BC
:1010F000DFE801F0030507090B0D0120704701200F
:10110000FCE70120FAE70120F8E70120F6E70120DB
:10111000F4E70120F2E70020F0E7000030010010C2
:101120000F4802684FF08050D0F83411082A14D1CB
:10113000062910D2DFE801F0030507090B0D012095
:1011400070470020FCE70020FAE70020F8E70020C5
:10115000F6E70020F4E70020F2E70020F0E70000C7
:101160003001001000B501460248016000F004F8AB
:1011700000BD000004E5014000BF024800680028EF
:10118000FBD0704700E4014070B505460E460020D4
:10119000104908700120104908600021084600F03D
:1011A00027FC044600220A2100F074FB00210846B7
:1011B00000F01EFC04460022092100F06BFB0A210E
:1011C000002000F015FC04460022052100F062FB1F
:1011D00070BD0000FC0000200001002070B5044636
:1011E0000E46FFF76FFA0D2C50DA002C4EDD294821
:1011F0000068401C2749086008460068402805D957
:1012000025480068FFF7CEFB00BFFEE7FFF780FC34
:10121000224991F90010481CC11700EB9161891116
:10122000A0EB8111CDB21E4800EB051004701C48E4
:1012300000EB05104660FFF7D1FB0021184A02EBD6
:101240000512C2E90201154991F90010481CC117A5
:1012500000EB91618911A0EB811149B20F4A117025
:10126000104800680B490968884203D209480068A1
:101270000C4908600C4850F82400401C0A4941F809
:10128000240008460068401C086000BFFFF728FAE9
:1012900070BD000054000020500000204D000020D0
:1012A0002001002058000020200500202DE9F84FE3
:1012B00082468B469146FFF705FA2C48007800904D
:1012C0002A48006800284CD029482A49097800EBB0
:1012D000011000788AF8000025482649097800EBBB
:1012E00001104068CBF8000021482249097800EB42
:1012F0000110C1688068C9E900011E490978481CCD
:10130000C11700EB91618911A0EB8111194A11708D
:1013100016480068401E15490860174800681749BC
:10132000096800FB01F50026FFF758FBD9F800100B
:10133000441A1248006800F10100104908602F1992
:1013400046F100010D48002302683846FEF774FF9D
:10135000094908600A480068A04201D208480460B0
:1013600000BFFFF7BDF90098BDE8F88F54000020DA
:10137000200100204C000020600000205C000020C4
:101380006400002010B50446002010490870FF20BA
:101390000F49087000200F4908600F4908600F4985
:1013A00008600F4908600F49086000BF05E0002190
:1013B0000D4A42F82010411CC8B20D28F7DB0B483B
:1013C00004600068FFF7DCFA10BD00004C0000204C
:1013D0004D00002054000020580000205C00002038
:1013E0006000002064000020200500205000002044
:1013F00070B504461348046004210320FFF768FA1F
:10140000002014E0002100EB80020F4B03EB82026E
:10141000117400BF08E0002200EB80030A4D05EBC9
:10142000830343F82120491C0429F4DB401C0D28C8
:10143000E8DB0649022000F0F1F90449032000F03E
:10144000EDF970BDB800002054050020BD14000067
:101450001FB50120FFF76AFB44F62061002000F071
:10146000C7FA04460022032100F014FA23E06A467A
:1014700002A903A8FFF71AFFD8B1002416E09DF8CF
:101480000C0000EB80000C4901EB800050F82400B8
:1014900058B19DF80C0000EB800001EB800050F883
:1014A00024209DF80C0002999047641C042C02DA59
:1014B000E5E7FFF7E5F9DAE75405002070B50446E3
:1014C0000E462046FFF7DEFA50B144F620610020B8
:1014D00000F08EFA05460022032100F0DBF903E05C
:1014E000032C01D1FFF7C0F970BD000070B50646AE
:1014F0000C46022C12D2012503E02846FFF70CFA15
:101500006D1C042DF9DD4FF4FA71002000F070FA23
:101510000546621C062100F0BDF911E0094800688B
:10152000152804D100210520FFF72EFE08E00A212E
:10153000002000F05DFA05460022082100F0AAF91B
:1015400070BD00000001002010B50220FFF71AFF57
:101550000120FFF74DFFFFF733FA0446FFF738FC91
:1015600001221D49104600F04BFA042202211A48BC
:10157000FFF7C2F819490B2000F050F9184906206E
:1015800000F04CF917490A2000F048F916490920E3
:1015900000F044F91549022000F040F913490820F1
:1015A00000F03CF91149052000F038F90B490C20F6
:1015B00000F034F96421002000F01AFA04460022F9
:1015C000052100F067F90020094908700120094948
:1015D0000860FFF73DFF10BDDD110000891100001C
:1015E000ED14000039160000F9150000A1160000E6
:1015F000FC0000200001002070B506460C46082CB7
:101600000FD2012000EB54010020FFF789FCFA21E2
:10161000002000F0EDF90546621C092100F03AF9BE
:1016200008E0FA21002000F0E3F905460022082135
:1016300000F030F970BD000070B506460C46144845
:101640000068B4EB400F14D26008124A52F8201020
:101650000020FFF765FC1048006800EB8000810067
:10166000002000F0C5F90546621C0A2100F012F9BD
:101670000CE002200949087041F28831002000F096
:10168000B7F9054600220B2100F004F970BD0000F7
:10169000000100202007002008010020FC0000209D
:1016A00070B504460E465848007805286FD2DFE82A
:1016B00000F00329377C9600052C22D1002507E095
:1016C00004210120FFF766FB504941F825006D1CFD
:1016D000142DF5DB012503E02846FFF70DF96D1CFD
:1016E000042DF9DD14204A4908600A21002000F089
:1016F0007FF905460022092100F0CCF8012042497B
:1017000008707FE0082C0AD10020424908600A21B5
:1017100000F06EF9054600220A2100F0BBF871E0E6
:10172000022C41D10021084600F062F90546002252
:101730000B2100F0AFF835483649096850F8210010
:10174000B04225D13448016832480068401C8142CB
:101750000DD103202C4908704FF4FA71002000F0DD
:1017600047F905460022082100F094F81CE02948BA
:101770000068401C2749086041F28831002000F0D1
:1017800037F9054600220B2100F084F80CE038E020
:1017900004201D4908700A21002000F029F905469F
:1017A0000022082100F076F82CE0082C16D11A4807
:1017B0000068401C1849086001201349087014484B
:1017C0000068401E124908604FF4FA71002000F0D2
:1017D0000FF905460022062100F05CF812E0082C03
:1017E0000ED101200C4908600020074908704FF411
:1017F000FA7100F0FDF805460022052100F04AF8D4
:1018000000E000BF00BF70BDFC00002020070020EA
:1018100008010020040100200001002070B50446EA
:101820000D4604EB8400194901EB8000007C04287C
:1018300005DB17480068FFF7B5F800BFFEE7FFF7C4
:1018400067F9002600201BE004EB84010F4A02EB3D
:10185000810151F8201091B904EB840102EB810160
:1018600041F82050012604EB840102EB8101097C40
:10187000491C04EB8402054B03EB82021174401CEB
:10188000042801DA002EDFD000BF70BD540500200F
:10189000B80000202DE9F04705460E4690460D2E73
:1018A0007EDAFEF70FFF4FEAD57A25F000490024D3
:1018B000002710E004EB84004A4911F8200040B1F1
:1018C00004EB840001EB8000407AB04201D1012793
:1018D00001E0601CC4B21FB9434800688442E9D3E8
:1018E000FEF7FEFE0A2C6EDAA5B3FFF711F9FEF73C
:1018F000E9FE012004EB84013A4A02F8210004EBDE
:101900008400114601EB8000C0F8049004EB8401D0
:1019100002EB810181F808A004EB8400114601EB81
:101920008000467204EB840001EB8000C0F80C805C
:10193000FFF746F8484404EB84012A4A02EB810190
:10194000086127B928480068401C27490860FEF74D
:10195000C7FE3EE0FFE777B3FFF7DAF8FEF7B2FE27
:10196000002004EB84011F4A02F821000EE0621CF3
:1019700002EB82021B4B03EB820104EB840203EBBC
:1019800082001422FEF789FC601CC4B2164800686D
:10199000401EA042EBD8002004EB8401114A00E075
:1019A00018E002F8210010480068401E0E49086047
:1019B000FEF796FE0DE000E005E00C480068FEF73B
:1019C000F1FF00BFFEE709480068FEF7EBFF00BF2C
:1019D000FEE705E005480068FEF7E4FF00BFFEE70C
:1019E000BDE8F08758060020C4000020BC0000209D
:1019F000024621F000400AB140F00040704700006C
:101A000070B504460D4616460F493046FFF706FFEF
:101A10000E480560002006E0002100EB80020C4B20
:101A200003F82210401C0A28F6DB00200949086050
:101A3000094804602046FEF7A3FF324629460120EC
:101A4000FEF7F0FF70BD00005D1A0000C00000202E
:101A500058060020C4000020BC0000202DE9F04101
:101A600007460E46FEF72EFE002457E004EB8400E6
:101A70002E4911F8200000284FD004EB840001EB20
:101A800080000069B04248D804EB84020B4603EBA7
:101A90008202D16804EB840203EB8202507A244A6A
:101AA0001268904704EB8400204901EB8000007A23
:101AB00060B104EB840001EB80004068304404EB2B
:101AC00084011A4A02EB8101086126E0002004EB40
:101AD0008401164A02F8210025460DE06A1C02EB3B
:101AE0008202124B03EB820105EB850203EB8200BD
:101AF0001422FEF7D2FB6D1C0E480068401EA8425F
:101B0000ECD8002005EB8501084A02F821000948BD
:101B10000068401E07490860641E641C0548006890
:101B20008442A3D3FEF7DCFDBDE8F0815806002017
:101B3000C0000020C40000200D0E0F101C1D1E1F31
:101B4000601B00000000002020010000EE050000E6
:101B5000801C00002001002070460000FE050000EF
:101B60000000000010000000000000000000000065
:101B7000010000000200000003000000040000005B
:101B8000030000000200000001000000020000004D
:101B90000300000004000000030000000200000039
:101BA0000000000000000000000000000000000035
:101BB0000000000000000000000000000000000025
:101BC0000000000000000000010000000200000012
:101BD00003000000040000000300000002000000F9
:101BE00001000000020000000300000004000000EB
:101BF00003000000020000000000000000000000E0
:101C00000B0000000C00000018000000190000008C
:101C100000000000020000000000000000000000C2
:101C200000000000000000000000000001000000B3
:101C30000200000003000000040000000300000098
:101C4000020000000100000002000000030000008C
:101C5000040000000300000002000000000000007B
:101C60000000000000000000000000000000000074
:101C70000000000000000000000000000090D00301
:0400000500000201F4
:00000001FF
