:020000040000FA
:1000000090460020150200001D0200001F020000A3
:100010002102000023020000250200000000000071
:1000200000000000000000000000000027020000A7
:1000300029020000000000002B0200002D02000039
:100040002F0200002F0200002F0200002F020000EC
:100050002F0200002F020000210300002F020000E9
:10006000DD050000090600002F0200002F0200003D
:100070002F0200002F0200002F0200002F020000BC
:100080002F0200002F0200002F0200002F020000AC
:100090002F0200002F0200002F0200002F0200009C
:1000A0002F0200002F0200002F0200002F0200008C
:1000B0002F0200002F0200000000000000000000DE
:1000C0002F0200002F0200002F0200002F0200006C
:1000D0002F0200002F0200002F0200002F0200005C
:1000E0002F0200002F0200002F020000000000007D
:1000F000000000002F020000000000002F0200009E
:1001000000000000000000000000000000000000EF
:1001100000000000000000000000000000000000DF
:1001200000000000000000000000000000000000CF
:1001300000000000000000000000000000000000BF
:1001400000000000000000000000000000000000AF
:10015000000000000000000000000000000000009F
:10016000000000000000000000000000000000008F
:10017000000000000000000000000000000000007F
:10018000000000000000000000000000000000006F
:10019000000000000000000000000000000000005F
:1001A000000000000000000000000000000000004F
:1001B000000000000000000000000000000000003F
:1001C000000000000000000000000000000000002F
:1001D000000000000000000000000000000000001F
:1001E000000000000000000000000000000000000F
:1001F00000000000000000000000000000000000FF
:10020000DFF80CD000F07AF8004800471D1000001D
:10021000904600200648804706480047FEE7FEE774
:10022000FEE7FEE7FEE7FEE7FEE7FEE7FEE7FEE7A6
:100230005D030000010200002DE9F05F054600208B
:1002400092469B4688460646814640241BE0284647
:1002500041464746224600F041F853465A46C01AE6
:10026000914110D311461846224600F028F82D1A65
:1002700067EB01084F4622460120002100F01FF8DD
:1002800017EB00094E41201EA4F10104DFDC4846B3
:1002900031462A464346BDE8F09F40EA01039B07EA
:1002A00003D009E008C9121F08C0042AFAD203E0EB
:1002B00011F8013B00F8013B521EF9D27047202A89
:1002C00004DB203A00FA02F1002070479140C2F1AD
:1002D000200320FA03F3194390407047202A04DBDF
:1002E000203A21FA02F00021704721FA02F3D040AF
:1002F000C2F120029140084319467047064C074D51
:1003000006E0E06840F0010394E8070098471034E5
:10031000AC42F6D3FFF778FF5019000070190000C7
:100320002DE9F04100240B4D0B4F2646A00000F1B3
:10033000804000F5C040D0F8001129B1C0F800613C
:10034000396855F824008847641C082CEED3BDE8B2
:10035000F08100006C0600207400002010B44FF003
:1003600080520023D2E94C10082909D14FF0804C6B
:10037000CCF80C31CCF81031DFF8D4C1CCF8003017
:10038000082965D1734B1B68DFF8CCC1CCF800306D
:10039000724B1B680CF1040CCCF80030704B1B68DE
:1003A0000CF1040CCCF800306E4B1B680CF1040C03
:1003B000CCF800306C4B1B680CF1040CCCF800300E
:1003C0006A4B1B680CF1040CCCF80030684B1B68BE
:1003D000DFF8A0C1CCF80030674B1B680CF1040CAF
:1003E000CCF80030654B1B680CF1040CCCF80030E5
:1003F000634B1B680CF1040CCCF80030614B1B689C
:100400000CF1040CCCF800305F4B1B680CF1040CB1
:10041000CCF800305D4B1B68DFF874C1CCF80030BD
:100420005C4B1B680CF1040CCCF800305A4B1B6879
:100430000CF1040CCCF80030584B1B680CF1040C88
:10044000CCF80030564B1B680CF1040CCCF8003093
:10045000082908BF5FEA000304D1DFF84CC1514B03
:10046000CCF80030082908BF5FEA000304D1DFF8A8
:100470003CC1FB23CCF80030082908BF5FEA000329
:1004800008D14B4B92F85842D3F800C064F3030CE8
:10049000C3F800C0082908BF5FEA000305D1DFF8F0
:1004A00014C14FF40073CCF80030082907D142483A
:1004B000016811F0010F1CBF6FF0010101603F489E
:1004C000016841F470010160BFF34F8FBFF36F8F7C
:1004D000D2E94C104FF01022082905D1042803D985
:1004E000D2F8080236490860D2F8000210F0004F36
:1004F00004BFD2F8040210F0004F24D0314B012089
:100500001860314801680029FCD04FF0120CC2F885
:1005100000C201680029FCD0C2F804C201680029A9
:10052000FCD00021196001680029FCD0BFF34F8F77
:1005300026480168264A01F4E06111430160BFF3D7
:100540004F8F00BFFDE724492248086010BC704768
:10055000380500400404001020C5004008040010C5
:100560000C040010100400101404001018040010F3
:100570001C04001040C5004020040010240400109A
:10058000280400102C040010300400103404001063
:1005900060C50040380400103C0400104004001006
:1005A00044040010488103008C56004018F50040B8
:1005B000E40E0040409602400004004088ED00E058
:1005C0005805004004E5014000E401400CED00E066
:1005D0000400FA050090D0037C000020084881B098
:1005E000D0F8401129B10021C0F84011D0F84001E5
:1005F000009004480168491C016001B07047000088
:10060000008000406C0000200748D0F8401100290D
:1006100008BF70470021C0F8401104484068002816
:1006200008BF704700470000009000406C000020A9
:1006300002E008C8121F08C1002AFAD170477047AB
:10064000002001E001C1121F002AFBD170470846BB
:1006500000F036B90349086800B972B6421C0A6056
:10066000704700005800002003490868401E0860D9
:1006700018BF704762B67047580000202DE9F04758
:10068000044690468946144800F024FB134F002589
:1006900007F10C067D70BC602C46A6F10A0A00BF6B
:1006A00056F82400002100F00BFC56F8240000F05E
:1006B00097FA0AF80450641C042CF1D33D7009F039
:1006C000FF00074900F0B4FF08F0FF00BDE8F04765
:1006D000034900F0ADBF0000A10A0000280000207F
:1006E000E50600002DE9F05F4D4D0E464FF0010983
:1006F0006978002729B34FF0020B012932D005F1A8
:100700000C0802293ED003290CBF0428BDE8F09F45
:1007100000F044FB5FF0000458F8240000F060FA99
:10072000641C042CF8D3287840B10021084601F05D
:1007300011F800220B2100F0A5FF2F706F70BDE8AB
:10074000F09F022818BFBDE8F09F2F7014210020F1
:1007500001F000F83246042100F094FF85F8019082
:10076000BDE8F09F042818BFBDE8F09F05210120D7
:1007700000F0F0FF3246042100F084FF85F801B05C
:10078000BDE8F09F042818BFBDE8F09F00F006FB0D
:10079000DFF890A00024611CB14218D01AF80400C0
:1007A00038B958F8240000F0F7FA58B31AF80400E2
:1007B00068B158F8240000F0EFFA40B10021084673
:1007C00000F0C8FF00220B2100F05CFF2F70641CBA
:1007D000042CE0DB08EB860050F8040C00F0DCFA97
:1007E000002804BF85F801B0BDE8F09F1421002067
:1007F00000F0B0FF3246042100F044FF032068708F
:10080000BDE8F09F28780028E1D140F6B83100F02B
:10081000A1FF00220B2100F035FF85F80090D6E7FC
:10082000280000202A00002010B50E4C2168002965
:100830001CBFA068002803D0884298BF00F0A6F82B
:1008400000F06EF800F086F9216800291ABFA06850
:10085000002810BD884288BF10BDBDE8104000F0E0
:10086000A5B800001000002010B50D4C216800292B
:100870001CBF6068002803D0884298BF00F086F84B
:1008800000F070F9216800291ABF6068002810BDC7
:10089000884288BF10BDBDE8104000F087B8000056
:1008A0001000002010B5054CC4E9010100F07CF8EF
:1008B0002060BDE8104000F057B900001000002093
:1008C000411E032988BF7047034908444FF0FF3198
:1008D00010F8010C00F0D4BAF8180000411E0329EA
:1008E00088BF704710B506490C1814F8010C00F0C9
:1008F000DBFAC14314F8010CBDE8104000F0C0BAA7
:10090000F8180000411E032988BF704703490844B6
:10091000002110F8010C00F0B3BA0000F818000034
:1009200070B5054D00244FF0FF31285D00F0A8FAA6
:10093000641C042CF7D370BDF818000070B5064D88
:100940000024285D00F0B0FAC143285D00F098FA59
:10095000641C042CF5D370BDF818000070B50A4D66
:1009600000240121285D00F0ABFA601C032C06D89E
:1009700028444FF0FF3110F8010C00F081FA641C9C
:10098000042CEED3042070BDF8180000411E03298A
:1009900088BF7047034908446FF0010110F8010C4B
:1009A00000F06EBAFC18000004207047411E0329B5
:1009B00088BF704703490844012110F8010C00F07A
:1009C0005FBA0000FC18000010B500F0AFFA094A49
:1009D00084460C460020536801462BB15268002320
:1009E00060462146FFF728FC4FF47A720023FFF798
:1009F00023FC10BD0000002010B500F097FA084A53
:100A000084460C46002053680146002B08BF10BDE9
:100A10005268002360462146FFF70EFC10BD00001F
:100A20000000002010B500F097FA0149486010BDA1
:100A300000000020054BDA609960196848434FF4C4
:100A40007A714843024900F0B3BA00000000002068
:100A5000890A00000B4810B540780C46022818BFE0
:100A600010BDFFF75DFF2046FFF74CFF4FF4FA7112
:100A7000002000F06FFE2246BDE810400C2100F07F
:100A800001BE00005C00002010B5FFF79DFF034A87
:100A90000146D0689268BDE8104010470000002071
:100AA00070B5124C0646002554F8250000F05EF89B
:100AB0006D1C042DF8DB2068B04208BF01210ED068
:100AC0006068B04208BF022109D0A068B04208BFE8
:100AD000032104D0E068B0420CBF042100210220B1
:100AE000034A9268BDE870401047000034000020BF
:100AF0002800002010B5FFF7ADFD0449024808604A
:100B0000BDE81040FFF7B0BD3546526E000601400B
:100B10000B4910B5C00308600A4901200860091F8D
:100B20000A6842F001020A6007490860FFF792FD77
:100B3000074906480860BDE81040FFF795BD000072
:100B4000040501400C050140000001403546526E8D
:100B50000006014002490120086020BFFDE70000B7
:100B60000005004030BF7047704700002DE9F003DA
:100B70000021184A184E4F1E184B0C4601254FF005
:100B800040084FF0E02900BF52F821C084451AD137
:100B900005FA01FCC6F808C34FEA810C0CF1804C41
:100BA0000CF5C04CCCF8104542F82170D3F804C0C5
:100BB000BCF1010CC3F804C005D1C9F88081BFF3B2
:100BC0004F8FBFF36F8F491C0829DDDBBDE8F003B1
:100BD000704700006C060020006000407400002098
:100BE000384A116881421ABFD2F804C08445704760
:100BF0002DE9F04F946884421ABFD5688542BDE85C
:100C0000F08F166986421ABF57698742BDE8F08F98
:100C1000D2F8188080451ABFD2F81C908145BDE8F3
:100C2000F08F294BD3F804A0BAF1080F28BFBDE814
:100C3000F08FB1F1FF3F4FF0000B4FF0010A4FF082
:100C4000060108BF594620D0BCF1FF3F08BF5146FE
:100C50001BD0B4F1FF3F08BF022116D0B5F1FF3F12
:100C600008BF032111D0B6F1FF3F08BF04210CD00B
:100C7000B7F1FF3F0CBF0521B8F1FF3F05D0B9F137
:100C8000FF3F0CBF07214FF0FF31DFF840C08C0061
:100C900004F1804404F5C0444CEA002CC4F810C5AB
:100CA0000B4C0AFA01FCC4F804C34FF0E0244FF0E7
:100CB000400CC4F800C142F821005868401C58603C
:100CC000BDE8F08F6C0600207400002001000200D7
:100CD0000060004025490860002048602449086001
:100CE00024490122C1F80823234BDFF890C0421E9B
:100CF0001A60CCF800004FF0020CC1F808C3DFF80E
:100D000080C05A60CCF800004FF0040CC1F808C352
:100D1000DFF870C09A60CCF800004FF0080CC1F802
:100D200008C3DFF864C0DA60CCF800004FF0100CA4
:100D3000C1F808C3DFF854C01A61CCF800004FF0C6
:100D4000200CC1F808C3DFF848C05A61CCF8000095
:100D50004FF0400CC1F808C3DFF838C09A61CCF8F6
:100D600000008020C1F80803DA6170477400002099
:100D700010650040006000406C06002014650040D3
:100D8000186500401C650040206500402465004057
:100D9000286500402C65004000F086B82D490020F1
:100DA00048602D49C1F800012C4A10600122C1F8A9
:100DB00008232B4A431E1360C1F80401DFF8A4C0C6
:100DC000CCF800004FF0020CC1F808C35360C1F822
:100DD0000801DFF894C0CCF800004FF0040CC1F813
:100DE00008C39360C1F80C01DFF880C0CCF80000A4
:100DF0004FF0080CC1F808C3D360C1F81001DFF848
:100E000070C0CCF800004FF0100CC1F808C313619B
:100E1000C1F81401DFF85CC0CCF800004FF0200CE2
:100E2000C1F808C35361C1F81801DFF84CC0CCF811
:100E300000004FF0400CC1F808C39361C1F81C01D9
:100E4000DFF838C0CCF800008020C1F80803D36177
:100E500070470000740000200060004010650040F2
:100E60006C06002014650040186500401C650040B9
:100E70002065004024650040286500402C65004046
:100E8000012202FA00F011F0010F0CBF01490249E2
:100E9000086070470C05005008050050014900200B
:100EA0000860704714050050012101FA00F0034961
:100EB0000968084018BF0120704700001005005065
:100EC000800000F1A04000290ABF02490129C0F8B2
:100ED000001770470C00030081428CBF0A4A70471C
:100EE000D2F80031002BFBD00023C2F80031074AB2
:100EF0001268091AD2B2491C92FBF1F301FB1321CB
:100F00000844C0B27047000000D0004008D500403F
:100F100004490120086004490022C1F8002108604A
:100F20007047000004D5004000D000400749012070
:100F30000864074800684FF0FF31A0FB0123054813
:100F40000068101843F10001704700000080004065
:100F50006C000020408500400F48002202600F48CE
:100F6000012141600E4B1A60DFF838C00323CCF832
:100F700000300D4B1A600D4B8A1E1A600A04C0F82F
:100F80000423C0F800124FF0E0238215C3F80021BB
:100F9000C1600160102070476C000020008000409C
:100FA00004850040088500401085004040850040D1
:100FB00070B4144A00234FF4007C5160124901229E
:100FC0004FF0E0244A60A0B1104D2B60104E032575
:100FD0003560104D2B60104B401E18601004C1F896
:100FE0000403C1F80022C4F800C1CA600A6070BCE2
:100FF0007047C4F880C1BFF34F8FBFF36F8F70BCD1
:10100000704700006C0000200090004004950040F4
:1010100008950040109500404095004010B5FFF73E
:101020003DFFFFF7FFFCFFF799FC00F08BF9002074
:1010300010BD0000074810B500214170012141603A
:101040000A21002000F086FB0022BDE810400521A7
:1010500000F018BB5C0000202DE9F0410F4604466B
:10106000FFF7F8FA601E0C2830D21A4D6868401C51
:101070006860402803D9A868FFF798FCFEE795F957
:101080000100401CC11700EB916121F03F01401AA3
:101090001149C0B201EB001634707760FFF7ACFC69
:1010A0000021C6E9020195F90100401CC11700EBBF
:1010B000916121F03F01401A6870084850F82410EF
:1010C000491C40F824100168491C0160BDE8F0414A
:1010D000FFF7CABA1C000020800000208004002016
:1010E0002DE9F04115460E460746FFF7B3FA104BBF
:1010F000D3F804C00CF0FF08BCF1000F12D00D496A
:10110000187801EB0014401C217839706168316057
:10111000D4E90212C5E9001200F03F001870ACF1EA
:1011200001005860FFF7A0FA4046BDE8F0810000DA
:101130001C000020800000200B4B0021FF221970B2
:101140005A700A4A5960116051609160D160116112
:1011500051619161D161116251629162D1621163F9
:101160009860FFF713BC00001C00002080040020E2
:1011700070B52F4C042160600320FFF793FB002221
:101180002C48114602EB820C00EB8C03521C1974A4
:1011900040F82C1059609960D9600D2AF2DB25497E
:1011A0000222DFF894C091F83810042903D3606854
:1011B000FFF7FCFBFEE7002302EB8202194600EB7F
:1011C000820200BF52F821502DB942F821C0157C8F
:1011D00001236D1C1574491C042901DA002BF1D080
:1011E0001449154A4FF0030C91F84C10042903D30D
:1011F0006068FFF7DBFBFEE700230CEB8C0C194665
:1012000000EB8C0050F821C0BCF1000F08D140F871
:10121000212090F810C001230CF1010C80F810C0BF
:10122000491C0429A8BF70BD002BEBD070BD000085
:1012300044000020B4040020B112000086B0012058
:10124000FFF766FC44F62061002000F083FA0022DC
:10125000032100F017FA154C04AA694602A8FFF70B
:101260003FFF00B3FFF746FC9DF80800002500EBA8
:10127000800004EB8000007C0028EDDD9DF8080074
:1012800000EB800104EB810151F825200099904783
:101290009DF808006D1C00EB800004EB8000007CD2
:1012A000A842EBDCD8E7FFF7DFFAD5E7B40400206B
:1012B0000B4910B5097881420AD144F6206100201B
:1012C00000F048FA0022BDE81040032100F0DAB92E
:1012D000032818BF10BDBDE81040FFF7A5BA0000F5
:1012E0004400002010B50C4602290CD2FFF726FB63
:1012F0004FF4FA71002000F02DFA621CBDE8104096
:10130000062100F0BFB90E484168152909D00A210D
:10131000002000F01FFA0022BDE81040072100F075
:10132000B1B900214170012141600A21002000F083
:1013300011FA0022BDE81040052100F0A3B9000019
:101340005C00002010B50220FFF7F6FE0120FFF739
:101350000FFFFFF739FBFFF7DBFD012220491046A5
:1013600000F000FA042202211D48FFF787F91D4909
:101370000A2000F05DF91C49062000F059F91B49CC
:10138000092000F055F91A49082000F051F91949CF
:10139000022000F04DF91849022000F049F91649E1
:1013A000072000F045F91449052000F041F90D49E6
:1013B0000B2000F03DF911490C2000F039F96421AF
:1013C000002000F0C7F90022052100F05BF90C486D
:1013D0000021417001214160BDE81040FFF72EBFA0
:1013E0005910000035100000E51200004114000003
:1013F00005140000550A0000991400004F06000073
:101400005C00002010B50C4608290ED2012000EB2C
:101410005400FFF763FAFA21002000F09BF9621CE8
:10142000BDE81040082100F02DB9FA21002000F09D
:1014300091F90022BDE81040072100F023B9000017
:1014400070B5134D0C466868B1EB400F12D21149CC
:10145000600851F82000FFF741FAE86800EB8000CF
:101460008100002000F076F9621CBDE8704009217F
:1014700000F008B90220687041F28831002000F0C5
:1014800069F9BDE8704000220A2100F0FBB80000B5
:101490005C0000201C0600202DE9F041614E8846CA
:1014A000002471780127604D94B0052924BF14B041
:1014B000BDE8F081DFE801F003374886A000052889
:1014C0001CBF14B0BDE8F0813078002808BF0024AC
:1014D0000BD0502255496846FEF7DFFE5022694680
:1014E0005148FEF7DAFE347008E004210120FFF7CE
:1014F000F3FC45F82400641C142CF6DB0124204680
:10150000FFF7DEF9641C042CF9DD1420F0600A21D9
:10151000002000F01FF90022082100F0B3F87770D6
:1015200014B0BDE8F08107281CBF14B0BDE8F081FD
:101530000A210020B46000F00DF914B00022BDE8CB
:10154000F041092100F09EB802281CBF14B0BDE88C
:10155000F0810021084600F0FDF800220A2100F089
:1015600091F8B06855F8201041451ED17168401CB3
:1015700081420DD1032070704FF4FA71002000F009
:10158000E9F814B00022BDE8F041072100F07AB874
:10159000B06041F28831002000F0DCF814B0002285
:1015A000BDE8F0410A2100F06DB8042070700A21F6
:1015B000002000F0CFF814B00022BDE8F041072170
:1015C00000F060B807281CBF14B0BDE8F081FFF739
:1015D000A7F970684FF4FA71401C70607770F0687A
:1015E000401EF060002000F0B5F814B00022BDE805
:1015F000F041062100F046B807281CBF14B0BDE832
:10160000F081FFF78DF9776074704FF4FA71002064
:1016100000F0A0F814B00022BDE8F041052100F070
:1016200031B800005C0000201C06002000190000FA
:1016300000EB8002114810B500EB8202107C0428F8
:101640003CBF0023184604D30D484068FFF7AEF9AD
:10165000FEE752F820C0BCF1000F08D142F820107C
:1016600092F810C001230CF1010C82F810C0401C4C
:101670000428A8BF10BD002BEBD010BDB40400207F
:10168000440000200D2928BF70472DE9F04F83B09A
:101690008846DFF8B890C10F20F000440091D9F8D7
:1016A00008004FF0000A2A4F93465546002888BF8D
:1016B000019125D905EB850007EB8006717A41453C
:1016C00013D14FF0010A002C04BF002107F82010AD
:1016D0000BD0012107F82010746001983072C6F811
:1016E0000CB0FFF771F920443061D9F808006D1C87
:1016F0008542DFD3BAF1000F1CBF03B0BDE8F08F05
:1017000005281DD200EB8000012107F8201007EB0F
:10171000800044600099017280F80980C0F80CB024
:10172000FFF752F90119D9F8080000EB800207EB26
:101730008202401C1161C9F8080003B0BDE8F08FB7
:10174000D9F80000FFF732F9FEE700004C00002056
:10175000B8050020020021F0004018BF40F0004012
:101760007047000070B50C46054616460E491046F7
:10177000FFF75EFF0D490E4B00204C6018704FF0D4
:10178000020C187503F8280FBCF1010CF9D10D609B
:1017900088602846FFF7FAF832462146BDE87040D7
:1017A0000120FFF747B90000B51700004C000020EA
:1017B000B80500202DE9F34F87B0002000904C4879
:1017C000816800299CBF09B0BDE8F08F0098494DA1
:1017D00000EB800615F8260000286CD005EB860487
:1017E00008982169814266D8414F607AE1687A6839
:1017F0009047207A20B161680898084420615AE037
:101800003B49002005F82600896800984A1E01928D
:10181000904238BFB1F1004F57D2A1EB000BABF1B2
:101820000100002841DD271D3D1D04F11C066B1C35
:10183000321DD91C04F1140904F1180804F11D0C1F
:10184000101D04F1100AABF1010B00BF58F814EBA6
:10185000CDF818E016F814EBCDF814E01CF814EBF2
:10186000CDF810E052F814EBCDF80CE050F814EB82
:10187000CDF808E019F814EB04F814EBDDF818E0E3
:1018800047F814EBDDF814E005F814EBDDF810E090
:1018900003F814EBDDF80CE041F814EBDDF808E098
:1018A0004AF814EBBBF1010BD0D1114801998160CA
:1018B0000098401E009000980D49401C00908968D7
:1018C000884283D309B0BDE8F08F824288BF4A1EA8
:1018D000EBD900BF00EB800105EB810101F114039E
:1018E000401C93E8D81081E8D8109042F2D3DCE78E
:1018F0004C000020B80500200D0E0F101C1D1E1FEF
:1019000001000000020000000300000004000000CD
:1019100003000000020000000100000002000000BF
:1019200003000000040000000100000002000000AD
:10193000030000000400000003000000020000009B
:10194000010000000200000003000000040000008D
:101950007019000000000020800000003006000028
:10196000F019000080000020104600004006000032
:101970001000000000000000000000000000000057
:101980000000000000000000000000000000000057
:101990000000000000000000000000000000000047
:1019A000000000000B0000000C0000001800000008
:1019B000190000000200000000000000000000000C
:1019C0000000000000000000000000000100000016
:1019D0000000000000000000000000000000000007
:1019E0000000000000000000000000000090D00394
:0400000500000201F4
:00000001FF
