:020000040000FA
:1000000030450020150200001D0200001F02000004
:100010002102000023020000250200000000000071
:1000200000000000000000000000000027020000A7
:1000300029020000000000002B0200002D02000039
:100040002F0200002F0200002F0200002F020000EC
:100050002F0200002F020000FD0200002F0200000E
:10006000B9050000E50500002F0200002F02000086
:100070002F0200002F0200002F0200002F020000BC
:100080002F0200002F0200002F0200002F020000AC
:100090002F0200002F0200002F0200002F0200009C
:1000A0002F0200002F0200002F0200002F0200008C
:1000B0002F0200002F0200000000000000000000DE
:1000C0002F0200002F0200002F0200002F0200006C
:1000D0002F0200002F0200002F0200002F0200005C
:1000E0002F0200002F0200002F020000000000007D
:1000F000000000002F020000000000002F0200009E
:1001000000000000000000000000000000000000EF
:1001100000000000000000000000000000000000DF
:1001200000000000000000000000000000000000CF
:1001300000000000000000000000000000000000BF
:1001400000000000000000000000000000000000AF
:10015000000000000000000000000000000000009F
:10016000000000000000000000000000000000008F
:10017000000000000000000000000000000000007F
:10018000000000000000000000000000000000006F
:10019000000000000000000000000000000000005F
:1001A000000000000000000000000000000000004F
:1001B000000000000000000000000000000000003F
:1001C000000000000000000000000000000000002F
:1001D000000000000000000000000000000000001F
:1001E000000000000000000000000000000000000F
:1001F00000000000000000000000000000000000FF
:10020000DFF80CD000F068F800480047A5080000AF
:10021000304500200648804706480047FEE7FEE7D5
:10022000FEE7FEE7FEE7FEE7FEE7FEE7FEE7FEE7A6
:1002300039030000010200002DE9F05F05460020AF
:1002400092469B4688460646814640241BE0284647
:1002500041464746224600F02FF853465A46C01AF8
:10026000914110D311461846224600F016F82D1A77
:1002700067EB01084F4622460120002100F00DF8EF
:1002800017EB00094E41201EA4F10104DFDC4846B3
:1002900031462A464346BDE8F09F202A04DB203A37
:1002A00000FA02F1002070479140C2F1200320FAC9
:1002B00003F3194390407047202A04DB203A21FAC7
:1002C00002F00021704721FA02F3D040C2F120026F
:1002D0009140084319467047064C074D06E0E06818
:1002E00040F0010394E8070098471034AC42F6D37D
:1002F000FFF78AFFDC0B0000FC0B00002DE9F0414A
:1003000000240B4D0B4E2746A00000F1804000F565
:10031000C040D0F8001131B1C0F80071326855F812
:10032000241002209047641C082CEDD3BDE8F08116
:10033000100500203800002010B44FF08052002338
:10034000D2E94C10082909D14FF0804CCCF80C317F
:10035000CCF81031DFF8D4C1CCF80030082965D1D1
:10036000734B1B68DFF8CCC1CCF80030724B1B68B4
:100370000CF1040CCCF80030704B1B680CF1040C31
:10038000CCF800306E4B1B680CF1040CCCF800303C
:100390006C4B1B680CF1040CCCF800306A4B1B68EA
:1003A0000CF1040CCCF80030684B1B68DFF8A0C1DE
:1003B000CCF80030674B1B680CF1040CCCF8003013
:1003C000654B1B680CF1040CCCF80030634B1B68C8
:1003D0000CF1040CCCF80030614B1B680CF1040CE0
:1003E000CCF800305F4B1B680CF1040CCCF80030EB
:1003F0005D4B1B68DFF874C1CCF800305C4B1B68A8
:100400000CF1040CCCF800305A4B1B680CF1040CB6
:10041000CCF80030584B1B680CF1040CCCF80030C1
:10042000564B1B680CF1040CCCF80030082908BFAF
:100430005FEA000304D1DFF84CC1514BCCF8003027
:10044000082908BF5FEA000304D1DFF83CC1FB23A1
:10045000CCF80030082908BF5FEA000308D14B4BF5
:1004600092F85842D3F800C064F3030CC3F800C0FC
:10047000082908BF5FEA000305D1DFF814C14FF473
:100480000073CCF80030082907D14248016811F008
:10049000010F1CBF6FF0010101603F48016841F48A
:1004A00070010160BFF34F8FBFF36F8FD2E94C1023
:1004B0004FF01022082905D1042803D9D2F80802E8
:1004C00036490860D2F8000210F0004F04BFD2F89D
:1004D000040210F0004F24D0314B01201860314845
:1004E00001680029FCD04FF0120CC2F800C201686C
:1004F0000029FCD0C2F804C201680029FCD0002108
:10050000196001680029FCD0BFF34F8F26480168AD
:10051000264A01F4E06111430160BFF34F8F00BF31
:10052000FDE724492248086010BC704738050040A8
:100530000404001020C50040080400100C04001042
:100540001004001014040010180400101C04001003
:1005500040C50040200400102404001028040010AE
:100560002C040010300400103404001060C500405A
:10057000380400103C040010400400104404001033
:10058000488103008C56004018F50040E40E0040FE
:10059000409602400004004088ED00E0580500400D
:1005A00004E5014000E401400CED00E00400FA0520
:1005B0000090D00340000020084881B0D0F84011DE
:1005C00029B10021C0F84011D0F840010090044842
:1005D0000168491C016001B07047000000800040C4
:1005E000300000200748D0F84011002908BF7047AC
:1005F0000021C0F8401104484068002808BF704737
:1006000000470000009000403000002002E008C8D1
:10061000121F08C1002AFAD170477047002001E07C
:1006200001C1121F002AFBD17047000010B500F075
:1006300043F8034A014650789268BDE810401047DD
:1006400024000020411E032988BF704710B50649C9
:100650000C1814F8010C00F095F8C14314F8010CC3
:10066000BDE8104000F07AB8D40B000070B50A4D18
:1006700000240121285D00F091F8601C032C06D8AD
:1006800028444FF0FF3110F8010C00F067F8641CAB
:10069000042CEED3042070BDD40B0000411E0329AE
:1006A00088BF704703490844012110F8010C00F08D
:1006B00055B80000D80B000010B500F07BF8094ACF
:1006C00084460C460020536801462BB15268002333
:1006D00060462146FFF7B0FD4FF47A720023FFF722
:1006E000ABFD10BD0000002010B500F063F8084A13
:1006F00084460C46002053680146002B08BF10BDFD
:100700005268002360462146FFF796FD10BD0000A9
:100710000000002010B500F063F80149486010BDEA
:1007200000000020054BDA609960196848434FF4D7
:100730007A714843024900F07FB8000000000020B1
:100740004507000010B5FFF7B7FF034A0146D06820
:100750009268BDE81040104700000020012202FA14
:1007600000F011F0010F0CBF014902490860704709
:100770000C05005008050050014900200860704732
:1007800014050050012101FA00F0034909680840EE
:1007900018BF01207047000010050050800000F1D4
:1007A000A04000290ABF02490129C0F8001770477C
:1007B0000C000300074901200864074800684FF057
:1007C000FF31A0FB012305480068101843F1000128
:1007D000704700000080004030000020408500404D
:1007E0000F48002202600F48012141600E4B1A6041
:1007F000DFF838C00323CCF800300D4B1A600D4BE6
:100800008A1E1A600A04C0F80423C0F800124FF0D0
:10081000E0238215C3F80021C160016010207047F9
:100820003000002000800040048500400885004022
:10083000108500404085004070B4144A00234FF4F6
:10084000007C5160124901224FF0E0244A60A0B1BF
:10085000104D2B60104E03253560104D2B60104B52
:10086000401E18601004C1F80403C1F80022C4F847
:1008700000C1CA600A6070BC7047C4F880C1BFF391
:100880004F8FBFF36F8F70BC7047000030000020A7
:1008900000900040049500400895004010950040ED
:1008A0004095004084B0FFF767FFFFF733FFFFF785
:1008B000DDFE01220D49104600F020F94FF47A7157
:1008C000012000F013F90A22022100F09FF802AA89
:1008D00001A9684600F04AF80028F8D09DF8000009
:1008E000022804BF0120FFF7ADFEF0E7F108000089
:1008F00070B50546401E042828BF70BD184CA0687E
:10090000401CA060402803D96068FFF7C7FEFEE7DF
:1009100094F90200401CC21700EB926222F03F02E1
:10092000801A104AC0B202EB001635707160FFF7F2
:10093000DBFE0021C6E9020194F90200401CC11748
:1009400000EB916121F03F01401AA070064850F879
:100950002510491C40F825100168491C016070BD34
:10096000100000204800002048040020F0B4104B84
:1009700006469C68E0B2002C04BFF0BC70470D4DE9
:1009800093F801C005EB0C152F7837706E680E6078
:10099000D5E90215C2E900150CF1010183F800C088
:1009A00001F03F015970611E9960F0BC7047000072
:1009B000100000204800002000EB8002114810B514
:1009C00000EB8202107C04283CBF0023184604D3AD
:1009D0000D484068FFF762FEFEE752F820C0BCF108
:1009E000000F08D142F8201092F810C001230CF13A
:1009F000010C82F810C0401C0428A8BF10BD002BB9
:100A0000EBD010BD5C0400201C0000202DE9F04755
:100A1000354CDFF8D0C04FEAD078237820F000477B
:100A2000002568B1042B58D2002630464FF001094A
:100A300000EB80031CF823A0BAF1000F44D135E08D
:100A40009CF81000884206D19CF8000018B18CF880
:100A50000050581E20709CF82400884207D19CF852
:100A6000140020B18CF814502078401E20709CF89F
:100A70003800884207D19CF8280020B18CF8285013
:100A80002078401E20709CF84C00884218BFBDE8BA
:100A9000F0879CF83C00002808BFBDE8F0878CF880
:100AA0003C502078401E2070BDE8F0870CF8239061
:100AB0000CEB83035F601974DA6083F801809D603A
:100AC00023785B1C23700126401C0428A8BFBDE8C6
:100AD000F087002EACD0BDE8F0876068FFF7DEFD40
:100AE000FEE70000C004002024000020020021F0E6
:100AF000004018BF40F000407047000070B5194B2F
:100B0000002415461C70C3E901015A7016490120E2
:100B1000FFF752FF15482A46154904704460447097
:100B20000474C460846004758461447580F8244052
:100B30000462C46180F82840C46280F8294080F8CB
:100B400038404463046380F83C40046480F83D40CE
:100B500080F84C4084644464BDE870400120FFF795
:100B6000E1BD000024000020750B0000C00400203F
:100B70002D0600002DE9F0470025144EDFF85080C7
:100B8000A94600BF05EB850716F82700C8B106EB9C
:100B90008704A068401CA0606168814211D8D8F821
:100BA0000820207CE16890476078002818BFC4F8CE
:100BB000089006D106F8279098F80000401E88F8A3
:100BC00000006D1C042DDDDBBDE8F087C0040020B3
:100BD000240000200D0E0F101C1D1E1FFC0B00001A
:100BE00000000020440000000C060000400C000043
:100BF00044000020EC4400001C060000100000002F
:100C000000000000000000000000000000000000E4
:100C100000000000000000000200000000000000D2
:100C200000000000000000000000000000000000C4
:100C30000000000000000000000000000090D00351
:0400000500000201F4
:00000001FF
