:020000040000FA
:10000000F0460020150200001D0200001F02000043
:100010002102000023020000250200000000000071
:1000200000000000000000000000000027020000A7
:1000300029020000000000002B0200002D02000039
:100040002F0200002F0200002F0200002F020000EC
:100050002F0200002F020000210300002F020000E9
:1000600081050000B10500002F0200002F020000F2
:100070002F0200002F0200002F0200002F020000BC
:100080002F0200002F0200002F0200002F020000AC
:100090002F0200002F0200002F0200002F0200009C
:1000A0002F0200002F0200002F0200002F0200008C
:1000B0002F0200002F0200000000000000000000DE
:1000C0002F0200002F0200002F0200002F0200006C
:1000D0002F0200002F0200002F0200002F0200005C
:1000E0002F0200002F0200002F020000000000007D
:1000F000000000002F020000000000002F0200009E
:1001000000000000000000000000000000000000EF
:1001100000000000000000000000000000000000DF
:1001200000000000000000000000000000000000CF
:1001300000000000000000000000000000000000BF
:1001400000000000000000000000000000000000AF
:10015000000000000000000000000000000000009F
:10016000000000000000000000000000000000008F
:10017000000000000000000000000000000000007F
:10018000000000000000000000000000000000006F
:10019000000000000000000000000000000000005F
:1001A000000000000000000000000000000000004F
:1001B000000000000000000000000000000000003F
:1001C000000000000000000000000000000000002F
:1001D000000000000000000000000000000000001F
:1001E000000000000000000000000000000000000F
:1001F00000000000000000000000000000000000FF
:10020000DFF80CD000F07AF8004800476B0E0000D1
:10021000F04600200648804706480047FEE7FEE714
:10022000FEE7FEE7FEE7FEE7FEE7FEE7FEE7FEE7A6
:1002300061030000010200002DE9F05F0546002087
:1002400092469B4688460646814640241BE0284647
:1002500041464746224600F041F853465A46C01AE6
:10026000914110D311461846224600F028F82D1A65
:1002700067EB01084F4622460120002100F01FF8DD
:1002800017EB00094E41201EA4F10104DFDC4846B3
:1002900031462A464346BDE8F09F40EA01039B07EA
:1002A00003D009E008C9121F08C0042AFAD203E0EB
:1002B00011F8013B00F8013B521EF9D27047202A89
:1002C00004DB203A00FA02F1002070479140C2F1AD
:1002D000200320FA03F3194390407047202A04DBDF
:1002E000203A21FA02F00021704721FA02F3D040AF
:1002F000C2F120029140084319467047064C074D51
:1003000006E0E06840F0010394E8070098471034E5
:10031000AC42F6D3FFF778FFA0190000C019000027
:1003200010B500240DE0084850F8240040B1002129
:10033000054840F82410054951F8240000F050FB0E
:10034000641C082CEFD310BD00610040D0060020D3
:1003500001480249086070470090D003080100205E
:1003600010B500F037FE40B10020774908604FF02B
:100370008041C1F810017549086000F04DFE002869
:1003800055D073480068734908607148001D0068C3
:10039000091D08606E4808300068091D08606C4837
:1003A0000C300068091D0860694810300068091D9C
:1003B0000860674814300068091D086064481830F8
:1003C000006864492031086061481C300068091DDC
:1003D00008605F4820300068091D08605C482430D0
:1003E0000068091D08605A4828300068091D086027
:1003F00057482C300068091D0860554830300068A7
:10040000544940310860524834300068091D086082
:100410004F4838300068091D08604D483C3000687E
:10042000091D08604A4840300068091D086000F056
:1004300015FE10B148484949086000F043FD10B16D
:10044000FB204749086000F05FFD38B1454801785E
:100450004548006861F303004349086000F076FDF9
:1004600018B14FF400704149086000F091FD40B1AF
:100470003F48006800F0010018B16FF001003C49EE
:1004800008603C48006840F470003A49086000BFCA
:1004900000BF00BFBFF34F8F00BF00BF00BF00BF52
:1004A00000BF00BFBFF36F8F00BF00BF00BF00BF22
:1004B00000F0E6FC20B13048006824492031086093
:1004C00000BF2D480838006800F0004028B92A48CD
:1004D000001F006800F0004090B3012000F0E0FD34
:1004E000122025490839086000F0E4FD12214FF080
:1004F0001020C0F8041200F0DDFD002000F0D0FD57
:1005000000BF00BF00BF00BF00BFBFF34F8F00BFE1
:1005100000BF00BF17487C38006800F4E06017494E
:100520000843001D13497C39086000BF00BF00BFAD
:10053000BFF34F8F00BF00BF00BF00BF00BFFDE78C
:10054000FFE7FFF705FF10BD0C0100403805004034
:100550000404001020C50040488103008C56004070
:1005600018F5004058020010E40E0040409602408A
:100570000004004088ED00E0081200100000FA05B9
:1005800008B50848006838B10020064908600648E8
:10059000D0F84001009000BF04480068401C0349A7
:1005A000086008BD4081004000800040F800002045
:1005B00010B50648006840B10020044908600448AE
:1005C000006810B102480068804710BD40910040AB
:1005D000FC000020002809DB00F01F0201219140EF
:1005E0004209920002F1E022C2F80011704702E0D5
:1005F00008C8121F08C1002AFAD1704770470020AE
:1006000001E001C1121F002AFBD170470246002100
:1006100007E0064850F82100904201D1481C70477D
:10062000491C0429F5DB0020F9E700008C000020BC
:1006300010B50446204600F0A9FA08B9012010BD03
:100640000020FCE772B60448006803490968491CA9
:10065000014A116070470000B4000020044800689F
:10066000401E034908600846006800B962B670473A
:10067000B40000202DE9F04105460E46174611480A
:1006800000F060FA0020104908701048056000244E
:100690000BE00F4951F82400002100F0C5FA0C4985
:1006A00051F8240000F0D2FA641C042CF1D309495B
:1006B000304600F0E3FF0749042000F0DFFFBDE80B
:1006C000F0810000150A0000880000209C00002036
:1006D0008C000020D906000070B504460D462F4856
:1006E000007830B1012816D0022823D0032852D137
:1006F0003CE0022C0ED1284600F0C0F81421002066
:1007000001F0A6F806462A46042100F0F3FF012076
:100710002249087040E0042C0BD10521012001F092
:1007200097F806462A46042100F0E4FF02201B4900
:10073000087031E0042C18D100F02EFA691E184A16
:1007400052F82100FFF774FF60B91421002001F076
:100750007FF806462A46042100F0CCFF03200F490B
:10076000087002E002200D49087015E0042C11D138
:1007700000F012FA002605E0094951F8260000F0C1
:1007800065FA761C042EF7D3284600F053F80020B3
:100790000249087000E000BF00BF70BD8800002063
:1007A0008C00002010B5002403E0601C00F042F82B
:1007B000641C042CF9DB00F071F910BD10B5114870
:1007C000006860B11048006848B10F4800680D49E2
:1007D0000968884203D80C48006800F06FF800F000
:1007E00065F90848006860B10748006848B10648E4
:1007F000006804490968884203D80348006800F08B
:100800006FF810BD400000204400002070B5044681
:100810000D46054804600548056000F05FF804498E
:10082000086000F045F970BD440000204800002039
:100830004000002010B50446042C07D834B1611ED6
:10084000034A505C4FF0FF3100F0CAF910BD0000C0
:100850009819000070B50446042C0CD85CB1611ED8
:10086000054A505C00F0D2F9C543611E024A505C53
:10087000294600F0B5F970BD9819000010B504467E
:10088000042C06D82CB1611E024A505C002100F0F5
:10089000A7F910BD9819000010B5002408E006491A
:1008A000085D012100F0C0F9601CFFF7C3FF641C64
:1008B000042CF4D3042010BD9819000010B5044690
:1008C000042C07D834B1611E034A505C6FF001015B
:1008D00000F086F910BD00009C190000042070474C
:1008E00010B50446042C06D82CB1611E024A505C97
:1008F000012100F075F910BD9C19000070B50024AD
:1009000000F00AF805464FF47A720023FFF794FCD2
:100910000446204670BD00002DE9F04100F006FAC3
:1009200006460F4600210C460D460848006840B1B7
:1009300006480268002330463946FFF77DFC04462E
:100940000D4620462946BDE8F08100000000002049
:1009500010B500F003FA0149086010BD0000002046
:100960002DE9F04104460D4616460948066009483F
:1009700005600949096804FB01F04FF47A7100FB36
:1009800001F70649384600F017FABDE8F08100008B
:100990000C0000200800002004000020F5090000E1
:1009A000002006E0054951F82010491C01B97047A4
:1009B000401C0828F6DB4FF0FF30F8E7D006002097
:1009C0000246002106E00548405C904201D101202A
:1009D0007047491C0129F6DB0020F9E7A000002040
:1009E00010B5044621460220014A1268904710BD06
:1009F0000001002010B5FFF781FF0446214603489F
:100A00000068034A1268904710BD00000C000020E7
:100A10000800002070B506460D46002405E009498F
:100A200051F8240000F046F8641C042CF7DB28463B
:100A3000FFF7ECFD044621463046034A1268904712
:100A400070BD00008C0000209C00002010B5FFF756
:100A5000F9FD034803490860FFF700FE10BD0000E0
:100A60003546526E0006014010B50446E0030949C0
:100A700008600120074908310860081F006840F03D
:100A80000100091F0860012003490860FFF7DEFF2D
:100A900010BD000004050140000001400120024992
:100AA000086000E020BFFDE70005004030BF704750
:100AB0007047000030B50246002036E01C4951F86E
:100AC0002010914230D1012181401A4B196000233E
:100AD000194941F82030591E154B43F82010174989
:100AE0000968491E154B196019460968E1B90621C4
:100AF000002917DB01F01F040123A340104C4D090E
:100B000044F8253000BF00BF00BFBFF34F8F00BFC8
:100B100000BF00BF00BF00BF00BFBFF36F8F00BFAB
:100B200000BF00BF00BF00BF401C0828C6DB30BDAF
:100B3000D00600200863004010650040040100203A
:100B400080E100E001460C48016000200B4A106083
:100B500000BF0DE000230A4A42F820300122824003
:100B6000084B1A604FF0FF32074B43F82020401C1F
:100B70000828EFDB7047000000010020040100207E
:100B80001065004008630040D006002010B5044600
:100B9000204600F03BF810BD00200C49086000BF63
:100BA00010E000220A4941F820200A4941F820209B
:100BB00001218140084A11604FF0FF31074A42F895
:100BC0002010401C0828ECDB7047000004010020C6
:100BD000006100401065004008630040D00600201E
:100BE000012303FA00F201F0010313B9034B1A6069
:100BF00002E0024B1B1F1A60704700000C050050FA
:100C0000002001490860704714050050014601208A
:100C100000FA01F203480068104008B10120704753
:100C20000020FCE71005005021B9064B064A42F8A7
:100C3000203005E0012903D10123034A42F8203086
:100C4000704700000C0003000007005010B502467A
:100C5000002006E0194951F82010914200D110BD42
:100C6000401C0828F6DB16480068082823D2FFF746
:100C700097FE0346134840EA0221134840F8231028
:100C800001209840114908600620002809DB00F087
:100C90001F040121A1404409A40004F1E024C4F888
:100CA000001100BF054840F8232005480068401C9B
:100CB0000349086000BF00BFD1E70000D006002054
:100CC00004010020010002001065004004630040A0
:100CD00010B50246914201DC104610BD00BF094824
:100CE00000680028FBD00020064C20600648006801
:100CF000C3B2881A401C93FBF0F400FB143010447C
:100D0000C0B2EAE700D1004008D500400121044A02
:100D100011600021034A11600121034A11607047EC
:100D200004D5004000D1004000D0004030B5012083
:100D300007490864801E07490968A0FB015006495D
:100D400009686A1840F100031046194630BD0000DA
:100D500000800040F80000204085004010B50020D1
:100D600011490860012011494860002010490860BD
:100D70000320091D086000200D490C310860401E49
:100D80000B493C3108604FF480300A49086001206B
:100D90000649C1F800020820FFF71CFC01200349A6
:100DA000C8600860102010BDF800002000800040DE
:100DB000048500400483004070B504460D46224877
:100DC000056004B3012021494860002020490860E3
:100DD0000320091D086000201D490C310860601EB9
:100DE0001B493C3108604FF480301A4908600120EB
:100DF0001649C1F800020920FFF7ECFB0120134956
:100E0000C86008601FE001201049486009200028E0
:100E100017DB00F01F02012191400F4A430942F8FD
:100E2000231000BF00BF00BFBFF34F8F00BF00BF44
:100E300000BF00BF00BF00BFBFF36F8F00BF00BF88
:100E400000BF00BF00BF70BDFC000020009000404C
:100E5000049500400493004080E100E070B5054631
:100E60000C462046FFF7F6FC70BD10B5FFF7C8FE34
:100E7000FFF76EFDFFF710FD00F098FA002010BD9F
:100E80000F4802684FF08050D0F83411082A14D16E
:100E9000062910D2DFE801F0030507090B0D002039
:100EA00070470020FCE70020FAE70020F8E7002068
:100EB000F6E70120F4E70120F2E70020F0E7000068
:100EC000300100100F4802684FF08050D0F8341104
:100ED000082A14D1062910D2DFE801F0030507091A
:100EE0000B0D012070470020FCE70020FAE70020EE
:100EF000F8E70020F6E70020F4E70020F2E7002002
:100F0000F0E70000300100100F4802684FF08050F9
:100F1000D0F83411082A14D1062910D2DFE801F0E4
:100F2000030507090B0D012070470020FCE7002096
:100F3000FAE70020F8E70020F6E70020F4E70020B9
:100F4000F2E70020F0E70000300100100F480268CF
:100F50004FF08050D0F83411082A14D1062910D24D
:100F6000DFE801F0030507090B0D012070470020A1
:100F7000FCE70020FAE70020F8E70020F6E7002071
:100F8000F4E70020F2E70020F0E700003001001055
:100F90000F4802684FF08050D0F83411082A14D15D
:100FA000062910D2DFE801F0030507090B0D012027
:100FB00070470120FCE70120FAE70120F8E7012053
:100FC000F6E70120F4E70120F2E70020F0E7000057
:100FD000300100100F4802684FF08050D0F83411F3
:100FE000082A14D1062910D2DFE801F00305070909
:100FF0000B0D012070470120FCE70120FAE70120DA
:10100000F8E70120F6E70120F4E70120F2E70020ED
:10101000F0E70000300100100F4802684FF08050E8
:10102000D0F83411082A14D1062910D2DFE801F0D3
:10103000030507090B0D012070470120FCE7012083
:10104000FAE70120F8E70120F6E70120F4E70120A4
:10105000F2E70020F0E70000300100100F480268BE
:101060004FF08050D0F83411082A14D1062910D23C
:10107000DFE801F0030507090B0D01207047002090
:10108000FCE70020FAE70020F8E70020F6E7002060
:10109000F4E70020F2E70020F0E700003001001044
:1010A00000B501460248016000F004F800BD0000F0
:1010B00004E5014000BF024800680028FBD07047EB
:1010C00000E4014070B505460E460020074908704F
:1010D0000120074908600A21002000F0B9FB0446FE
:1010E0000022052100F006FB70BD0000E800002092
:1010F000EC00002070B504460E46FFF7A3FA0C2C56
:1011000046DA002C44DD24480068401C224908606F
:1011100008460068402805D920480068FFF7E0FB32
:1011200000BFFEE7FFF792FC1D4991F90010481C33
:10113000C11700EB91618911A0EB8111CDB2194863
:1011400000EB05100470174800EB05104660FFF730
:10115000E3FB0021134A02EB0512C2E90201104928
:1011600091F90010481CC11700EB91618911A0EBA7
:10117000811149B20A4A11700B4850F82400401CF2
:10118000094941F8240008460068401C086000BF77
:10119000FFF764FA70BD00005400002050000020EA
:1011A0004D00002010010020100500202DE9F04125
:1011B00004460D461646FFF745FA184807780068BA
:1011C00030B317481749097800EB011000782070F8
:1011D00013481449097800EB011040682860104852
:1011E0001049097800EB0110C1688068C6E9000168
:1011F0000C490978481CC11700EB91618911A0EBDB
:101200008111084A117005480068401E03490860B2
:10121000FFF724FA3846BDE8F081000054000020B2
:10122000100100204C00002010B5044600200C499D
:101230000870FF200B49087000200B49086000BFB0
:1012400005E00021094A42F82010411CC8B20C28D0
:10125000F7DB074804600068FFF730FB10BD0000B3
:101260004C0000204D0000205400002010050020FC
:101270005000002070B5044611480460002014E0BE
:10128000002100EB80020F4B03EB8202117400BFC0
:1012900008E0002200EB80030A4D05EB830343F8CE
:1012A0002120491C0429F4DB401C0C28E8DB0649FA
:1012B000022000F0E3F90449032000F0DFF970BDDB
:1012C000A400002040050020391300001FB50A20AB
:1012D000FFF7CAFB44F62061002000F0B9FA04468B
:1012E0000022032100F006FA23E06A4602A903A8BF
:1012F000FFF75CFFD8B1002416E09DF80C0000EB6E
:1013000080000C4901EB800050F8240058B19DF892
:101310000C0000EB800001EB800050F824209DF8C9
:101320000C0002999047641C042C02DAE5E7FFF7F1
:1013300045FADAE74005002070B504460E4620461F
:10134000FFF73EFB50B144F62061002000F080FA28
:1013500005460022032100F0CDF903E0032C01D162
:10136000FFF720FA70BD70B506460C46022C12D26B
:10137000012503E02846FFF76DFA6D1C042DF9DD09
:101380004FF4FA71002000F063FA0546621C062152
:1013900000F0B0F908E00A21002000F059FA0546F3
:1013A0000022082100F0A6F970BD000010B504214C
:1013B0000320FFF72BFA0220FFF736FF0120FFF78B
:1013C00059FFFFF79BFA0446FFF7A0FC01221B49D7
:1013D000104600F045FA042202211848FFF74AF9A6
:1013E00017490B2000F04AF91649062000F046F98B
:1013F00015490A2000F042F91449092000F03EF98D
:101400001349022000F03AF91149082000F036F99A
:101410000F49052000F032F96421002000F018FA8D
:1014200004460022052100F065F9002009490870F2
:10143000012009490860FFF749FF10BDF5100000C1
:10144000C5100000671300009D1400005D1400002B
:10145000F9140000E8000020EC00002070B50646FA
:101460000C46082C0FD2012000EB54010020FFF79E
:10147000F5FCFA21002000F0EBF90546621C092179
:1014800000F038F908E0FA21002000F0E1F9054603
:101490000022082100F02EF970BD000070B506464C
:1014A0000C4612480068B4EB400F1DD26008104A89
:1014B00052F820100020FFF7D1FC0E48006800EB26
:1014C00080008100002000F0C3F90546621C0A215B
:1014D00000F010F941F28831002000F0B9F905461A
:1014E00000220B2100F006F970BD0000EC00002086
:1014F00080060020F400002070B504460E465A48CD
:10150000007805287DD2DFE800F003293A809A00B0
:10151000052C22D1002507E004210120FFF7D8FB8C
:10152000524941F825006D1C142DF5DB012503E01F
:101530002846FFF77FF96D1C042DF9DD14204C4976
:1015400008600A21002000F083F9054600220921E5
:1015500000F0D0F801204449087083E0082C0DD138
:101560000020444908600A2100F072F90546002273
:101570000A2100F0BFF802203B49087072E0022CFB
:1015800042D13A483B49096850F82100B04224D181
:1015900041F28831002000F05BF9054600220B2162
:1015A00000F0A8F83448016832480068401C8142C5
:1015B0000DD103202C4908704FF47A71002000F0FF
:1015C00047F905460022082100F094F81CE029485C
:1015D0000068401C2749086016E004202249087072
:1015E0000021084600F034F9054600220B2100F0E6
:1015F00081F80A21002000F02BF90546002208217D
:1016000000E02EE000F076F82CE0082C16D11A4805
:101610000068401C184908600120134908701448EC
:101620000068401E124908604FF47A71002000F0F3
:101630000FF905460022062100F05CF812E0082CA4
:101640000ED101200C4908600020074908704FF4B2
:101650007A7100F0FDF805460022052100F04AF8F5
:1016600000E000BF00BF70BDE80000208006002041
:10167000F4000020F0000020EC00002070B50446CB
:101680000D4604EB8400194901EB8000007C04281E
:1016900005DB17480068FFF723F900BFFEE7FFF7F7
:1016A000D5F9002600201BE004EB84010F4A02EB71
:1016B000810151F8201091B904EB840102EB810102
:1016C00041F82050012604EB840102EB8101097CE2
:1016D000491C04EB8402054B03EB82021174401C8D
:1016E000042801DA002EDFD000BF70BD40050020C5
:1016F000A40000202DE9F04705460E4690460C2E2A
:101700007EDAFEF79FFF4FEAD57A25F000490024E4
:10171000002710E004EB84004A4911F8200040B192
:1017200004EB840001EB8000407AB04201D1012734
:1017300001E0601CC4B21FB9434800688442E9D389
:10174000FEF78CFF042C6EDAA5B3FFF77FF9FEF7E6
:1017500079FF012004EB84013A4A02F8210004EBEE
:101760008400114601EB8000C0F8049004EB840172
:1017700002EB810181F808A004EB8400114601EB23
:101780008000467204EB840001EB8000C0F80C80FE
:10179000FFF7B4F8484404EB84012A4A02EB8101C4
:1017A000086127B928480068401C27490860FEF7EF
:1017B00055FF3EE0FFE777B3FFF748F9FEF742FF3A
:1017C000002004EB84011F4A02F821000EE0621C95
:1017D00002EB82021B4B03EB820104EB840203EB5E
:1017E00082001422FEF759FD601CC4B2164800683E
:1017F000401EA042EBD8002004EB8401114A00E017
:1018000018E002F8210010480068401E0E490860E8
:10181000FEF724FF0DE000E005E00C480068FFF74C
:101820005FF800BFFEE709480068FFF759F800BFFE
:10183000FEE705E005480068FFF752F800BFFEE745
:10184000BDE8F08730060020B0000020A80000208E
:10185000024621F000400AB140F00040704700000D
:1018600070B504460D4616460F493046FFF706FF91
:101870000E480560002006E0002100EB80020C4BC2
:1018800003F82210401C0428F6DB002009490860F8
:10189000094804602046FFF711F832462946012026
:1018A000FFF75EF870BD0000BD180000AC0000201E
:1018B00030060020B0000020A80000202DE9F041F3
:1018C00007460E46FEF7BEFE002457E004EB8400F8
:1018D0002E4911F8200000284FD004EB840001EBC2
:1018E00080000069B04248D804EB84020B4603EB49
:1018F0008202D16804EB840203EB8202507A244A0C
:101900001268904704EB8400204901EB8000007AC4
:1019100060B104EB840001EB80004068304404EBCC
:1019200084011A4A02EB8101086126E0002004EBE1
:101930008401164A02F8210025460DE06A1C02EBDC
:101940008202124B03EB820105EB850203EB82005E
:101950001422FEF7A2FC6D1C0E480068401EA8422F
:10196000ECD8002005EB8501084A02F8210009485F
:101970000068401E07490860641E641C0548006832
:101980008442A3D3FEF76AFEBDE8F0813006002052
:10199000AC000020B00000200D0E0F101C1D1E1FFB
:1019A000C0190000000000200C010000EE0500003E
:1019B000CC1A00000C010020E4450000FE050000E8
:1019C0000000000010000000000000000000000007
:1019D00001000000020000000300000004000000FD
:1019E00003000000020000000100000002000000EF
:1019F00003000000040000000300000002000000DB
:101A000000000000000000000000000000000000D6
:101A100000000000000000000100000002000000C3
:101A200003000000040000000300000002000000AA
:101A3000010000000200000003000000040000009C
:101A40000300000002000000000000000B00000086
:101A50000C00000018000000190000000000000049
:101A60000200000000000000000000000000000074
:101A70000000000000000000010000000200000063
:101A8000030000000400000003000000020000004A
:101A9000010000000200000003000000040000003C
:101AA0000300000002000000000000000000000031
:101AB0000000000000000000000000000000000026
:0C1AC00000000000000000000090D003B7
:0400000500000201F4
:00000001FF
