:020000040000FA
:10000000B8440020150200001D0200001F0200007D
:100010002102000023020000250200000000000071
:1000200000000000000000000000000027020000A7
:1000300029020000000000002B0200002D02000039
:100040002F0200002F0200002F0200002F020000EC
:100050002F0200002F020000FD0200002F0200000E
:100060009D050000C90500002F0200002F020000BE
:100070002F0200002F0200002F0200002F020000BC
:100080002F0200002F0200002F0200002F020000AC
:100090002F0200002F0200002F0200002F0200009C
:1000A0002F0200002F0200002F0200002F0200008C
:1000B0002F0200002F0200000000000000000000DE
:1000C0002F0200002F0200002F0200002F0200006C
:1000D0002F0200002F0200002F0200002F0200005C
:1000E0002F0200002F0200002F020000000000007D
:1000F000000000002F020000000000002F0200009E
:1001000000000000000000000000000000000000EF
:1001100000000000000000000000000000000000DF
:1001200000000000000000000000000000000000CF
:1001300000000000000000000000000000000000BF
:1001400000000000000000000000000000000000AF
:10015000000000000000000000000000000000009F
:10016000000000000000000000000000000000008F
:10017000000000000000000000000000000000007F
:10018000000000000000000000000000000000006F
:10019000000000000000000000000000000000005F
:1001A000000000000000000000000000000000004F
:1001B000000000000000000000000000000000003F
:1001C000000000000000000000000000000000002F
:1001D000000000000000000000000000000000001F
:1001E000000000000000000000000000000000000F
:1001F00000000000000000000000000000000000FF
:10020000DFF80CD000F068F800480047B1070000A4
:10021000B84400200648804706480047FEE7FEE74E
:10022000FEE7FEE7FEE7FEE7FEE7FEE7FEE7FEE7A6
:100230001D030000010200002DE9F05F05460020CB
:1002400092469B4688460646814640241BE0284647
:1002500041464746224600F02FF853465A46C01AF8
:10026000914110D311461846224600F016F82D1A77
:1002700067EB01084F4622460120002100F00DF8EF
:1002800017EB00094E41201EA4F10104DFDC4846B3
:1002900031462A464346BDE8F09F202A04DB203A37
:1002A00000FA02F1002070479140C2F1200320FAC9
:1002B00003F3194390407047202A04DB203A21FAC7
:1002C00002F00021704721FA02F3D040C2F120026F
:1002D0009140084319467047064C074D06E0E06818
:1002E00040F0010394E8070098471034AC42F6D37D
:1002F000FFF78AFF280A0000480A0000064882B07B
:100300000021C0F80C11D0F80C010090032102204C
:1003100002B000F069BA00000060004010B44FF075
:1003200080520023D2E94C10082909D14FF0804CAB
:10033000CCF80C31CCF81031DFF8D4C1CCF8003057
:10034000082965D1734B1B68DFF8CCC1CCF80030AD
:10035000724B1B680CF1040CCCF80030704B1B681E
:100360000CF1040CCCF800306E4B1B680CF1040C43
:10037000CCF800306C4B1B680CF1040CCCF800304E
:100380006A4B1B680CF1040CCCF80030684B1B68FE
:10039000DFF8A0C1CCF80030674B1B680CF1040CEF
:1003A000CCF80030654B1B680CF1040CCCF8003025
:1003B000634B1B680CF1040CCCF80030614B1B68DC
:1003C0000CF1040CCCF800305F4B1B680CF1040CF2
:1003D000CCF800305D4B1B68DFF874C1CCF80030FE
:1003E0005C4B1B680CF1040CCCF800305A4B1B68BA
:1003F0000CF1040CCCF80030584B1B680CF1040CC9
:10040000CCF80030564B1B680CF1040CCCF80030D3
:10041000082908BF5FEA000304D1DFF84CC1514B43
:10042000CCF80030082908BF5FEA000304D1DFF8E8
:100430003CC1FB23CCF80030082908BF5FEA000369
:1004400008D14B4B92F85842D3F800C064F3030C28
:10045000C3F800C0082908BF5FEA000305D1DFF830
:1004600014C14FF40073CCF80030082907D142487A
:10047000016811F0010F1CBF6FF0010101603F48DE
:10048000016841F470010160BFF34F8FBFF36F8FBC
:10049000D2E94C104FF01022082905D1042803D9C5
:1004A000D2F8080236490860D2F8000210F0004F76
:1004B00004BFD2F8040210F0004F24D0314B0120C9
:1004C0001860314801680029FCD04FF0120CC2F8C6
:1004D00000C201680029FCD0C2F804C201680029EA
:1004E000FCD00021196001680029FCD0BFF34F8FB8
:1004F00026480168264A01F4E06111430160BFF318
:100500004F8F00BFFDE724492248086010BC7047A8
:10051000380500400404001020C500400804001005
:100520000C04001010040010140400101804001033
:100530001C04001040C500402004001024040010DA
:10054000280400102C0400103004001034040010A3
:1005500060C50040380400103C0400104004001046
:1005600044040010488103008C56004018F50040F8
:10057000E40E0040409602400004004088ED00E098
:100580005805004004E5014000E401400CED00E0A6
:100590000400FA050090D00338000020084881B01C
:1005A000D0F8401129B10021C0F84011D0F8400125
:1005B000009004480168491C016001B070470000C8
:1005C00000800040300000200748D0F8401100298A
:1005D00008BF70470021C0F8401104484068002857
:1005E00008BF704700470000009000403000002026
:1005F00002E008C8121F08C1002AFAD170477047EC
:10060000002001E001C1121F002AFBD1704700F059
:1006100063B8000010B5054C6060A16000F02EF8D2
:100620002060BDE8104000F05FB80000100000201E
:1006300070B50A4D00240121285D00F06BF8601CA4
:10064000032C06D828444FF0FF3110F8010C00F0BD
:100650004DF8641C042CEED3042070BD200A000069
:10066000411E032988BF7047034908446FF0010108
:1006700010F8010C00F03AB8240A0000042070477A
:10068000411E032988BF704703490844012110F81F
:10069000010C00F02BB80000240A000010B500F097
:1006A00045F8084A84460C46002053680146002B52
:1006B00008BF10BD5268002360462146FFF7BCFD0D
:1006C00010BD00000000002010B500F045F8014901
:1006D000486010BD0000002002490120086020BFD2
:1006E000FDE700000005004070470000012202FA0B
:1006F00000F011F0010F0CBF01490249086070477A
:100700000C050050080500500149002008607047A2
:1007100014050050800000F1A04000290ABF0249E2
:100720000129C0F8001770470C0003000749012099
:100730000864074800684FF0FF31A0FB012305481B
:100740000068101843F1000170470000008000406D
:1007500030000020408500400F48002202600F4812
:10076000012141600E4B1A60DFF838C00323CCF83A
:1007700000300D4B1A600D4B8A1E1A600A04C0F837
:100780000423C0F800124FF0E0238215C3F80021C3
:10079000C1600160102070473000002000800040E0
:1007A00004850040088500401085004040850040D9
:1007B00010B5FFF7A9FFFFF787FF00211820FFF70B
:1007C000A9FFFFF735FF1C2000F072F800F014F9C4
:1007D0001D211C20FFF71EFF1E2000F07DF800F0F9
:1007E000DDF8002010BD000070B50546401E04284D
:1007F00028BF70BD184CA068401CA060402803D9D9
:100800006068FFF73DFFFEE794F90100401CC21746
:1008100000EB926222F03F02801A104AC0B202EB53
:10082000001635707160FFF739FF0021C6E902013B
:1008300094F90100401CC11700EB916121F03F01C8
:10084000401A6070064850F82510491C40F82510E1
:100850000168491C016070BD1C00002040000020A0
:1008600040040020F0B4104B0546D3F808C00CF04B
:10087000FF00BCF1000F04BFF0BC70470B4C1E78AA
:1008800004EB061427782F7065680D60D4E9021414
:10089000C2E90014711C01F03F011970ACF10101B3
:1008A0009960F0BC704700001C0000204000002050
:1008B00007490022FF230A704B70064B8A601A60BA
:1008C0005A609A60DA601A614860FFF7C9BE00009A
:1008D0001C0000204004002070B52D492D4A2E4CEC
:1008E000486000211174116051609160D16082F8FC
:1008F000241051619161D161116282F838109162C6
:10090000D1621163516382F84C10D1631164516458
:10091000916482F8601011655165916502238C46DF
:10092000D16503EB8303614602EB830353F8215047
:1009300035B943F821401D7C4FF0010C6D1C1D742E
:10094000491C042902DABCF1000FEFD0114B03213E
:10095000DFF844C093F84C30042B02D3FFF790FE2D
:10096000FEE7002301EB8101184602EB810100BF85
:1009700051F820202AB941F820C00A7C0123521CDA
:100980000A74401C0428A8BF70BD002BF0D070BDB5
:100990002800002054040020E10900000F4D86B01B
:1009A00004AA694602A8FFF75DFF002818BF0024CB
:1009B00010D000BF9DF8080000EB800105EB81011D
:1009C00051F82420002A1CBF00999047641C042C75
:1009D000F0DBE5E7FFF71BFEE2E700005404002030
:1009E00004490978814208BF7047032818BF70473F
:1009F000FFF70DBE28000020074906480860074998
:100A00000820C1F804034FF0E0214020C1F80001A4
:100A100070470000011803001C65004000600040A2
:100A20000D0E0F101C1D1E1F480A000000000020A4
:100A30003C000000F0050000840A00003C0000209B
:100A40007C440000000600001000000000000000D0
:100A50000000000000000000000000000000000096
:100A60000000000000000000000000000000000086
:100A70000200000000000000000000000000000074
:040A80000090D0030F
:0400000500000201F4
:00000001FF
