:020000040000FA
:10000000A8450020150200001D0200001F0200008C
:100010002102000023020000250200000000000071
:1000200000000000000000000000000027020000A7
:1000300029020000000000002B0200002D02000039
:100040002F0200002F0200002F0200002F020000EC
:100050002F0200002F020000FD0200002F0200000E
:10006000B9050000E50500002F0200002F02000086
:100070002F0200002F0200002F0200002F020000BC
:100080002F0200002F0200002F0200002F020000AC
:100090002F0200002F0200002F0200002F0200009C
:1000A0002F0200002F0200002F0200002F0200008C
:1000B0002F0200002F0200000000000000000000DE
:1000C0002F0200002F0200002F0200002F0200006C
:1000D0002F0200002F0200002F0200002F0200005C
:1000E0002F0200002F0200002F020000000000007D
:1000F000000000002F020000000000002F0200009E
:1001000000000000000000000000000000000000EF
:1001100000000000000000000000000000000000DF
:1001200000000000000000000000000000000000CF
:1001300000000000000000000000000000000000BF
:1001400000000000000000000000000000000000AF
:10015000000000000000000000000000000000009F
:10016000000000000000000000000000000000008F
:10017000000000000000000000000000000000007F
:10018000000000000000000000000000000000006F
:10019000000000000000000000000000000000005F
:1001A000000000000000000000000000000000004F
:1001B000000000000000000000000000000000003F
:1001C000000000000000000000000000000000002F
:1001D000000000000000000000000000000000001F
:1001E000000000000000000000000000000000000F
:1001F00000000000000000000000000000000000FF
:10020000DFF80CD000F068F800480047350F000018
:10021000A84500200648804706480047FEE7FEE75D
:10022000FEE7FEE7FEE7FEE7FEE7FEE7FEE7FEE7A6
:1002300039030000010200002DE9F05F05460020AF
:1002400092469B4688460646814640241BE0284647
:1002500041464746224600F02FF853465A46C01AF8
:10026000914110D311461846224600F016F82D1A77
:1002700067EB01084F4622460120002100F00DF8EF
:1002800017EB00094E41201EA4F10104DFDC4846B3
:1002900031462A464346BDE8F09F202A04DB203A37
:1002A00000FA02F1002070479140C2F1200320FAC9
:1002B00003F3194390407047202A04DB203A21FAC7
:1002C00002F00021704721FA02F3D040C2F120026F
:1002D0009140084319467047064C074D06E0E06818
:1002E00040F0010394E8070098471034AC42F6D37D
:1002F000FFF78AFF54150000741500002DE9F04146
:1003000000240B4D0B4E2746A00000F1804000F565
:10031000C040D0F8001131B1C0F80071326855F812
:10032000241002209047641C082CEDD3BDE8F08116
:10033000880500209800002010B44FF08052002360
:10034000D2E94C10082909D14FF0804CCCF80C317F
:10035000CCF81031DFF8D4C1CCF80030082965D1D1
:10036000734B1B68DFF8CCC1CCF80030724B1B68B4
:100370000CF1040CCCF80030704B1B680CF1040C31
:10038000CCF800306E4B1B680CF1040CCCF800303C
:100390006C4B1B680CF1040CCCF800306A4B1B68EA
:1003A0000CF1040CCCF80030684B1B68DFF8A0C1DE
:1003B000CCF80030674B1B680CF1040CCCF8003013
:1003C000654B1B680CF1040CCCF80030634B1B68C8
:1003D0000CF1040CCCF80030614B1B680CF1040CE0
:1003E000CCF800305F4B1B680CF1040CCCF80030EB
:1003F0005D4B1B68DFF874C1CCF800305C4B1B68A8
:100400000CF1040CCCF800305A4B1B680CF1040CB6
:10041000CCF80030584B1B680CF1040CCCF80030C1
:10042000564B1B680CF1040CCCF80030082908BFAF
:100430005FEA000304D1DFF84CC1514BCCF8003027
:10044000082908BF5FEA000304D1DFF83CC1FB23A1
:10045000CCF80030082908BF5FEA000308D14B4BF5
:1004600092F85842D3F800C064F3030CC3F800C0FC
:10047000082908BF5FEA000305D1DFF814C14FF473
:100480000073CCF80030082907D14248016811F008
:10049000010F1CBF6FF0010101603F48016841F48A
:1004A00070010160BFF34F8FBFF36F8FD2E94C1023
:1004B0004FF01022082905D1042803D9D2F80802E8
:1004C00036490860D2F8000210F0004F04BFD2F89D
:1004D000040210F0004F24D0314B01201860314845
:1004E00001680029FCD04FF0120CC2F800C201686C
:1004F0000029FCD0C2F804C201680029FCD0002108
:10050000196001680029FCD0BFF34F8F26480168AD
:10051000264A01F4E06111430160BFF34F8F00BF31
:10052000FDE724492248086010BC704738050040A8
:100530000404001020C50040080400100C04001042
:100540001004001014040010180400101C04001003
:1005500040C50040200400102404001028040010AE
:100560002C040010300400103404001060C500405A
:10057000380400103C040010400400104404001033
:10058000488103008C56004018F50040E40E0040FE
:10059000409602400004004088ED00E0580500400D
:1005A00004E5014000E401400CED00E00400FA0520
:1005B0000090D003A0000020084881B0D0F840117E
:1005C00029B10021C0F84011D0F840010090044842
:1005D0000168491C016001B07047000000800040C4
:1005E000900000200748D0F84011002908BF70474C
:1005F0000021C0F8401104484068002808BF704737
:1006000000470000009000409000002002E008C871
:10061000121F08C1002AFAD170477047002001E07C
:1006200001C1121F002AFBD170470000034908686E
:1006300000B972B6421C0A607047000054000020E6
:1006400003490868401E086018BF704762B67047CB
:100650005400002070B504460E46104800F00EFA13
:100660000F48002100F10805017044600C4600BFEE
:1006700055F82400002100F0F7FA55F8240000F0A6
:10068000FFFA641C042CF3D30649304600F09AFDAF
:10069000BDE870400349042000F094BD3909000012
:1006A00028000020A90600002DE9F041304E0F4639
:1006B00001243178F1B1022401292DD04FF0000836
:1006C00006F10805022936D003290CBF0428BDE82D
:1006D000F08100F037FA002455F8240000F0D0FA39
:1006E000641C042CF8D3384600F082F886F80080A9
:1006F000BDE8F081022818BFBDE8F081384600F05F
:1007000085F81421002000F039FE3A46042100F05B
:1007100081FD3470BDE8F081042818BFBDE8F08188
:100720000521012000F02AFE3A46042100F072FD66
:100730003470BDE8F081042818BFBDE8F08100F0F6
:1007400001FA05EB870050F8040C00F0F9F90028D5
:1007500004BF3470BDE8F0811421002000F00EFECB
:100760003A46042100F056FD03203070BDE8F081C8
:100770002800002010B50024601C00F039F8641C2B
:10078000042CF9DBBDE8104000F032B910B5104C74
:10079000206800281CBF6068002806D060682168B7
:1007A00088429CBF606800F057F800F029F9206883
:1007B00000281ABF6068002810BD60682168884260
:1007C00088BF10BD6068BDE8104000F055B800005B
:1007D0001000002010B5054C6060A16000F04AF8E0
:1007E0002060BDE8104000F00DB9000010000020AE
:1007F000411E032988BF7047034908444FF0FF3169
:1008000010F8010C00F010BA4C150000411E03292D
:1008100088BF704703490844002110F8010C00F01C
:1008200003BA00004C15000070B50A4D00240121E8
:10083000285D00F019FA601C032C06D828444FF0FC
:10084000FF3110F8010C00F0EFF9641C042CEED31A
:10085000042070BD4C150000411E032988BF70475D
:10086000034908446FF0010110F8010C00F0DCB9F5
:100870005015000004207047411E032988BF7047AF
:1008800003490844012110F8010C00F0CDB9000023
:100890005015000010B500F06DFA094A84460C4668
:1008A0000020536801462BB1526800236046214660
:1008B000FFF7C2FC4FF47A720023FFF7BDFC10BDB6
:1008C0000000002010B500F055FA084A84460C4696
:1008D000002053680146002B08BF10BD526800235A
:1008E00060462146FFF7A8FC10BD00000000002074
:1008F00010B500F055FA0149486010BD0000002015
:10090000054BDA609960196848434FF47A7148439F
:10091000024900F071BA0000000000202109000027
:1009200010B5FFF7B7FF034A0146D0689268BDE8EB
:1009300010401047000000202DE9F041124C0E46F7
:100940000746002554F8250000F05EF86D1C042DC4
:10095000F8DB2068B04208BF01210ED06068B042C9
:1009600008BF022109D0A068B04208BF032104D00B
:10097000E068B0420CBF042100213846034A5268A7
:10098000BDE8F041104700003000002028000020A2
:1009900010B5FFF74BFE044902480860BDE810405F
:1009A000FFF74EBE3546526E000601400B4910B5AA
:1009B000C00308600A4901200860091F0A6842F064
:1009C00001020A6007490860FFF730FE0749064840
:1009D0000860BDE81040FFF733BE00000405014089
:1009E0000C050140000001403546526E00060140F2
:1009F00002490120086020BFFDE70000000500401B
:100A000030BF7047704700002DE9F0030021184AFD
:100A1000184E4F1E184B0C4601254FF040084FF062
:100A2000E02900BF52F821C084451AD105FA01FC23
:100A3000C6F808C34FEA810C0CF1804C0CF5C04C91
:100A4000CCF8104542F82170D3F804C0BCF1010C79
:100A5000C3F804C005D1C9F88081BFF34F8FBFF33D
:100A60006F8F491C0829DDDBBDE8F00370470000EB
:100A7000880500200060004098000020254908609B
:100A8000002048602449086024490122C1F8082355
:100A9000234BDFF890C0421E1A60CCF800004FF0E4
:100AA000020CC1F808C3DFF880C05A60CCF800001F
:100AB0004FF0040CC1F808C3DFF870C09A60CCF89E
:100AC00000004FF0080CC1F808C3DFF864C0DA601A
:100AD000CCF800004FF0100CC1F808C3DFF854C088
:100AE0001A61CCF800004FF0200CC1F808C3DFF801
:100AF00048C05A61CCF800004FF0400CC1F808C360
:100B0000DFF838C09A61CCF800008020C1F80803F3
:100B1000DA617047980000201065004000600040D6
:100B20008805002014650040186500401C650040E1
:100B30002065004024650040286500402C65004089
:100B400000F086B82D49002048602D49C1F8000109
:100B50002C4A10600122C1F808232B4A431E13605F
:100B6000C1F80401DFF8A4C0CCF800004FF0020C7B
:100B7000C1F808C35360C1F80801DFF894C0CCF88D
:100B800000004FF0040CC1F808C39360C1F80C01D9
:100B9000DFF880C0CCF800004FF0080CC1F808C3A3
:100BA000D360C1F81001DFF870C0CCF800004FF03E
:100BB000100CC1F808C31361C1F81401DFF85CC060
:100BC000CCF800004FF0200CC1F808C35361C1F805
:100BD0001801DFF84CC0CCF800004FF0400CC1F811
:100BE00008C39361C1F81C01DFF838C0CCF80000DD
:100BF0008020C1F80803D3617047000098000020EE
:100C00000060004010650040880500201465004029
:100C1000186500401C6500402065004024650040C8
:100C2000286500402C650040012202FA00F011F016
:100C3000010F0CBF01490249086070470C050050C4
:100C40000805005001490020086070471405005055
:100C5000012101FA00F003490968084018BF01208A
:100C60007047000010050050800000F1A0400029EE
:100C70000ABF02490129C0F8001770470C000300A1
:100C8000384A116881421ABFD2F804C084457047BF
:100C90002DE9F04F946884421ABFD5688542BDE8BB
:100CA000F08F166986421ABF57698742BDE8F08FF8
:100CB000D2F8189081451ABFD2F81CA08245BDE831
:100CC000F08F294BD3F80480B8F1080F28BFBDE896
:100CD000F08FB1F1FF3F4FF000014FF0010B23D037
:100CE000BCF1FF3F08BF59461ED0B4F1FF3F08BF1B
:100CF000022119D0B5F1FF3F08BF032114D0B6F18E
:100D0000FF3F08BF04210FD0B7F1FF3F08BF052107
:100D10000AD0B9F1FF3F08BF062105D0BAF1FF3F65
:100D20000CBF07214FF0FF31DFF840C08C0004F109
:100D3000804404F5C0444CEA002CC4F810C50C4CA7
:100D40000BFA01FCC4F804C34FF0E0244FF0400C50
:100D5000C4F800C142F8210008F101005860BDE864
:100D6000F08F00008805002098000020010002009C
:100D700000600040074901200864074800684FF000
:100D8000FF31A0FB012305480068101843F1000162
:100D90007047000000800040900000204085004027
:100DA0000F48002202600F48012141600E4B1A607B
:100DB000DFF838C00323CCF800300D4B1A600D4B20
:100DC0008A1E1A600A04C0F80423C0F800124FF00B
:100DD000E0238215C3F80021C16001601020704734
:100DE00090000020008000400485004008850040FD
:100DF000108500404085004070B4144A00234FF431
:100E0000007C5160124901224FF0E0244A60A0B1F9
:100E1000104D2B60104E03253560104D2B60104B8C
:100E2000401E18601004C1F80403C1F80022C4F881
:100E300000C1CA600A6070BC7047C4F880C1BFF3CB
:100E40004F8FBFF36F8F70BC704700009000002081
:100E50000090004004950040089500401095004027
:100E60004095004010B504210320FFF7B3FC022099
:100E700000F0DEF8012000F0EFF801220D491046E5
:100E800000F084FA042202210A48FFF7E3FB0A4932
:100E9000052000F097F90849022000F093F907496E
:100EA000002008700146052000F050F8BDE8104011
:100EB00000F040B94D0F0000C10E000058000020A6
:100EC00070B51A4C002504F108062078E0B101281D
:100ED00018BF70BD606856F8200088421BD1FFF72C
:100EE00087FC60681249401C81FB00214A10A2EB7C
:100EF000E171A1EB810100EB8100606056F82000F8
:100F0000BDE87040FFF782BC65603068FFF77EFC8B
:100F10000120207070BDFFF76BFC65602570BDE897
:100F200070400021052000F011B80000580000209A
:100F3000ABAAAA2A10B5FFF785FEFFF7D9FCFFF789
:100F400073FCFFF78FFF002010BD00002DE9F0417A
:100F50000F460446FFF76AFB601E052832D21B4D80
:100F6000A868401CA860402803D96868FFF784FC83
:100F7000FEE7FFF70DFD95F90100401CC11700EBDE
:100F8000916121F03F01401A1149C0B201EB0016F6
:100F900034707760FFF796FC0021C6E9020195F9ED
:100FA0000100401CC11700EB916121F03F01401A84
:100FB0006870084850F82410491C40F82410016853
:100FC000491C0160BDE8F041FFF73ABB1C0000205E
:100FD000A8000020A80400202DE9F04115460E4687
:100FE0000746FFF723FB104BD3F808C00CF0FF08AF
:100FF000BCF1000F12D00D49187801EB0014401C11
:101000002178397061683160D4E90212C5E90012B3
:1010100000F03F001870ACF101009860FFF710FB82
:101020004046BDE8F08100001C000020A800002020
:1010300007490022FF230A704B70064B8A601A6032
:101040005A609A60DA601A615A614860FFF704BC1E
:101050001C000020A80400202DE9F041324D334C43
:10106000022768600020207420606060A060E0605B
:1010700084F824006061A061E061206284F8380097
:10108000A062E0622063606384F84C00E063206447
:101090006064A06484F8600020656065A065E06518
:1010A00084F874006066A066E066214E2067FFF752
:1010B0006FFC002207EB8701104604EB810100BFA3
:1010C00051F820302BB941F820600B7C01225B1CC9
:1010D0000B74401C042801DA002AF1D013480327BE
:1010E000134E90F84C00042803D36868FFF7C4FB44
:1010F000FEE7FFF74DFC002207EB8701104604EBEB
:10110000810100BF51F820302BB941F820600B7CE1
:1011100001225B1C0B74401C0428A8BFBDE8F081B1
:10112000002AEFD0BDE8F08140000020C00400207C
:101130009111000086B00A20FFF738FC44F62061C8
:10114000002000F01BF90022032100F063F80F4D8E
:1011500004AA694602A8FFF73FFF002818BF002431
:1011600010D000BF9DF8080000EB800105EB810165
:1011700051F82420002A1CBF00999047641C042CBD
:10118000F0DBE5E7FFF702FBE2E70000C004002028
:101190000B4910B5097881420AD144F6206100203C
:1011A00000F0ECF80022BDE81040032100F032B856
:1011B000032818BF10BDBDE81040FFF7DBBA0000E0
:1011C0004000002070B50D4600EB80010F4800EB99
:1011D0008104207C042804D30D484068FFF74CFBB1
:1011E000FEE7FFF7D5FB00224FEA020054F820107B
:1011F00029B944F82050217C0122491C2174401C4B
:101200000428A8BF70BD002AF0D070BDC004002023
:10121000400000202DE9F74F564E0F468146062923
:101220007ED2FFF703FA00244FEAD97B29F0004A67
:10123000A046514DB1680EE004EB840015F8202063
:101240003AB105EB8000407AB84202D14FF0010874
:1012500003E0601CC4B28C42EED3FFF7F1F9042C1A
:101260006BD2B9F1000F20D0FFF792FBFFF7DEF948
:1012700004EB8400012105EB800405F82010C4F87C
:1012800004A084F808B067720298E060FFF702FBE0
:1012900050442061B8F1000F02D1B068401CB0602A
:1012A00003B0BDE8F04FFFF7CBB9B8F1000F40D065
:1012B000FFF76EFBFFF7BAF904EB84004FF0000C68
:1012C00005F820C0B068471EBC4238BFB0F1004FDF
:1012D0003BD2A0EB0408A8F101000028C4BF002104
:1012E00002461ADD6018C0B200EB800305EB8300F4
:1012F000491C90F8149005F8239083694360037F9C
:101300000372437F4372036AC360436A0361521EE0
:10131000E8D108EB0400401EC4B204EB840000E0F6
:101320000FE005F820C0B76003B0BDE8F04FFFF74D
:1013300087B93068FFF7A0FAFEE73068FFF79CFA3C
:10134000FEE73068FFF798FAFEE7A74288BF401E25
:10135000E3D900BF04EB840105EB810101F1140224
:1013600092E80C0781E80C07611CCCB28442F1D3EF
:10137000D3E700004800002038050020020021F0DB
:10138000004018BF40F000407047000070B50C46A8
:10139000054616460D491046FFF714FF0C490D4847
:1013A0004FF0020C00234C60037500F8283FBCF19D
:1013B000010CF9D10D6028468B60FFF74DFA3246DB
:1013C0002146BDE870400120FFF79ABAD91300000A
:1013D00048000020240500202DE9F34F89B0FFF7D5
:1013E00025F9002000905748816800297ED900988F
:1013F000554D00EB800615F82600002877D005EB48
:1014000086040A98216981427BD84E4F607AE16850
:101410007A689047207A20B161680A980844206170
:101420006FE04949002001F8260046490098896884
:101430004A1E0392904238BFB1F1004F6ED2091A92
:101440000291491E00294DDD04F11C07DDF808E07A
:1014500004F108067D1CEB1C321DAEF1010E04F1F7
:10146000140A04F1180904F1040804F1090C191D07
:1014700004F1100BCDF804E059F814EBCDF820E09E
:1014800017F814EBCDF81CE015F814EBCDF818E0C4
:1014900053F814EBCDF814E051F814EBCDF810E04C
:1014A0001AF814EB04F814EBDDF820E048F814EB1C
:1014B000DDF81CE006F814EBDDF818E00CF814EB8E
:1014C000DDF814E042F814EBDDF810E04BF814EB13
:1014D000DDF804E0BEF1010ECDF804E0CCD10299B4
:1014E0000844401E002100EB800201E011E008E00A
:1014F000154800F822101348039981600098401E97
:10150000009000980F49401C009089688842FFF4C1
:101510006EAF0BB0BDE8F04FFFF792B8824284BFC8
:101520004B1E0949DED900BF00EB800201EB8202AD
:1015300002F11404401C94E8F01082E8F010984284
:10154000F2D3CFE748000020380500200D0E0F1021
:101550001C1D1E1F7415000000000020A4000000C8
:101560000C06000018160000A4000020044500002E
:101570001C06000010000000000000000000000039
:10158000000000000000000000000000000000005B
:10159000000000000000000000000000000000004B
:1015A000000000000B0000000C000000180000000C
:1015B0001900000002000000000000000000000010
:1015C000000000000000000000000000000000001B
:1015D0000000000001000000020000000300000005
:1015E00004000000030000000200000001000000F1
:1015F00002000000030000000400000003000000DF
:1016000002000000000000000000000000000000D8
:08161000000000000090D0036F
:0400000500000201F4
:00000001FF
